:1000000061C0000087C0000085C0000083C0000000
:1000100081C000007FC000007DC000007BC00000E8
:1000200079C0000077C0000075C0000073C00000F8
:1000300071C000000C9486216DC000006BC00000F0
:100040000C94292467C000000C94ED260C941F2703
:1000500061C000005FC000005DC000005BC0000028
:1000600059C0000057C00000000000080002010055
:100070000003040700000000000000000102040863
:100080001020408001020408102001020408102002
:10009000040404040404040402020202020203032E
:1000A00003030303000000002300260029000000D2
:1000B0000000250028002B0000000000240027007D
:1000C0002A00442711241FBECFEFD8E0DEBFCDBFEA
:1000D00011E0A0E0B1E0E2E0F0E502C005900D9291
:1000E000AC3BB107D9F724E0ACEBB1E001C01D9205
:1000F000A33BB207E1F710E0C2E6D0E004C02197CD
:10010000FE010E94D027C136D107C9F70E94842280
:100110000C94FF2775CFCF92DF92EF92FF920F934F
:100120001F93E82FF92F05C001501109210931094A
:1001300061F1908196239417B9F305C0015011091C
:100140002109310911F1908196239413F7CFC12C25
:10015000D12CE12CF12C0AC08FEFC81AD80AE80A7A
:10016000F80A0C151D052E053F0579F080818623C0
:10017000841791F36C2D7D2D8E2D9F2D1F910F9146
:10018000FF90EF90DF90CF90089560E070E080E006
:1001900090E01F910F91FF90EF90DF90CF90089526
:1001A0004F925F926F927F92AF92BF92CF92DF9207
:1001B000EF92FF920F931F93CF93DF935C01162F63
:1001C000C42FD22F611104C061E0842F0E94322518
:1001D00060E08C2F0E946E250E9473242B013C014D
:1001E0000E947324641975098609970966307105A0
:1001F00081059105A8F361E08C2F0E946E250E9475
:1002000073242B013C01C02ED12CF12CE12C0E9437
:1002100073246419750986099709C616D706E80676
:10022000F906A8F760E08C2F0E946E25111104C01A
:1002300060E08D2F0E94322520E432E44FE050E050
:1002400061E08D2F0E949B25F5016083718382837D
:100250009383DF91CF911F910F91FF90EF90DF90EB
:10026000CF90BF90AF907F906F905F904F90089528
:1002700090E080E008950F931F93009709F487C0E2
:100280006115710509F483C000910001109101010D
:1002900020910201309103010E3F1F4F2F4F3F4F1E
:1002A00009F066C04FEF5FEFBA0140930001509331
:1002B000010160930201709303014091000150918C
:1002C00001016091020170910301DC011296ED9130
:1002D000FC9180819181A281B381809324029093CB
:1002E0002502A0932602B093270284819581A681DE
:1002F000B7818093200290932102A0932202B093B1
:10030000230280859185A285B38580931C029093FA
:100310001D02A0931E02B0931F0284859585A685B9
:10032000B7858093180290931902A0931A02B09394
:100330001B021092140210921502109216021092D3
:100340001702F6D38DEB95E09093BD018093BC012D
:100350009093BF018093BE01DAD2009731F421E07F
:1003600030E030932902209328021F910F910895C5
:1003700000910001109101012091020130910301CF
:10038000DB010D931D932D933C93139796CF8FEF25
:100390009FEFEBCF8F929F92AF92BF92CF92DF925F
:1003A000EF92FF921F93CF93DF934B015C0110916B
:1003B0002B0282E090E0909329028093280281141E
:1003C0009104A104B10441F480912B02811104C075
:1003D00080912A02C1E08111C0E0C12CD12C7601AC
:1003E00080912B02811106C080912A02811102C0E6
:1003F000CC23D1F083E090E09093290280932802EF
:10040000CC2371F1CCE9DFEF111101C01AD7CE0175
:10041000DF91CF911F91FF90EF90DF90CF90BF9031
:10042000AF909F908F9008956AE070E080E090E038
:100430000E94982480E1C80E87E2D81EE11CF11CBE
:100440008FEF88169806A806B80631F0C1E08C1424
:100450009D04AE04BF0408F0C0E080E08CD2C0CFA1
:10046000D0E0C0E0D1CFCF92DF92EF92FF920F9316
:100470001F93CF93DF938F3F910511F008F050C089
:1004800020912802309129022330310539F0209142
:100490002802309129022130310531F424E030E086
:1004A00030932902209328026A017B01EC018230FB
:1004B0009105A0F011E0AE01C701B60127D2AB0152
:1004C000BC01CE011123F9F0DF91CF911F910F9163
:1004D000FF90EF90DF90CF900C944A0B8C01000FAF
:1004E000111F04541E4FD8018D919C91892B11F33B
:1004F0000E94540B0297F1F6D801ED91FC91CE01C8
:100500000995182FD8CF0E946C0B90E080E0DF9106
:10051000CF911F910F91FF90EF90DF90CF900895B2
:100520008FEF9FEFF4CF80E026C2CF93DF9386E07A
:1005300090E0909329028093280276D2EC01ECEBB4
:10054000F1E084E0DF011D928A95E9F712D610925E
:10055000290210922802CE01DF91CF910895809157
:100560002A02089580911302089560930001709308
:100570000101809302019093030190E080E00895CF
:100580000F93CF93DF9300D000D0CDB7DEB780912B
:10059000AA0481111092AA0405E023E043E060E080
:1005A000CE010196FDDD69817A818B819C810E945B
:1005B00010232EEA34ED43EB59E30E94752320E02B
:1005C00030E040E05FE30E9475236093AD047093D8
:1005D000AE048093AF049093B0046091EA017091EF
:1005E000EB018091EC019091ED016F5F7F4F8F4F98
:1005F0009F4F6093EA017093EB018093EC0190931D
:10060000ED010E9410239B01AC016091EE017091FD
:10061000EF018091F0019091F1010E9475236093A8
:10062000E6017093E7018093E8019093E9010F9050
:100630000F900F900F90DF91CF910F910895E0ED03
:10064000F1E080E090E0A0E8BFEB82A393A3A4A335
:10065000B5A38DEC9CECACECBDE3868F978FA0A38B
:10066000B1A384E894EFA4EBB1E984839583A683D6
:10067000B78385E891EBA0ECB8E080879187A287EB
:10068000B38785E79AE7A9E5B5EF84879587A687BD
:10069000B7878EE697E8A0EABBE3808B918BA28BAD
:1006A000B38BA4ECB1E0B383A283E0ECF1E011964C
:1006B000FC93EE9389E291E091838083938382831C
:1006C00084EE91E015969C938E93149784ED91E0BF
:1006D00013969C938E93129786EE91E017969C93B7
:1006E0008E931697E6EAF4E081E090E0A0E0B0E0B7
:1006F00080839183A283B3831482089508954F92D7
:100700005F926F927F928F929F92AF92BF92CF92A1
:10071000DF92EF92FF920F931F93F89440900302A1
:10072000509004026090050270900602C090F7019C
:10073000D090F801E090F901F090FA01452B09F012
:10074000A6C09B01AC0124193509460957092901A6
:100750003A010091FF0110910002209101023091B5
:10076000020248015901840C951CA61CB71C801676
:100770009106A206B306A0F40091FB011091FC01C2
:100780002091FD013091FE010F5F1F4F2F4F3F4F12
:100790000093FB011093FC012093FD013093FE01B7
:1007A0008092FF0190920002A0920102B092020298
:1007B0000091FB011091FC012091FD013091FE019F
:1007C0008092070290920802A0920902B0920A0257
:1007D00000930B0210930C0220930D0230930E0233
:1007E00060930302709304028093050290930602C3
:1007F000A301920160EA76E881E090E00E949F27E1
:100800006C0D7D1D8E1D9F1D6093F7017093F80187
:100810008093F9019093FA01009100011091010178
:1008200020910201309103010F3F1F4F2F4F3F4F87
:10083000F1F000910001109101012091020130912D
:1008400003010E3F1F4F2F4F3F4F89F0C090000113
:10085000D0900101E0900201F090030121E08C149E
:100860009D04AE04BF0408F420E0209313027894A2
:100870001F910F91FF90EF90DF90CF90BF90AF90BE
:100880009F908F907F906F905F904F9008954B0155
:100890005C0184189508A608B708A3019201261BDD
:1008A000370B480B590B6415750586059705E0F065
:1008B00082169306A406B50640F420E030E0A901B4
:1008C00081149104A104B104A1F460EA76E881E006
:1008D00090E00E949F27A7019601261B370B480B2B
:1008E000590BCA01B901C3CF82169306A406B506F7
:1008F00060F7A501940160EA76E881E090E00E944B
:100900009F276C0D7D1D8E1D9F1DB1CFF8CECF93FF
:10091000DF9300D000D0CDB7DEB71C821B821A82D5
:10092000198210920F02109210021092110210926E
:100930001202BE016F5F7F4FCE0103960E946A21B3
:1009400069817A818B819C810E94631A009761F48E
:10095000BE016F5F7F4FCE0103960E9476216981B1
:100960007A818B819C812CD50F900F900F900F90E6
:10097000DF91CF910895FF920F931F93CF93DF9351
:10098000082F60E070E0CB010E949824FF24F394CC
:100990000E944E19EC01892B89F010E0CE3F8FEFB9
:1009A000D80769F0002361F160E070E0CB010E949C
:1009B000982481E090E0892B59F322C011E023D5DF
:1009C000EC01892B21F0CE3F8FEFD80759F7111199
:1009D0001EC011E0229609F410E00E94FF18EC01FD
:1009E000892B21F0CE3F8FEFD807E1F6111111C00E
:1009F00011E0CE3F8FEFD80709F410E001110BC0D2
:100A0000CE01DF91CF911F910F91FF90089511E0DA
:100A1000E4CF11E0F3CF60E070E0CB010E949824B6
:100A20001F25812F90E0C7CFCF93DF9380911302D2
:100A3000882321F060E070E0CB014CD635D6D0E0C1
:100A4000C0E0892B71F06AE070E080E090E00E94E5
:100A5000982481E090DF28D62196C03D27E0D20778
:100A600081F727D60E94B71A10922B0210922A0201
:100A70001092240210922502109226021092270250
:100A80001092200210922102109222021092230250
:100A900010921C0210921D0210921E0210921F0250
:100AA000109218021092190210921A0210921B0250
:100AB0001092140210921502109216021092170250
:100AC0004EEF5FEF6FEF7FEF409300015093010116
:100AD000609302017093030110921302E7E0F2E0C9
:100AE00028E0DF011D922A95E9F710920302109287
:100AF000040210920502109206021092FF01109259
:100B0000000210920102109202021092FB01109258
:100B1000FC011092FD011092FE011092F70110925B
:100B2000F8011092F9011092FA01DF91CF91089526
:100B300010923702109238021092390210923A0243
:100B40001092360280913F029091400290933502BC
:100B500080933402109233021092320210922E02CD
:100B600010922F02109230021092310210923C0229
:100B700010923B0290E080E00895CF92DF92EF92D6
:100B8000FF920F931F93CF938C01892B09F055C0CF
:100B900020913F02309140028091340290913502C1
:100BA00040913F02509140025093350240933402ED
:100BB0002817390781F010923302109232021092F6
:100BC0002E0210922F0210923002109231021092D7
:100BD0003C0210923B0280913F02909140020197AB
:100BE00061F580913B0290913C02892B21F4809128
:100BF0000401811112C080913B0290913C02019747
:100C0000E1F480912E0290912F02A0913002B091D8
:100C100031020197A105B10581F410922E021092C4
:100C20002F0210923002109231021092040182E0E1
:100C300090E090933C0280933B0280913F02909120
:100C40004002019709F01CC1809155029091560213
:100C50008017910709F014C18091510290915202BE
:100C6000A0915302B0915402009709F409C1209158
:100C7000500221110DC040915102509152026091D9
:100C8000530270915402452B462B472B09F4F8C0B0
:100C900020913B0230913C022230310509F0F0C036
:100CA000209132022111ECC0FC01C080D180E28091
:100CB000F38080913602882309F4D3C080914202E8
:100CC00090914302892B09F4FDC02091420230919A
:100CD000430281E02230310509F080E02091420298
:100CE00030914302C1E02130310549F020914202A8
:100CF00030914302C1E02230310509F0C0E0882381
:100D000009F456C020914C0230914D0240914E02A0
:100D100050914F02C701B6010E94712387FD14C094
:100D200020914C0230914D0240914E0250914F0261
:100D300060913702709138028091390290913A02A5
:100D40000E940C2387FD22C020914C0230914D025D
:100D500040914E0250914F02C701B6010E9471238B
:100D6000181634F520914C0230914D0240914E02FC
:100D700050914F0260913702709138028091390290
:100D800090913A020E940C23811112C0809144027A
:100D900090914502A0914602B0914702892B8A2B7F
:100DA0008B2B19F481E08093330281E0809332022F
:100DB000CC2309F456C020914C0230914D02409151
:100DC0004E0250914F02C701B6010E940C2387FFCB
:100DD00014C020914C0230914D0240914E0250912E
:100DE0004F026091370270913802809139029091E0
:100DF0003A020E94712387FF22C020914C02309159
:100E00004D0240914E0250914F02C701B6010E941F
:100E10000C23811126C020914C0230914D0240914B
:100E20004E0250914F0260913702709138028091CA
:100E3000390290913A020E947123181694F480911D
:100E4000440290914502A0914602B0914702892B3D
:100E50008A2B8B2B19F481E08093330281E08093FD
:100E6000320281E090913202911180E0809336024B
:100E7000C0923702D0923802E0923902F0923A02E0
:100E8000012B09F067C180913B0290913C02892BB4
:100E9000D9F4109241021092320280910401882309
:100EA00079F082E090E090933C0280933B021092B4
:100EB000040120913F023091400281E0232BE9F0B0
:100EC00080E01BC081E00ACF1092040180914102B2
:100ED000882349F01092330210923C0210923B0298
:100EE00010924102EDCF80913F0290914002892BF8
:100EF000E1F0809132021092320220913B02309157
:100F00003C022230310509F45EC088F42115310518
:100F100009F448C02130310509F4F3C010923302BE
:100F2000109232021092410238C081E0E6CF2330A5
:100F3000310509F4B1C02430310581F740912E020A
:100F400050912F026091300270913102411551058C
:100F50006105710561F041505109610971094093C2
:100F60002E0250932F026093300270933102409111
:100F70002E0250912F026091300270913102452B68
:100F8000462B472BD9F420913D0230913E0221306F
:100F9000310509F046C01092330210923C021092C3
:100FA0003B020CC080910401882341F082E090E074
:100FB00090933C0280933B021092040110922C0209
:100FC00080913302CEC08823C9F38091440290916E
:100FD0004502A0914602B0914702181619061A065A
:100FE0001B060CF07DC080913F029091400201975A
:100FF00009F076C08091440290914502A09146028A
:10100000B091470280932E0290932F02A09330025A
:10101000B093310283E090E090933C0280933B02D6
:10102000CDCF409148025091490260914A0270919F
:101030004B02452B462B472BA9F01092330280918F
:10104000480290914902A0914A02B0914B028093CC
:101050002E0290932F02A0933002B093310281E0D0
:1010600090E0DACF882399F08091050190910601F4
:10107000A0910701B091080180932E0290932F0256
:10108000A0933002B093310284E090E0C5CF10927B
:10109000330282E090E0C0CF80912E0290912F0227
:1010A000A0913002B09131020097A105B10559F02D
:1010B0000197A109B10980932E0290932F02A0936A
:1010C0003002B093310280912E0290912F02A091B4
:1010D0003002B0913102892B8A2B8B2B09F06ECF15
:1010E0008091050190910601A0910701B09108013E
:1010F000892B8A2B8B2B09F44ECF81E0809333020E
:10110000B3CF40912E0250912F0260913002709126
:101110003102411551056105710561F041505109D8
:101120006109710940932E0250932F02609330029F
:101130007093310240912E0250912F026091300243
:1011400070913102452B462B472B09F037CF811187
:10115000C7CF9FCF80912C02882309F431CF809193
:101160002D02CF911F910F91FF90EF90DF90CF90C4
:10117000089510923702109238021092390210929C
:101180003A021092360210923C0210923B021092E8
:1011900035021092340210925602109255021092AB
:1011A00033021092320210922E0210922F021092ED
:1011B00030021092310210922D0210922C021092E5
:1011C0005102109252021092530210925402109245
:1011D000500210924C0210924D0210924E02109248
:1011E0004F0288EE93E0A0E0B0E080930501909379
:1011F0000601A0930701B0930801109248021092D3
:10120000490210924A0210924B021092440210922C
:101210004502109246021092470210924302109229
:10122000420281E080930401109241021092400238
:1012300010923F0210923E0210923D0290E080E038
:10124000089580913F0290914002892B19F5809179
:101250000401882351F080914102811106C081E090
:1012600080932D0280932C020895209141023091A9
:10127000040181E090E0332311F090E080E030E061
:1012800082239323892B21F010922D0281E0EACF53
:1012900010922C02089582E090E0FA0191838083FD
:1012A0008FEF9FEF0895CF93DF93EA01009711F03E
:1012B0000E94D41B1982188290E080E0DF91CF91C8
:1012C0000895DB01009719F48FEF8C9308952EEFAA
:1012D0002C930F968F30910508F033C0FC01ED5828
:1012E000F64F0C94D0279F099D099B0999099709EE
:1012F0009309950991098F098D098A09860982093F
:101300008809A10980E311968C93089589E2FBCFA7
:1013100082E2F9CF11961C92089583E2F4CF81E224
:10132000F2CF81E1F0CF87E2EECF8AE2ECCF80E12D
:10133000EACF84E2E8CF88E2E6CF86E2E4CF81E339
:10134000E2CF80E2E0CF8091630290916402089541
:1013500090936402809363020895809162020895DD
:1013600090916202892B809362020895982F909544
:1013700080916202892380936202089580916102C4
:10138000089580915F029091600208956115710542
:1013900059F0FB0130E020E070E060E024173507F1
:1013A00019F06115710511F0CB010895A081B1818B
:1013B000A817B90709F4BF012F5F3F4F3696EECF4C
:1013C0008091650281111CC062D268D2909358024C
:1013D000809357020E94E7130E94F91390935C02D6
:1013E00080935B020E9469180E94701890935A02C1
:1013F0008093590281E08093650290E080E0089537
:1014000084EF9FEF08958F929F92AF92BF92CF92F9
:10141000DF92EF92FF920F931F93CF93DF93CDB79D
:10142000DEB72A970FB6F894DEBF0FBECDBF1A867F
:10143000198618861F821E821D821C821B821A82B8
:1014400019828091650207EF1FEF882309F49CC081
:101450008E010D5F1F4F9E012B5F3F4FAE01495F15
:101460005F4FBE01675F7F4F90E080E00E94E91907
:101470008C01009721F00596029708F0DBC02985C2
:101480003A852115310509F402C1ED80FE804B81BA
:101490005C81B701640F751F8F8198858617970748
:1014A00008F4F5C0E20EF31ED7019C91903C09F0C0
:1014B0007FC04230510508F47BC011968C91409159
:1014C000630250916402452B09F49CC0913F08F0DF
:1014D00071C02CE1290F2D3008F48BC02DE2290FAB
:1014E000203108F489C0903C21F48150823008F406
:1014F00083C088E3890F8B3008F481C091E6C92E40
:1015000099E0D92EEBE4F9E06D817E81AE014F5F69
:101510005F4F89859A8509955C01C114D104A1F1B9
:1015200089809A808114910479F18B819C8188153E
:10153000990508F487C010E000E04B815C8170E001
:1015400060E0C7010E94F82701151105E9F44981FF
:101550005A8169857A858D819E81680F791FC501C1
:10156000F6010995E980FA800D811E812F81388569
:1015700049855A856FEF7FEF81E090E00E948519E1
:101580008C01892B09F056C0C8012A960FB6F89431
:10159000DEBF0FBECDBFDF91CF911F910F91FF90A6
:1015A000EF90DF90CF90BF90AF909F908F90089575
:1015B00080E085CF30E020E0220F331FF901E95AA7
:1015C000FD4F0190F081E02D309709F497CF892FDE
:1015D00090E00995009709F491CFDC011296ED9106
:1015E000FC9113971496CD90DC90309709F08CCF36
:1015F0001FC021E030E0E0CF22E030E0DDCF23E08B
:1016000030E0DACFD12CC12CE3E5F9E09F3F09F0BF
:101610007BCFE0915702F0915802309721F4C90135
:1016200004EF1FEF0CC08FEF90E009950097A9F62B
:1016300004EF1FEF89859A85009709F4A5CF0E94D2
:10164000D41BA2CF0E94B21A8C0189859A850E9470
:10165000D41B70E060E0C4010E944B1A98878F830E
:101660000E9482199E838D836F8178856115710533
:1016700059F0C8010E94601D9A87898706EF1FEF05
:10168000892B09F058CF59CF08EF1FEF56CF08EF3D
:101690001FEFD0CF20916502222319F020E00C9497
:1016A000FE1387EF9FEF089580916302909164028B
:1016B00008950E9475180E94CF17F5D0E7E5F2E073
:1016C00088E0DF011D928A95E9F71092650290E0AB
:1016D00080E008950C942C1621E040E050E0BA011F
:1016E0000C94FE1386E090E0FA019183808390E0F1
:1016F00080E0089547E050E06CE271E047CEDF9271
:10170000EF92FF920F931F93CF93DF938A01EC0127
:10171000C60FD71FE0906902F0906A02D9800E943C
:101720009A1AD816190678F082E090E0F8019183B1
:1017300080838EEF9FEFDF91CF911F910F91FF90EC
:10174000EF90DF900895EF2841F482E090E0F801F7
:101750009183808384EF9FEFEECF8981809368022D
:1017600090E00196F8019183808390E080E0E3CFE0
:10177000CF93DF93EA010E94DD16882321F00E94B7
:10178000A71A0E94DE1682E090E0998388838BEF8F
:101790009FEFDF91CF910895CF93DF93EB0186E028
:1017A000FB0111928A95E9F78FEF8883D6DD898353
:1017B000E5DD8A83E6DD9D838C83DF91CF910895FB
:1017C000CF93DF93EA010E94E016811109C082E005
:1017D00090E09983888385EF9FEFDF91CF91089503
:1017E00090E080E0B5DD81E090E09983888390E02F
:1017F00080E0F3CF0F931F93CF93DF93EA018C0127
:10180000060F171F0E94E01681110BC082E090E0C6
:101810009983888385EF9FEFDF91CF911F910F917F
:101820000895F8018181823038F082E090E0998358
:1018300088838EEF9FEFF0CF81E090E089DD88E034
:1018400090E09983888390E080E0E6CFCF93DF93A8
:101850000097D1F4EB01FB01329686E0DF011D9287
:101860008A95E9F78FEF888385E089831A820E9441
:101870009A1A8B830E94991A9D838C8381E08E83B0
:101880008F83DF91CF910895DF91CF911ACD8AE7B1
:101890009BE09093670280936602089580916602B0
:1018A000909167020895109267021092660208955F
:1018B0008091690290916A020895411105C06115F5
:1018C00071058105910561F06093690270936A0268
:1018D00080936B0290936C0240936D0281E00895B7
:1018E00080E00895FF920F931F93CF93DF938A01B7
:1018F000EC01C60FD71FF9800E949A1AF816190634
:1019000068F082E090E0F801918380838EEF9FEF92
:10191000DF91CF911F910F91FF9008956C817D8190
:101920008E819F814B81C9DF811108C082E090E0E8
:10193000F8019183808384EF9FEFEACF89818093C0
:10194000680290E00196F8019183808390E080E046
:10195000DFCFCF93DF93EA01FC01E60FF71F64812D
:101960007581868197814381A8DF811109C082E05A
:1019700090E09983888384EF9FEFDF91CF91089562
:1019800081E090E09983888390E080E0F6CFE9E6FB
:10199000F2E04081518162817381480F511D611DC8
:1019A000711D40835183628373830895CF93C091E7
:1019B00068024C2F50E06091690270916A020196B2
:1019C0000E94EF278C2FE3DF10926802CF910895D9
:1019D000009799F48091690290916A022FEFFB01C0
:1019E0002083892B59F02091680230E02F5F3F4F10
:1019F0002417350719F4CB01D9CF63CC089500978C
:101A000099F48091690290916A022FEFFB01208383
:101A1000892B59F02091680230E02F5F3F4F241747
:101A2000350719F4CB01C2CF4CCC089523E1AC01AA
:101A3000249FC001259F900D1124E0917202F09126
:101A40007302E80FF91F238134812250310981E0AC
:101A50002230310508F080E008950F931F93CF9353
:101A6000DF930091740210917502D0E0C0E080E035
:101A70000C171D0749F491E0811190E0892FDF9147
:101A8000CF911F910F9108958111F5CFCE01CEDF37
:101A90002196EECFA0917202B0917302109729F1B6
:101AA000209174023091750282179307F0F453E18C
:101AB000589F9001599F300D1124A20FB31FED9133
:101AC000FC911197309789F012968C91681768F401
:101AD0008BE0689FE00DF11D112480819181892B9D
:101AE00021F081E09281491708F080E008959C017F
:101AF00043E1429FC001439F900D1124E091720287
:101B0000F0917302E80FF91F8385823091F481E030
:101B100090E0658176814091090150910A01641736
:101B2000750711F490E080E0892B19F081E0232BF8
:101B300009F080E00895EF92FF920F931F93CF93E7
:101B4000DF93EA01FC01E60FF71F02811381E480B5
:101B5000F5804F2D6E2DC8019DDF81110DC082E0F3
:101B600090E0998388838EEF9FEFDF91CF911F9153
:101B70000F91FF90EF900895C80158DF882339F046
:101B800082E090E09983888388EF9FEFEECF1093F7
:101B9000100100930F01E0921101F092120181E017
:101BA00090E09983888390E080E0DFCFCF92DF924E
:101BB000EF92FF920F931F93CF93DF937A01EC0183
:101BC000C60FD71FC0900F01D090100100911101D6
:101BD00010911201412F602FC6015CDF811110C0EE
:101BE00082E090E0F701918380838AEF9FEFDF919D
:101BF000CF911F910F91FF90EF90DF90CF900895BC
:101C0000C60114DF882341F082E090E0F701918360
:101C1000808388EF9FEFEBCF4C815D816E817F8168
:101C20009A8189818F3F41F082E090E0F7019183B2
:101C300080838EEF9FEFDBCFE3E1EC9D9001ED9D84
:101C4000300D1124E0917202F0917302E20FF31F44
:101C50000190F081E02D2BE0029FE00DF11D112499
:101C60000190F081E02D27E0129FE00DF11D11247D
:101C7000808391838B8182834383548365837683BE
:101C80001F5F1093120181E090E0F7019183808340
:101C900090E080E0ACCFEF92FF920F931F93CF9331
:101CA000DF937A018C01060F171FC0917202D09149
:101CB0007302209781F021E030E0F8018281938166
:101CC00040917402509175028417950710F030E02E
:101CD00020E0232B71F482E090E0F7019183808370
:101CE0008EEF9FEFDF91CF911F910F91FF90EF90BB
:101CF000089543E1489F9001499F300D1124C20F80
:101D0000D31F94DE882341F082E090E0F7019183B5
:101D1000808388EF9FEFE6CFF8012481358120385A
:101D20003105C8F687818111D6CF4181842F90E09B
:101D30008F7E009741F082E090E0F70191838083ED
:101D400086EF9FEFCFCF4F833E832D832681288759
:101D50001986223010F421E0288721E030E0F701D5
:101D600031832083BFCF88E090E0FA0191838083A4
:101D700090E080E00895FB018FEF808381E1818313
:101D80008FEF9FEF9383828380E890E09583848335
:101D9000168217820895FB018FEF808391E0918373
:101DA00082839383848384E3858381E090E09783B7
:101DB00086830895DF92EF92FF920F931F93CF9344
:101DC000DF93EA01FC01E60FF71F8181813071F09A
:101DD00082E090E0998388838FEF9FEFDF91CF912E
:101DE0001F910F91FF90EF90DF9008958281938172
:101DF000D4802581E680F7800091720210917302F1
:101E00000115110539F482E090E0998388838CEF05
:101E10009FEFE4CF409174025091750284179507AB
:101E200038F082E090E0998388838EEF9FEFD6CFE1
:101E3000892B39F082E090E09983888386EF9FEFC9
:101E4000CDCF8D2D8D7FB1F72130A1F781E0D1105D
:101E500006C091E0E916F10431F080E004C0E2E050
:101E6000EE16F104D0F3882329F390E080E0DEDD64
:101E7000882339F082E090E09983888388EF9FEF90
:101E8000ADCFF801D38681E08487F686E586108A97
:101E9000178681E090E09983888390E080E09ECF70
:101EA0004CE050E066E571E071CA8F929F92BF925C
:101EB000CF92DF92EF92FF920F931F93CF93DF9316
:101EC000EA01FC01E60FF71F828193810481B5804E
:101ED000E0917202F0917302309791F482E090E009
:101EE000998388838CEF9FEFDF91CF911F910F91A2
:101EF000FF90EF90DF90CF90BF909F908F900895CC
:101F000020917402309175028217930738F082E0B5
:101F100090E0998388838EEF9FEFE6CF23E1289F9F
:101F20006001299FD00C1124EC0DFD1DE080F18093
:101F3000E114F10499F28281081748F78BE0089FB9
:101F400080011124E00EF11EF70180819181892B1F
:101F500029F6BB20E1F2F7E0BF9E40011124C40145
:101F60000E949B1BF70191838083E0917202F091A4
:101F70007302EC0DFD1D0190F081E02DE00FF11FCB
:101F800080819181009739F482E090E09983888381
:101F90008DEF9FEFA9CFA40170E060E00E94F827C9
:101FA0008091720290917302C80ED91EF601808151
:101FB0009181080F191FF801B28281E090E09983A6
:101FC000888390E080E090CFAF92BF92CF92DF9273
:101FD000FF920F931F93CF93DF93EA01FC01E60F6B
:101FE000F71F82819381F480009172021091730235
:101FF0000115110581F482E090E0998388838CEFCC
:102000009FEFDF91CF911F910F91FF90DF90CF90C5
:10201000BF90AF900895209174023091750282179D
:10202000930738F082E090E0998388838EEF9FEFEA
:10203000E8CF2FEF2F0D2C3FA8F723E1289F600159
:10204000299FD00C11240C0D1D1DF8018081918158
:10205000892B89F6FBE0FF9E50011124C5010E94E7
:102060009B1BF80191838083E0917202F0917302CF
:10207000EC0DFD1D80819181009739F482E090E0A4
:10208000998388838DEF9FEFBCCFA50170E060E05E
:102090000E94F827E0917202F0917302EC0DFD1D91
:1020A000F28281E090E09983888390E080E0A9CF7C
:1020B000CF92DF92EF92FF920F931F93CF93DF9314
:1020C000860F971FFC01028113818091720290910B
:1020D0007302892B81F082E090E0FA019183808382
:1020E0008CEF9FEFDF91CF911F910F91FF90EF90B9
:1020F000DF90CF900895C801B0E0A0E00197A1095A
:10210000B1098F3F9F4FA105B10540F082E090E0FB
:10211000FA01918380838EEF9FEFE4CF7A0183E110
:10212000809F6001819FD00C1124C6010E949B1BDF
:10213000EC01009741F482E090E0F7019183808305
:102140008DEF9FEFCFCFA60170E060E00E94F827EF
:10215000D0937302C09372021093750200937402BD
:1021600090E080E02FEF3FEF41E061E070E080170A
:10217000910741F481E090E0F7019183808390E042
:1021800080E0B0CF3A8B298B1B864C877E876D878A
:10219000188A1F8601966396EACFCF92DF92EF925C
:1021A000FF920F931F93CF93DF93EC01D12CC12C9F
:1021B00010E000E0F12CE12C6A8170E006171707AF
:1021C000BCF0660F771FAE014F5E5F4FC7010E94E4
:1021D000001C009721F02FEF3FEF3A8B298BDF9106
:1021E000CF911F910F91FF90EF90DF90CF900895C6
:1021F000E881F981EC0DFD1D438154818D859E851B
:10220000489F9001499F300D589F300D1124C901FE
:1022100001960115110519F44F8144FD049661E002
:1022200070E00E944B1AE816F90608F47C010F5F73
:102230001F4F8BE0C80ED11CBFCFF89420917002C5
:102240003091710281E02115310509F080E0232BE6
:1022500009F0789408952F923F924F925F926F9277
:102260007F928F929F92AF92BF92CF92DF92EF9226
:10227000FF920F931F93CF93DF933C01660E771E5F
:10228000F301828193814C01B12CA12CC091720287
:10229000D0917302209769F021E030E060917402E0
:1022A000709175028617970710F030E020E0232B1D
:1022B000D1F482E090E0FA01918380838EEF9FEF6A
:1022C000DF91CF911F910F91FF90EF90DF90CF9012
:1022D000BF90AF909F908F907F906F905F904F9046
:1022E0003F902F9008958092130190921401A09234
:1022F0001501B092160163E1689F9001699F300D4E
:102300001124C20FD31FF3018181833040F082E09A
:1023100090E0FA019183808386EF9FEFD1CF2A016D
:102320002B813C81232BF1F4288139819F8191FFFE
:102330002EC0232B09F46FC0209177029A81422F7F
:10234000490F5527551FBA0141E050E0613871052A
:1023500014F050E040E0452B09F45DC02A87920F4D
:10236000909377028150823008F481C066DF882321
:1023700009F4D8C0F3018181813009F48DC008F4DB
:102380007BC0823009F4C6C090E080E0ADC0232B52
:1023900009F441C0209176029A81E22FE90FFF27CC
:1023A000FF1F41E050E0ED3FF10514F050E040E048
:1023B000452B89F12A87920F90937602D3CFA08183
:1023C000B181A20FB31F11966C91060F111D0196DA
:1023D000295F3F4F8417950794F38D859E85089F4D
:1023E0001001099F300C189F300C1124C114D10426
:1023F000D1F48F8184FF17C00E94991AF5E02F0E47
:10240000311C21E08215930508F420E0A701455F07
:102410005F4F21110EC082E090E0F2019183808332
:1024200087EF9FEF4DCF0E94991A2FEF221A320AA1
:10243000E8CF88819981E80EF91EF70114830383A0
:10244000FFEFCF1ADF0A7A018A818C151D0409F08B
:102450000CF48CCFE881F981EE0DFF1D428150E034
:1024600030E020E010E000E090E080E0B3CFF12C1D
:10247000E12CD12CC12CE8CF81E090E09C838B83B0
:10248000ECDA882309F480CF81E090E00E94A8096B
:1024900080E40E94B60978CF89899A89019661F013
:1024A00083E090E09C838B8382E090E00E94A80907
:1024B00080E40E94B00968CF8D819E81209109013E
:1024C00030910A0182179307D1F460910D01709148
:1024D0000E01AE014F5E5F4F80910B0190910C0198
:1024E0000E941F1D0097E1F2789422E030E0F20193
:1024F00031832083892B99F08DEF9FEFE1CE8928DE
:102500008A288B2869F6892B59F6CE0146DE188A6F
:102510001F86E8CF82E090E09C838B8335CF90E0EC
:1025200080E0CECE82E090E0F2019183808385EF5F
:102530009FEFC6CE8F929F92AF92BF92CF92DF92C3
:10254000EF92FF920F931F93CF93DF93EA018C01D9
:10255000060F171FF8018181833098F082E090E028
:102560009983888386EF9FEFDF91CF911F910F9121
:10257000FF90EF90DF90CF90BF90AF909F908F90A3
:1025800008958091720290917302892B61F081E02D
:1025900090E02091740230917502232B11F490E0A9
:1025A00080E0892B39F482E090E0998388838EEF74
:1025B0009FEFDACF42DE882309F4DFC0F801818182
:1025C000813009F495C0E8F0823099F420917402CA
:1025D00030917502E0917202F091730290E080E018
:1025E00041E050E02817390709F0BDC036DA811103
:1025F00017C0789481E090E09983888390E080E030
:10260000B3CF2091740230917502E0917202F09183
:10261000730290E080E041E050E02817390741F470
:1026200081E090E00E94A80980E40E94B609E1CF11
:1026300063817481672B11F05483438301967396F1
:10264000ECCFE0917202F0917302E00FF11F238151
:10265000348122303105D9F4218932892F3F3F4F0F
:10266000B1F4258136814091090150910A01241766
:10267000350761F5AF014F5E5F4F60910D017091BD
:102680000E0180910B0190910C010E941F1DEFEF34
:10269000CE1ADE0AEE0AFE0A0D5E1F4F409174024A
:1026A0005091750270E060E0C416D506E606F706A4
:1026B0003CF5009731F27894892B09F49BCF82E0A6
:1026C00090E0998388838DEF9FEF4ECFC114D104A2
:1026D000E104F104E1F6232BD1F6CF015EDDE091B8
:1026E0007202F0917302E00FF11F108A1786CFCFAC
:1026F00010E000E090E080E0C12CD12C7601CECF3C
:102700000097C9F610E000E0812C912C540183E081
:10271000E82EF12C1AC0E0917202F0917302E00FE2
:10272000F11F83819481029749F4F482E38282E06D
:1027300090E00E94A80980E40E94B009FFEF8F1A80
:102740009F0AAF0ABF0A0D5E1F4F809174029091DD
:102750007502B0E0A0E088169906AA06BB06DCF276
:1027600090E080E0A8CF638174816230710511F43C
:10277000548343830196739635CF82E090E099832A
:10278000888385EF9FEFF0CE0097B9F48FEFFB01C0
:102790008083209113013091140143E1429FC001D5
:1027A000439F900D1124E0917202F0917302E80FA3
:1027B000F91F8285FB01818308950C94610988E0EB
:1027C00090E0FA019183808390E080E00895109278
:1027D000710210927002E2E7F2E086E0DF011D92E2
:1027E0008A95E9F780E59FE090936F0280936E02EF
:1027F000089580916E0290916F0208952F923F92FA
:102800004F925F926F927F928F929F92AF92BF9200
:10281000CF92DF92EF92FF920F931F93CF93DF93AC
:10282000CDB7DEB760970FB6F894DEBF0FBECDBF51
:10283000F894E0917002F09171023196F093710278
:10284000E09370027894A0917202B0917302BA83FF
:10285000A983109709F4FAC1E0917402F09175020E
:10286000EF2B09F4F3C128874B875C876D877E8740
:102870009A878987B88BAF87312C212CF12C512C6A
:10288000412C80917402909175022816390610F43B
:10289000FF2029F1F89480917002909171020197C4
:1028A00090937102809370027894C20160960FB683
:1028B000F894DEBF0FBECDBFDF91CF911F910F9176
:1028C000FF90EF90DF90CF90BF90AF909F908F9050
:1028D0007F906F905F904F903F902F900895B1013F
:1028E00090E080E087D4682EEF85F889878181FDAC
:1028F0003DC0838194810397C9F5258136813C834E
:102900002B8389859A852817390781F5C101EFD86E
:10291000782E8823A9F1AF85B8891F968D919C9157
:102920005097019621E01D964D915C918417950773
:1029300009F020E02F83B12CA12CEF85F88982814A
:102940008A151B0419F014F0FF20E9F0F885FF2325
:1029500009F46CC1AF85B88950961C921E921F97DE
:10296000662021F0B10190E080E046D4FFEF2F1AFD
:102970003F0A2F8538892D5E3F4F388B2F8781CFB7
:10298000B1E0BF83D8CFBED49E838D83E885EE238C
:10299000E9F0772009F43CC1AF85B8891F968D9185
:1029A0009C91892B79F0BBE0BA9DC001BB9D900D35
:1029B0001124AF85B889ED91FC91E80FF91F85814D
:1029C0009681F2D6BFEFAB1ABB0AB7CF81E0772072
:1029D00039F0EF85F88927853089232B09F080E0CD
:1029E000F82EE12CA114B10439F4AF85B8891796FB
:1029F000EC90E4FAEE24E0F8BBE0BA9D6001BB9DE8
:102A0000D00C1124882309F424C1AF85B889ED9135
:102A1000FC911197EC0DFD1D438154811D962D9164
:102A20003C91429FC001439F900D529F900D1124F5
:102A3000E1105DC001969087878361E070E0878137
:102A4000908529D5EF85F889218932890081118106
:102A50000C0D1D1D2F3F320709F44BC0BC01C901ED
:102A60000E94601DD80116969C938E931597AF8592
:102A7000B889ED91FC911197EC0DFD1D0581168132
:102A80000115110509F4CDC0ED81FE810E0F1F1F48
:102A90001A968C918A0DD8018C93E1102FC00F5F8C
:102AA0001F4FAF85B889ED91FC91EC0DFD1D12878C
:102AB0000187AF85B889ED91FC91EC0DFD1D8581F5
:102AC0009681892B09F4A4C08091090190910A0193
:102AD0002B813C812817390709F465C0772011F054
:102AE00001851285912C812C1A8219824AC0059683
:102AF000A2CF21D6F80196838583B9CF8B859C859B
:102B0000AD85BE85F80181839283A383B4830B5F77
:102B10001F4FC7CFE080F180E80CF91CD701139656
:102B20006D917C9114978C918F3F09F473C0E1E013
:102B3000F0E002C0EE0FFF1F8A95E2F7CF01092EE9
:102B4000000CAA0BBB0BFB01408151816281738198
:102B500084239523A623B72321E0892B8A2B8B2B53
:102B600009F420E0D8012C93D70111968C91080F1D
:102B7000111DE981FA813196FA83E983F7E08F0E1E
:102B8000911CAF85B889ED91FC91EC0DFD1D828102
:102B900029813A818217130611F00CF0BBCF772000
:102BA00011F0128701873F81332391F1AF85B889F6
:102BB000ED91FC91EC0DFD1D61E070E08781908549
:102BC0006AD4AF85B889ED91FC91EC0DFD1DE780CD
:102BD000F08445815681E1E0F0E0662011F0F0E0FC
:102BE000E0E00D811E819C01B101882799278E1B91
:102BF0009F0B8BD32C01892B59F0EF85F8898081AD
:102C00009181C80ED91ED60115968D919C91CCD577
:102C1000F12CD8CEF701418150E0C8010E94EF2786
:102C2000A3CF86EF482E55245A94CCCEEF85F88951
:102C3000878590890196908B8787258536858217B1
:102C4000930709F08DCE108A17868ACE512C412C1D
:102C500021CE10E000E02DCF2F923F924F925F9255
:102C60006F927F928F929F92AF92BF92CF92DF929C
:102C7000EF92FF920F931F93CF93DF938091720295
:102C80009091730210E000E0892BA9F0D6DA0AEFE8
:102C90001FEF882381F02090740230907502C0915C
:102CA0007202D0917302D12CC12C10E000E02C14E0
:102CB0003D04A9F47894C801DF91CF911F910F9141
:102CC000FF90EF90DF90CF90BF90AF909F908F904C
:102CD0007F906F905F904F903F902F900895C60126
:102CE0000E94770D882309F18B819C810397E9F479
:102CF0008F859889892BC9F0B60190E080E07AD25F
:102D000021E030E0882311F030E020E04424552415
:102D1000421A530AB12CA12C912C812C8A8188153E
:102D2000190409F038F4188A1F864FEFC41AD40A20
:102D30006396BDCFE881F981EA0DFB1D85819681FF
:102D4000892BA1F161E070E087819085A4D33C01DB
:102D5000D9D28C01E881F981EA0DFB1D818592852C
:102D600025813681200F311FAC01421B530B9A0184
:102D700047815085421B530B70E060E00E94F827AA
:102D8000E881F981EA0DFB1DE780F08445815681D9
:102D90009301B601C201B9D28C01892B39F0E881C7
:102DA000F981EA0DFB1D85819681FED45FEF851ABE
:102DB000950A8BE0A80EB11CB1CF3FCA7894089554
:102DC0002F923F924F925F926F927F929F92AF921B
:102DD000BF92CF92DF92EF92FF920F931F93CF9308
:102DE000DF9300D000D000D0CDB7DEB700917202E3
:102DF00010917302992493940115110509F43EC0B2
:102E0000A0907402B090750218DA982E8823B1F160
:102E10001092730210927202109275021092740254
:102E200010927602109277028FEF9FEFDC01809371
:102E3000130190931401A0931501B0931601789497
:102E40007AD31E830D83C12CD12C7601C501B0E04D
:102E5000A0E089839A83AB83BC8322242A94322CFA
:102E600089819A81AB81BC81C816D906EA06FB0626
:102E7000F4F0C80199D480E40E94B609892D269601
:102E80000FB6F894DEBF0FBECDBFDF91CF911F917B
:102E90000F91FF90EF90DF90CF90BF90AF909F90F9
:102EA0007F906F905F904F903F902F900895AD81ED
:102EB000BE8115968D919C911697209109013091B4
:102EC0000A0182179307D1F451968D919C91E6D512
:102ED000ED81FE8180819181B12CA12C412C512C5E
:102EE0003201892B89F5BFEFCB1ADB0AEB0AFB0A0B
:102EF000ED81FE817396FE83ED83B2CFC114D104C0
:102F0000E104F10429F7892B19F7ED81FE8181890C
:102F100092898F3F980709F021D5AD81BE815296E5
:102F20003C922E925197D4CF8A0D9B1DDC018D913E
:102F30009C91009709F038D4BFEF4B1A5B0A6B0ADB
:102F40007B0AEBE0AE0EB11CAD81BE818D919C91F0
:102F5000119712964C9150E070E060E044165506CF
:102F6000660677060CF320D4BECFCF93DF93EA0139
:102F700027DF811109C082E090E09983888385EF83
:102F80009FEFDF91CF91089581E090E00E94A80922
:102F900081E090E09983888390E080E0F2CF10DFB9
:102FA00010926F0210926E02089542E050E06EE9B6
:102FB00071E00C94C609FF920F931F93CF93DF9398
:102FC0008A01EC01C60FD71FF980B4D20897F81612
:102FD000190671F068F082E090E0F8019183808337
:102FE0008EEF9FEFDF91CF911F910F91FF9008958A
:102FF0006C817D818E819F814B810E945D0C81114E
:1030000008C082E090E0F8019183808384EF9FEF15
:10301000E9CFF9800E94580C4F2D50E0BE01685F47
:103020007F4F0E94EF2789810E94C70C81E090E0CA
:10303000F8019183808390E080E0D4CFDF92EF921B
:10304000FF920F931F93CF93DF938A01EC01C60F7A
:10305000D71F0E94580C7C01D9806CD2DD2059F01A
:10306000029721E030E0D816190619F010F030E090
:1030700020E0232B79F482E090E0F80191838083B3
:103080008EEF9FEFDF91CF911F910F91FF90EF9007
:10309000DF900895EF2841F482E090E0F8019183F9
:1030A000808384EF9FEFEECFF9800E94580C4F2D64
:1030B00050E0BE016E5F7F4F0E94EF2789810E9422
:1030C000C70C81E090E0F8019183808390E080E07C
:1030D000D9CF85ED97E19093790280937802089596
:1030E000809178029091790208950895FC011182EF
:1030F0001082938382830895DB011D921C92DC0170
:103100001296ED91FC9113977183608313967C93D3
:103110006E9312970895FC0180819181DB018D935C
:103120009C93A081B181109741F08D919C919183E6
:103130008083892B11F4F383E2830895FC0180815D
:103140009181DB018D939C93892B11F473836283AE
:10315000718360830895FC011182108293838283BE
:103160000895CF93DF9300D0CDB7DEB71A821982CE
:10317000F894BE016F5F7F4F8FE792E0CCDF8981CB
:103180009A81009709F010D389819A81892B89F758
:10319000BE016F5F7F4F83E892E0BDDF89819A8136
:1031A000009709F001D389819A81892B89F7789456
:1031B0000F900F90DF91CF910895CF93DF9300D0C0
:1031C000CDB7DEB71A821982F894BE016F5F7F4FC8
:1031D0008BE792E0A0DF89819A81009709F0E4D221
:1031E00089819A81892B89F778940F900F90DF91CC
:1031F000CF91089581E0089590E080E00895EF92E6
:10320000FF920F931F93CF93DF9300D0CDB7DEB71C
:103210001A82198280917A0207EF1FEF8823A1F1A9
:10322000F894BE016F5F7F4F83E892E074DF78947B
:1032300089819A81EE24E394F12C892B51F4F8943E
:10324000BE016F5F7F4F8FE792E065DF7894F12CCE
:10325000E12C89819A810EEF1FEF0097A9F0FC0104
:103260004281538164E070E06AD68C01892B61F061
:10327000F89469817A81C701880F991F880F991F77
:1032800081589D4F5BDF7894C8010F900F90DF91BC
:10329000CF911F910F91FF90EF9008950F931F937F
:1032A000CF93DF9300D000D0CDB7DEB71C821B8256
:1032B0001A82198280917A0207EF1FEF8823C1F0EA
:1032C000AE014D5F5F4F64E070E0CE010196AAD67B
:1032D0008C01892B69F4E981FA818B819C8193832C
:1032E0008283F89469817A818BE792E005DF789494
:1032F000C8010F900F900F900F90DF91CF911F9109
:103300000F910895AED7049608958F929F92AF9231
:10331000BF92CF92DF92EF92FF920F931F93CF93C2
:10332000DF9300D0CDB7DEB71A821982BC016F5F80
:103330007F4F6330710598F0AA24AA94BA2CC50176
:103340000F900F90DF91CF911F910F91FF90EF9011
:10335000DF90CF90BF90AF909F908F9008954115D0
:10336000510551F3480159018A016C01CBDF8815E1
:10337000990511F7E114F104F9F28E0D9F1DA816BD
:10338000B906D0F280917A028823F1F0F894B50161
:10339000645071099701AE014F5F5F4FC8010496F9
:1033A000D5D65C01892B71F489819A81F8019383C8
:1033B0008283C601880F991F880F991FB801815811
:1033C0009D4F9ADE7894BBCF87EFA82EBB24BA948A
:1033D000B6CFAF92BF92CF92DF92EF92FF920F9350
:1033E0001F93CF93DF9300D0CDB7DEB71A82198237
:1033F000892B09F047C06115710509F443C04115D7
:10340000510509F43FC02115310509F43BC00115F0
:103410001105C1F180917A028823B9F179016A011D
:103420005B01F894BE016F5F7F4F8BE792E073DE24
:10343000789489819A81009759F1DC0112966D91F7
:103440007C91A80104969BD68C01E981FA81D50173
:10345000ED93FC93828193810496F601918380839E
:1034600051DFD7018D939C93C8010F900F90DF918E
:10347000CF911F910F91FF90EF90DF90CF90BF9071
:10348000AF9008950FEF1FEFEFCF07EF1FEFECCFD7
:103490000EEF1FEFE9CFCF93DF93EC01672B71F4B1
:1034A000E9D68C179D0760F0DCD62496C80FD91F8B
:1034B000DBD68C0F9D1FDF91CF910895D8D6F1CF29
:1034C00090E080E0F8CF0F931F93CF93DF9320918C
:1034D0007A0221112BC08B01EC018FE792E006DE0E
:1034E00083E892E003DE8BE792E000DE97D000975E
:1034F000C1F4C0D670E060E0CEDF47E151E062E0A9
:1035000070E07ED1009769F48091170190911801C5
:10351000C3D6B801CE01F9D4009719F421E0209365
:103520007A02DF91CF911F910F91089584EF9FEF61
:10353000F8CF9DC69FC6CF93DF939FD6EC01892B12
:1035400011F40FDE3ADECE01DF91CF910895CF93D3
:10355000DF9393D6EC01892B09F403DECE01DF91D2
:10356000CF91089580911701909118010895CF93FC
:10357000DF9380917A02D0E0C0E08823D1F091D629
:10358000EC01892BB1F4EDDD18DE809117019091EB
:103590001801E4D1E5D2EC01892B59F48FE792E0D0
:1035A000DADD83E892E0D7DD8BE792E0D4DD10929C
:1035B0007A02CE01DF91CF910895EF92FF920F939F
:1035C0001F93CF93DF93EC017A018B010F5F1F4FA5
:1035D0000E9DA0010F9D500D1E9D500D112470E0F9
:1035E00060E00E94F82790E080E0F0E0E0E02FEF5C
:1035F000E816F90639F4DF91CF911F910F91FF90F2
:10360000EF9008951A8219822883309711F0D2839F
:10361000C1830196FE01C00FD11FEACFCF92DF9286
:10362000EF92FF920F931F93CF93DF9303E613E084
:103630000C7F43E050E069E171E08FE191E012D44A
:1036400089E1E82E81E0F82E9FE1C92E91E0D92E84
:10365000C2ECD3E0D7014D915D917D01F6016191FE
:1036600071916F01198308835D834C835B834A8367
:103670007F836E839B012F5F3F4F249FC001259F57
:10368000900D349F900D112499878887011511059D
:1036900011F0C80192DF88859985080F191F2A96B5
:1036A000FFE1EF16F1E0FF06A9F6E9E8F2E087EDA9
:1036B000DF011D928A95E9F7109288021092870225
:1036C0001092E1031092E0031092E5031092E403DC
:1036D0001092E3031092E2031092E7031092E603C4
:1036E0001092E9031092E8031092EB031092EA03A0
:1036F0001092EF031092EE031092ED031092EC0380
:103700001092F1031092F0031092F3031092F2035F
:103710001092BF031092BE031092C1031092C00317
:1037200090E080E0DF91CF911F910F91FF90EF909B
:10373000DF90CF9008950097F1F0F894AFE1B1E0F9
:10374000E2ECF3E030E020E04D915D91481759073D
:10375000A8F0428153814115510581F08AE0829F92
:10376000F001839FF00D1124EE53FC4F8081918175
:10377000009759F4789490E080E008952F5F3F4FD0
:103780003A962330310501F7F5CFDC0111966D91A2
:103790007C91718360834150510953834283FC01C2
:1037A0002193CF0178940895009749F1DC018E911F
:1037B000853041F4E091C003F091C1033097F9F0F6
:1037C000CD0109948530D8F4282F30E0F8948FEF9C
:1037D0008C938AE0829FF001839FF00D1124EE53B9
:1037E000FC4F8081918112969C938E931197B183A7
:1037F000A083828193810196938382837894089534
:10380000CF92DF92EF92FF920F931F93CF93DF93AC
:103810009C018CE892E08C7F4115510509F49BC016
:103820002115310509F497C06115710509F493C09C
:103830007A01AB01B9016D5F7F4F6C7F9B012F5FF8
:103840003F4F249F8001259F100D349F100D1124A0
:10385000F8942091E0033091E103232B59F4209157
:10386000E8033091E9032115310569F1201731078B
:1038700008F058C02091EA033091EB03232B91F418
:103880002091E8033091E903820F931F2091F20306
:103890003091F3032115310509F441C02017310798
:1038A00008F056C07894CFEFDFEF86EF9FEFF70177
:1038B000D183C083DF91CF911F910F91FF90EF9043
:1038C000DF90CF900895C3E0D0E0C0908702D09001
:1038D000880224ED30E02C193D092017310710F340
:1038E0002AE02C9FF0012D9FF00D1124EE53FC4F88
:1038F0009183808355834483538342837783668394
:1039000011870087009709F058DE0C0D1D1D1093DC
:10391000880200938702789490E080E0C8CFC4E0EA
:10392000D0E0D3CFC3E0D0E02AE02C9FF0012D9F60
:10393000F00D1124EE53FC4F918380835583448313
:103940005383428377836683009729F336DEE3CF80
:10395000C4E0D0E0E9CF8FEF9FEFACCF9C0103979D
:10396000029708F069C0F89484E09AE0482F50E08C
:10397000241735070CF44DC091E08AE0829FF001D6
:10398000839FF00D1124EE53FC4F1182108215829B
:10399000148213821282178216829923B1F18091C8
:1039A000E0039091E103892BA9F42091E803309181
:1039B000E9032115310571F0809187029091880209
:1039C000821B930B90938802809387021092E903E5
:1039D0001092E8038091EA039091EB03892BA9F4FC
:1039E0002091F2033091F3032115310571F080919C
:1039F000870290918802821B930B90938802809398
:103A000087021092F3031092F203789490E080E022
:103A10000895949FF001959FF00D1124EE53FC4FF3
:103A200040815181452B31F440855185452B11F45E
:103A300081509CCF90E0A1CF8FEF9FEF089541156B
:103A4000510549F1009739F16115710521F1F8949B
:103A50002091BE033091BF03232BB9F42091C00302
:103A60003091C103232B89F49093BF038093BE034D
:103A70007093C1036093C003789425E030E090E038
:103A800080E0FA0131832083089578942FEF3FEF8F
:103A900086EF9FEFF6CF8FEF9FEF0895059769F4BC
:103AA000F8941092BF031092BE031092C1031092BB
:103AB000C003789490E080E008958FEF9FEF089521
:103AC0006115710519F4F0E0E0E011C08530910551
:103AD00081F4E091BE03F091BF033097A1F3CB01D5
:103AE00001960995009779F3FC0185E08193CF0158
:103AF00008959C01235031092230310520F72AE036
:103B0000289FD001299FB00D1124AE53BC4F2D9199
:103B10003C911197232BB9F216962D913C91179752
:103B20002617370780F2F89412962D913C9113973F
:103B30002115310529F0ED91FC911197309711F481
:103B40007894C1CF4181528111965C934E9321505C
:103B5000310913963C932E93129781937894C7CF93
:103B6000E0E6F3E08EE5DF011D928A95E9F7E9E8EA
:103B7000F2E087EDDF011D928A95E9F71092880245
:103B800010928702E2ECF3E082E3DF011D928A9556
:103B9000E9F7EEEBF3E084E0DF011D928A95E9F7A7
:103BA00090E080E00895CF93DF93C0912501D091FC
:103BB0002601CF3FDC0759F406D490932601809369
:103BC000250197FF09C0D0932601C093250184EFFA
:103BD0009FEFDF91CF91089590E080E0FACF82309F
:103BE000910528F48093F40390E080E008958FEF2E
:103BF0009FEF08954F925F926F927F92AF92BF9224
:103C0000CF92DF92EF92FF920F931F93CF93DF93A8
:103C100000D0CDB7DEB71A821982009709F478C0B8
:103C20006115710509F474C02091250130912601B8
:103C300007EF1FEF2F3F3F4F09F444C06B015C01BA
:103C4000412C512C3201F12CE12C10E000E09E01BE
:103C50002F5F3F4FA6014E195F09B5016E0D7F1D05
:103C600080912501909126010DD4892B09F04AC03D
:103C700089819A81009741F4E114F10429F420919B
:103C8000F403222309F441C0E80EF91EEC14FD04EC
:103C9000C8F480E8481684E858068EE16806710486
:103CA00018F560E070E0CB0143D62AE0420E511CCB
:103CB000611C711C0A3F4FEF140721F0043F8FEF86
:103CC0001807A1F4C8010F900F90DF91CF911F91B9
:103CD0000F91FF90EF90DF90CF90BF90AF907F90CB
:103CE0006F905F904F90089501EF1FEF81E090E09B
:103CF000013F2FEF120711F090E080E0892B09F4CB
:103D0000A6CFE0CF04EF1FEFDDCF0AEF1FEFDACF32
:103D10000FEF1FEFD7CF4F925F926F927F92AF92CC
:103D2000BF92CF92DF92EF92FF920F931F93CF93A8
:103D3000DF9300D0CDB7DEB71A821982009709F45D
:103D400078C06115710509F474C020912501309186
:103D5000260107EF1FEF2F3F3F4F09F444C06B01CF
:103D60005C01412C512C3201F12CE12C10E000E0DF
:103D70009E012F5F3F4FA6014E195F09B5016E0DE1
:103D80007F1D809125019091260132D3892B09F066
:103D90004AC089819A81009741F4E114F10429F421
:103DA0002091F403222309F441C0E80EF91EEC141B
:103DB000FD04C8F480E8481686E9580688E96806D4
:103DC000710418F560E070E0CB01B2D52AE0420E34
:103DD000511C611C711C0E3F4FEF140721F0043F72
:103DE0008FEF1807A1F4C8010F900F90DF91CF91CA
:103DF0001F910F91FF90EF90DF90CF90BF90AF9009
:103E00007F906F905F904F90089502EF1FEF81E0D9
:103E100090E0023F2FEF120711F090E080E0892B35
:103E200009F4A6CFE0CF04EF1FEFDDCF0EEF1FEFB9
:103E3000DACF0FEF1FEFD7CF8091250190912601A8
:103E40008F3F980749F0B7D2892B49F48FEF9FEF46
:103E5000909326018093250190E080E0089584EFFF
:103E60009FEF0895CF92DF92EF92FF920F931F93EF
:103E7000CF93DF9321E04115510509F020E0415037
:103E8000510921112CC0DC01FB01D12CC12C21E0F6
:103E900022C03FEFC31AD30A7D010D911D91E701A6
:103EA000EA80FB80E016F106A8F420813181E280EF
:103EB000F380F182E08233832283ED90FC901197AE
:103EC0009D0122503109E901F982E88211961C9383
:103ED0000E9320E03296C416D506D8F2D2CFDF91E9
:103EE000CF911F910F91FF90EF90DF90CF900895A9
:103EF000FC01680F791F90E080E0E617F70709F4EE
:103F000008952191820F911DF8CF2091F503211181
:103F100013C049DE009791F41092FB031092FA034C
:103F20001092F9031092F8031092F7031092F6031F
:103F300021E02093F503089584EF9FEF0895AF9259
:103F4000BF92CF92DF92EF92FF920F931F93CF9386
:103F5000DF93009709F460C04630510508F45CC057
:103F60002091F503C7EFDFEF222309F449C08C014C
:103F7000060F171FF801C080D180C114D10409F4C5
:103F80004EC096012A5F3F4F4217530708F447C0BF
:103F90007C018091FA039091FB0393838283B601A5
:103FA0006C5F7F4F5801A60EB71EC801A1DFF50157
:103FB0009183808364E070E0C8011CDEEC01892BF2
:103FC000F9F481E090E00BDEB601C801049612DE40
:103FD000EC01892B91F462E070E0C5010BDEEC018D
:103FE000892B59F4C701E0DB8091FA039091FB0320
:103FF00001969093FB038093FA0390E080E0EFDD5D
:10400000CE01DF91CF911F910F91FF90EF90DF9044
:10401000CF90BF90AF900895CFEFDFEFF1CFC9EF12
:10402000DFEFEECF6F927F928F929F92AF92BF920F
:10403000CF92DF92EF92FF920F931F93CF93DF9374
:1040400000D000D0CDB7DEB7009709F479C0411594
:10405000510509F475C02091F50307EF1FEF2223E6
:1040600009F44CC03A017B015C0164E070E0CE01D0
:10407000019651DE8C01892B09F040C009811A811B
:104080000115110509F459C0480186E0880E911CFC
:10409000B701680D791D809127019091280110DDED
:1040A0006C01009709F44FC0A70170E060E0A0D751
:1040B00089819A81AB81BC81EC0CFD1CF701819355
:1040C0009193A193B1937F0181E090E088DDB801E5
:1040D000C70121DE892B31F562E070E0C701800F56
:1040E000911F19DE8C01892BE9F490E080E077DDE7
:1040F000F501D182C082F30191828082C8010F90C4
:104100000F900F900F90DF91CF911F910F91FF9023
:10411000EF90DF90CF90BF90AF909F908F907F9067
:104120006F90089590E080E05ADDF50111821082D1
:10413000F30111821082C60137DB09EF1FEFDECFDA
:104140000FEF1FEFDBCF06EF1FEFD8CF0097A1F0E7
:104150004115510589F02115310571F0F9013696A7
:104160006E177F0748F0DC012D933C93DA01ED9345
:10417000FC9390E080E008958FEF9FEF0895AF9259
:10418000BF92CF92DF92EF92FF920F931F93CF9344
:10419000DF93009709F45FC04115510509F45BC036
:1041A0006530710508F457C02091F503C7EFDFEFC4
:1041B000222391F1DC01CD90DC9011971296ED91C4
:1041C000FC9196012A5F3F4FC9EFDFEF26173707B3
:1041D00019F5C091F603D091F703209749F521E036
:1041E00030E03093F7032093F6037A018C01F093CB
:1041F000F903E093F8035601B4E0AB0EB11CB5012E
:1042000077DE0A0D1B1DF80120813181821793078B
:1042100029F5D701CD92DC92CE01DF91CF911F918C
:104220000F91FF90EF90DF90CF90BF90AF900895E7
:104230002091F8033091F9032F5F3F4FCCEFDFEF70
:10424000E217F30790F2CBEFDFEF2E173F0768F28C
:10425000D0E0C0E0CACFCFEFDFEFDECFC3EFDFEFBC
:10426000DBCF84E090E0089582E090E008958CEF49
:104270009FEF089580E290E008951092FB03109262
:10428000FA031092F9031092F8031092F7031092B8
:10429000F60390E080E00895909328018093270131
:1042A00008958091F503882391F0C6DD009789F485
:1042B0001092FB031092FA031092F9031092F80384
:1042C0001092F7031092F6031092F503089590E010
:1042D00080E00895009749F06115710531F0FC0107
:1042E00011821082FB01118210820895F3CF26E023
:1042F00030E040E855E260E070E090E080E000C02F
:10430000892B19F489E094E008C508951F920F9253
:104310000FB60F9211242F933F934F935F936F9398
:104320007F938F939F93AF93BF93EF93FF9386E910
:1043300097EE9093850080938400B7D0FF91EF9122
:10434000BF91AF919F918F917F916F915F914F91AD
:104350003F912F910F900FBE0F901F90189586E9F7
:1043600097EE9093850080938400AFE6B0E08C9147
:104370008E7F8C93E0E8F0E080818C7F8083E1E8A1
:10438000F0E08081877E808380818460808380816B
:104390008C7F80838C9181608C930895EFE6F0E0B0
:1043A000808190819E7F90838170089581E008953F
:1043B0001092FC03089568EE73E080E090E0B8D2BC
:1043C00090E080E0089526E030E040E052EC61E0CB
:1043D00070E090E080E094DF89E094E0D4D3892B12
:1043E00021F089E094E0E9D3F7CF90E080E00895F0
:1043F000CF92DF92EF92FF920F931F93CF93DF93B1
:104400006B017A01E9011982188289E094E0BBD33B
:10441000892B69F18601CC24C39482E0D82E809147
:10442000FC03811110C089E094E0C7D30297B9F76B
:10443000C092FC03F801D1928F0188819981019685
:1044400099838883ECCF888199818E159F0578F4B4
:1044500089E094E0B2D38F3F9807A9F3F8018193E4
:104460008F0188819981019699838883ECCF90E0B0
:1044700080E0DF91CF911F910F91FF90EF90DF903F
:10448000CF9008950F931F93CF93DF93EA01890193
:1044900089E094E026D5F801D183C08390E080E0E4
:1044A000DF91CF911F910F910895CF92DF92EF92FC
:1044B000FF928091FD0391E0980F9093FD03882374
:1044C00069F021E030E03093FF032093FE038093F6
:1044D000FD03FF90EF90DF90CF9008957894E091E6
:1044E0002A01F0912B01C28CD38CE48CF58C0E94B4
:1044F000C002B701A60190E080E00E943302F89468
:104500008091FD038150E3CF0F931F93CF93DF93EF
:104510001092B2041092B10441D2E9DEC0912A0196
:10452000D0912B01198218826FEF7FEFCB010E948F
:10453000B50270E060E090E080E00E9438010097F2
:1045400009F03AC00E941F03F8947894BE016E5D92
:104550007F4F8A819B810E943B01892B59F46FEF29
:104560007FEFCB010E94CA010E94AF02882311F0A5
:1045700081E08EA3F894F3DE0E94B202882311F04A
:1045800080E008C00E94AF028111FACF81E09EA1B5
:104590009111F6CF8093B10478940E94A3098C0105
:1045A00078948091B10481110CC00E947E030E9416
:1045B0009502F89490E080E0DF91CF911F910F91E8
:1045C00008950E9493020E94B2028823D9F081E0EC
:1045D0008093B2049091B20481E0911180E08093C5
:1045E000B1048091B2048111D9DE0130110529F4A2
:1045F0000E94A309892B09F4DBDE0E94A3098C0128
:10460000D5DECFCF0E94AF028111E1CF81E09EA124
:104610009111DECF80E0DCCF40D008F481E0089536
:10462000E89409C097FB3EF490958095709561954C
:104630007F4F8F4F9F4F9923A9F0F92F96E9BB2702
:104640009395F695879577956795B795F111F8CF7E
:10465000FAF4BB0F11F460FF1BC06F5F7F4F8F4FE9
:104660009F4F16C0882311F096E911C0772321F0DF
:104670009EE8872F762F05C0662371F096E8862F77
:1046800070E060E02AF09A95660F771F881FDAF7CE
:10469000880F9695879597F90895990F0008550FFB
:1046A000AA0BE0E8FEEF16161706E807F907C0F0B8
:1046B00012161306E407F50798F0621B730B840BC0
:1046C000950B39F40A2661F0232B242B252B21F49A
:1046D00008950A2609F4A140A6958FEF811D811D3A
:1046E0000895DBDF08F48FEF08950BD078C069D010
:1046F00028F06ED018F0952309F05AC05FC011243D
:10470000A2C07ED0A0F3959FD1F3950F50E0551F26
:10471000629FF001729FBB27F00DB11D639FAA2716
:10472000F00DB11DAA1F649F6627B00DA11D661F65
:10473000829F2227B00DA11D621F739FB00DA11D86
:10474000621F839FA00D611D221F749F3327A00D40
:10475000611D231F849F600D211D822F762F6A2FDC
:1047600011249F5750408AF0E1F088234AF0EE0F61
:10477000FF1FBB1F661F771F881F91505040A9F76E
:104780009E3F510570F014C05EC05F3FECF3983E51
:10479000DCF3869577956795B795F795E7959F5FD5
:1047A000C1F7FE2B880F911D9695879597F908956F
:1047B00097F99F6780E870E060E008959FEF80ECD4
:1047C000089500240A941616170618060906089577
:1047D00000240A9412161306140605060895092EDD
:1047E0000394000C11F4882352F0BB0F40F4BF2B4C
:1047F00011F460FF04C06F5F7F4F8F4F9F4F08958C
:1048000057FD9058440F551F59F05F3F71F0479581
:10481000880F97FB991F61F09F3F79F08795089566
:10482000121613061406551FF2CF4695F1DF08C085
:10483000161617061806991FF1CF869571056105A2
:1048400008940895E894BB2766277727CB0197F94A
:1048500008951F920F920FB60F9211242F933F933A
:104860008F939F93AF93BF93809101049091020423
:10487000A0910304B09104043091000423E0230FBD
:104880002D3758F50196A11DB11D2093000480938A
:10489000010490930204A0930304B0930404809154
:1048A000050490910604A0910704B09108040196B4
:1048B000A11DB11D8093050490930604A0930704E5
:1048C000B0930804BF91AF919F918F913F912F9129
:1048D0000F900FBE0F901F90189526E8230F029699
:1048E000A11DB11DD2CF3FB7F894809105049091DE
:1048F0000604A0910704B091080426B5A89B05C042
:104900002F3F19F00196A11DB11D3FBFBA2FA92F4E
:10491000982F8827BC01CD01620F711D811D911D4B
:1049200042E0660F771F881F991F4A95D1F70895B7
:104930008F929F92AF92BF92CF92DF92EF92FF92AF
:104940006B017C01D0DF4B015C01C114D104E10497
:10495000F104D9F0F3D2C7DF681979098A099B09F4
:10496000683E73408105910580F321E0C21AD108A9
:10497000E108F10888EE880E83E0981EA11CB11CA6
:10498000C114D104E104F10431F7FF90EF90DF90FE
:10499000CF90BF90AF909F908F900895789484B5FA
:1049A000826084BD84B5816084BD85B5826085BD2B
:1049B00085B5816085BDEEE6F0E080818160808311
:1049C000E1E8F0E0108280818260808380818160F4
:1049D0008083E0E8F0E0808181608083E1EBF0E0BB
:1049E000808184608083E0EBF0E08081816080835F
:1049F000EAE7F0E080818460808380818260808348
:104A00008081816080838081806880831092C10072
:104A10000895833081F028F4813099F08230A9F034
:104A200008958730A9F08830C9F08430B1F48091BE
:104A300080008F7D03C0809180008F7780938000FD
:104A4000089584B58F7784BD089584B58F7DFBCF9D
:104A50008091B0008F778093B00008958091B0006E
:104A60008F7DF9CFCF93DF9390E0FC01E458FF4FA7
:104A7000249180579F4FFC0184918823C9F090E0D6
:104A8000880F991FFC01E854FF4FA591B491FC01D8
:104A9000E255FF4FC591D49161110DC09FB7F894B5
:104AA0008C91209582238C938881282328839FBF13
:104AB000DF91CF910895623051F49FB7F8943C9103
:104AC000822F809583238C93E8812E2BEFCF8FB795
:104AD000F894EC912E2B2C938FBFEACF1F93CF939A
:104AE000DF93282F30E0F901E859FF4F8491F90155
:104AF000E458FF4FD491F901E057FF4FC491CC2304
:104B0000A1F0162F811185DFEC2FF0E0EE0FFF1FD3
:104B1000E255FF4FA591B4918FB7F894EC91111124
:104B200008C0D095DE23DC938FBFDF91CF911F911A
:104B30000895DE2BF8CF0F931F9390E0FC01E4580B
:104B4000FF4F7491FC01E057FF4FE4916111672F13
:104B5000F0E0EE0FFF1FEC55FF4F85919491890116
:104B60009A013F70462F672F0E948B0061157105D7
:104B70008105910529F06F5F7F4F8F4F9F4F9F7089
:104B80001F910F910895FC01918D228D892F90E046
:104B9000805C9F4F821B91098F7399270895FC01B8
:104BA000918D828D981731F0828DE80FF11D858DE2
:104BB00090E008958FEF9FEF0895FC01918D828D15
:104BC000981761F0A28DAE0FBF2FB11D5D968C912D
:104BD000928D9F5F9F73928F90E008958FEF9FEF6C
:104BE0000895FC01538D448D252F30E0842F90E0F3
:104BF000821B930B541710F0CF96089501970895D8
:104C0000FC01A48DA80FB92FB11DA35ABF4F2C9141
:104C1000848D90E001968F739927848FA689B78938
:104C20002C93A089B1898C91837080648C93938D2F
:104C3000848D981306C00288F389E02D80818F7DD2
:104C400080830895CF93DF93EC01888D8823B1F0A2
:104C5000AA89BB89E889F9898C9185FD03C0808187
:104C600086FD0CC00FB607FCF7CF8C9185FFF2CF05
:104C7000808185FFEDCFCE01C3DFEACFDF91CF91F9
:104C80000895EF92FF920F931F93CF93DF93EC0160
:104C900081E0888F9B8D8C8D98131AC0E889F989E3
:104CA000808185FF15C09FB7F894EE89FF896083E6
:104CB000E889F98980818370806480839FBF81E067
:104CC00090E0DF91CF911F910F91FF90EF900895A9
:104CD000F62E0B8D10E00F5F1F4F0F731127E02E84
:104CE0008C8D8E110BC00FB607FCFACFE889F989BD
:104CF000808185FFF5CFCE0183DFF2CFEB8DEC0F06
:104D0000FD2FF11DE35AFF4FF0829FB7F8940B8FF0
:104D1000EA89FB8980818062D0CFCF92DF92EF92C7
:104D2000FF921F93CF93DF93EC016A017B01122F57
:104D3000E889F98982E08083C11481EED806E10414
:104D4000F10499F060E079E08DE390E0A70196012D
:104D500005D121503109410951095695479537959B
:104D60002795211580E1380790F0E889F9891082AC
:104D700060E874E88EE190E0A7019601EFD0215041
:104D80003109410951095695479537952795EC8585
:104D9000FD853083EE85FF852083188EEC89FD89A3
:104DA0001083EA89FB89808180618083EA89FB899D
:104DB000808188608083EA89FB8980818068808324
:104DC000EA89FB8980818F7D8083DF91CF911F915C
:104DD000FF90EF90DF90CF9008951F920F920FB643
:104DE0000F9211242F938F939F93EF93FF93E09152
:104DF0001904F0911A048081E0911F04F0912004BD
:104E000082FD1BC09081809122048F5F8F7320915F
:104E10002304821741F0E0912204F0E0E75FFB4FAA
:104E2000958F80932204FF91EF919F918F912F9105
:104E30000F900FBE0F901F9018958081F4CF1F9296
:104E40000F920FB60F9211242F933F934F935F93BE
:104E50006F937F938F939F93AF93BF93EF93FF9342
:104E600089E094E0CDDEFF91EF91BF91AF919F91EA
:104E70008F917F916F915F914F913F912F910F9003
:104E80000FBE0F901F901895E9E0F4E01382128294
:104E900088EE93E0A0E0B0E084839583A683B78397
:104EA0008EEA91E09183808385EC90E095878487FA
:104EB00084EC90E09787868780EC90E0918B808BE4
:104EC00081EC90E0938B828B82EC90E0958B848BCD
:104ED00086EC90E0978B868B118E128E138E148E3B
:104EE0000895AF92BF92CF92DF92EF92FF920F930D
:104EF0001F93CF93DF936C017B018B01040F151F70
:104F0000EB015E01AE18BF08C017D10759F06991D7
:104F1000D601ED91FC910190F081E02DC60109953B
:104F2000892B79F7C501DF91CF911F910F91FF90E8
:104F3000EF90DF90CF90BF90AF9008950895DB0180
:104F40008F939F9333D0BF91AF91A29F800D911DFE
:104F5000A39F900DB29F900D11240895A1E21A2EE7
:104F6000AA1BBB1BFD010DC0AA1FBB1FEE1FFF1F0D
:104F7000A217B307E407F50720F0A21BB30BE40B5D
:104F8000F50B661F771F881F991F1A9469F76095A4
:104F90007095809590959B01AC01BD01CF0108955E
:104FA000EE0FFF1F0590F491E02D099409D0A59F05
:104FB000900DB49F900DA49F800D911D1124089514
:104FC000A29FB001B39FC001A39F700D811D11244A
:104FD000911DB29F700D811D1124911D0895FB013B
:104FE000DC0102C001900D9241505040D8F7089565
:104FF000DC0101C06D9341505040E0F70895F894F2
:02500000FFCFE0
:10500200FEFFFFFF01E8030000FFFF00000000FFBA
:10501200FFFFFFFFFFFFFFFFFF0100010001002074
:105022000030000800FFFFFFFF01D001FF00FA0B74
:10503200260CFE00E00B6109FD00720BCC0BFC009C
:10504200B80B6109F600A90C6109F5007F0BE80CA9
:10505200F400720CFF0CDE002B11C413DD009A1257
:105062006109DA00B30EBB0ED900DF13CB0EE200EA
:105072009B0D6109E100D60D6109E0004B0E61094B
:10508200D600B5176109D50058106109D400E40FA4
:105092006109D300550F6109C000DA0E6109F00001
:1050A2001E186109ED00DB176109000000004126AE
:0C50B2007127F1252226C325DD25CF251E
:00000001FF
