:100000005DC0000082C0000080C000007EC0000013
:100010007CC000007AC0000078C0000076C00000FC
:1000200074C0000017C2000070C00000C3C400000C
:100030006CC000006AC0000068C0000066C000001C
:100040009FC6000062C000000C941C090C944E096D
:100050005CC000005AC0000058C0000056C000003C
:1000600054C0000052C0000000000008000201005F
:100070000003040700000000000000000102040863
:100080001020408001020408102001020408102002
:10009000040404040404040402020202020203032E
:1000A0000303030300000000250028002B000000CC
:1000B0000000240027002A001701730911241FBE25
:1000C000CFEFD8E0DEBFCDBF11E0A0E0B1E0ECE0C3
:1000D000F5E102C005900D92AE31B107D9F722E0EB
:1000E000AEE1B1E001C01D92AA30B207E1F710E025
:1000F000CEE5D0E004C02197FE010E946F0ACC3506
:10010000D107C9F70CD20C94840A7ACFCF93DF932E
:10011000882341F0EB018150B8D699838883DF9121
:10012000CF910895FB0111821082F9CF0F931F9395
:100130008B019C0183E036952795179507958A9545
:10014000D1F7025E1E4F462F477021E030E0F901E3
:1001500002C0EE0FFF1F4A95E2F7AF01F8012081C0
:100160002423CB010196211102C090E080E01F9171
:100170000F9108950F931F938B019C0183E0369597
:100180002795179507958A95D1F7677081E090E0DC
:1001900001C0880F6A95EAF7F801E25EFE4F208100
:1001A000452B31F48095822380831F910F91089510
:1001B000822BFACFCF92DF92EF92FF92CF93DF9311
:1001C0006B017C0160E08EE0C816D104E104F1040B
:1001D00088F48EE08C0D9DD6E6012196AE01C70114
:1001E000B601C8DFCE01DF91CF91FF90EF90DF9095
:1001F000CF9008958C2DEFCF882341F08150682F48
:1002000070E090E080E050E040E0B4CF089570E00E
:1002100023E0829FC0011124895D9E4F1CC570E0C0
:1002200023E0829FC0011124895D9E4F50C587E263
:1002300091E079C4CF92DF92EF92FF926B017C0143
:100240009F7720E030E040E859E518D287FF26C0CC
:1002500020E030E040E05FE3C701B60144D387FD12
:100260000CC020E030E040E05FE3C701B6018FD171
:10027000FF90EF90DF90CF906EC220E030E040E042
:100280005FEBC701B6012FD318167CF420E030E0F5
:10029000A901C701B6012BD36B017C01C701B601CF
:1002A000FF90EF90DF90CF90089520E030E040E0A5
:1002B0005FE3C701B6016AD1FF90EF90DF90CF9066
:1002C000CAC1CF92DF92EF92FF92CF93DF9300D01B
:1002D000CDB7DEB7C0900001D0900101E0900201DF
:1002E000F0900301A701960160910402709105024C
:1002F0008091060290910702C1D1882341F0C092FB
:100300000402D0920502E0920602F09207026EE02B
:1003100070E080E090E00ADF909303028093020295
:1003200043E050E0BE016F5F7F4FF0DE69817A816C
:1003300090E080E0D3D120910401309105014091FB
:10034000060150910701D3D26B017C0120E030E01F
:10035000A90194D160E087FD1AC020E030E044E3B9
:1003600053E4C701B601BFD264EB181684F0C7018D
:10037000B60160DF6B017C0120E030E040E853E42F
:100380007DD16FEF87FF03C0C701B6017BD180E04D
:1003900046DF0F900F90DF91CF91FF90EF90DF90AD
:1003A000CF900895CF93DF93CCEFD1E01882809166
:1003B000000190910101A0910201B0910301888791
:1003C0009987AA87BB8781E090E0A0E0B0E08983AD
:1003D0009A83AB83BC836EE070E080E090E0EADE5D
:1003E0009F838E8381E08D8367E080E0DF91CF91F2
:1003F0000ECF8091FC0181111DC081E08093FC0132
:100400008091FD019091FE01A091FF01B091000249
:100410000197A105B10571F480910102882351F083
:100420006EE070E080E090E081DE909303028093C4
:100430000202E2CE089526E030E040E855E260E0B6
:1004400070E090E080E000C0892B19F48FE591E026
:1004500093C608951F920F920FB60F9211242F93F7
:100460003F934F935F936F937F938F939F93AF933C
:10047000BF93EF93FF9383E88093B20080912C01A8
:100480008F5F80932C01853019F410922C012FD0AE
:10049000FF91EF91BF91AF919F918F917F916F915C
:1004A0005F914F913F912F910F900FBE0F901F9032
:1004B000189583E88093B200A0E7B0E08C918E7F1E
:1004C0008C93E0EBF0E080818C7F8083E1EBF0E0C7
:1004D0008081877F808380818660808380818E7F1A
:1004E00080838C9181608C93089581E00895809140
:1004F0002D0191E0980F90932D01882349F021E080
:1005000030E030932F0120932E0180932D01089528
:100510007894D7DEF89480912D018150F6CFCF9357
:10052000DF93109209021092080274D484DFC09104
:100530000901D0910A011982188234DFF894B9DFD9
:100540002881398181E0232B09F080E08093080223
:100550007894789480910802811107C04ADFF8945A
:1005600090E080E0DF91CF9108952881398181E08A
:10057000232B09F480E0809309029091090281E025
:10058000911180E080930802B0DFE4CF5058BB2780
:10059000AA270ED057C148D130F04DD120F031F408
:1005A0009F3F11F41EF43DC10EF4E095E7FB0AC134
:1005B000E92F59D180F3BA176207730784079507AB
:1005C00018F071F49EF588C10EF4E0950B2EBA2F49
:1005D000A02D0B01B90190010C01CA01A001112449
:1005E000FF27591B99F0593F50F4503E68F11A16F5
:1005F000F040A22F232F342F4427585FF3CF469586
:1006000037952795A795F0405395C9F77EF41F16A7
:10061000BA0B620B730B840BBAF09150A1F0FF0F71
:10062000BB1F661F771F881FC2F70EC0BA0F621F5D
:10063000731F841F48F4879577956795B795F7954D
:100640009E3F08F0B3CF9395880F08F09927EE0FDF
:1006500097958795089529D180F09F3740F491119F
:100660000EF43BC160E070E080E89FE3089526F05F
:100670001B16611D711D811DABC0C5C07FD008F464
:1006800081E00895F8D088F09F5790F0B92F99270E
:10069000B751A0F0D1F0660F771F881F991F1AF08D
:1006A000BA95C9F712C0B13081F016D1B1E0089502
:1006B00013C1672F782F8827B85F39F0B93FCCF383
:1006C000869577956795B395D9F73EF49095809583
:1006D000709561957F4F8F4F9F4F0895E89409C0A3
:1006E00097FB3EF490958095709561957F4F8F4F65
:1006F0009F4F9923A9F0F92F96E9BB279395F6957B
:10070000879577956795B795F111F8CFFAF4BB0FF8
:1007100011F460FF1BC06F5F7F4F8F4F9F4F16C05C
:10072000882311F096E911C0772321F09EE8872FE6
:10073000762F05C0662371F096E8862F70E060E0A2
:100740002AF09A95660F771F881FDAF7880F96951B
:10075000879597F90895A9D080F09F3740F49111BB
:100760000EF0BBC060E070E080E89FEB089526F4D7
:100770001B16611D711D811D2BC045C0990F0008FE
:10078000550FAA0BE0E8FEEF16161706E807F90763
:10079000C0F012161306E407F50798F0621B730BFE
:1007A000840B950B39F40A2661F0232B242B252B7F
:1007B00021F408950A2609F4A140A6958FEF811D22
:1007C000811D089597F99F6780E870E060E00895C3
:1007D000882371F4772321F09850872B762F07C058
:1007E000662311F499270DC09051862B70E060E0CC
:1007F0002AF09A95660F771F881FDAF7880F96956B
:10080000879597F908959F3F31F0915020F487958F
:1008100077956795B795880F911D9695879597F968
:1008200008959FEF80EC089500240A941616170689
:1008300018060906089500240A94121613061406D1
:1008400005060895092E0394000C11F4882352F034
:10085000BB0F40F4BF2B11F460FF04C06F5F7F4FEC
:100860008F4F9F4F089557FD9058440F551F59F0D3
:100870005F3F71F04795880F97FB991F61F09F3F8D
:1008800079F087950895121613061406551FF2CFB6
:100890004695F1DF08C0161617061806991FF1CF06
:1008A00086957105610508940895E5DFA0F0BEE71F
:1008B000B91788F4BB279F3860F41616B11D672F4F
:1008C000782F8827985FF7CF869577956795B11D24
:1008D00093959639C8F30895E894BB276627772740
:1008E000CB0197F908954ADF08F48FEF08950BD0F4
:1008F000A9CF9ADF28F09FDF18F0952309F062CF87
:1009000090CF1124EACFAFDFA0F3959FD1F3950FDD
:1009100050E0551F629FF001729FBB27F00DB11D83
:10092000639FAA27F00DB11DAA1F649F6627B00D13
:10093000A11D661F829F2227B00DA11D621F739FFC
:10094000B00DA11D621F839FA00D611D221F749F0A
:100950003327A00D611D231F849F600D211D822F51
:10096000762F6A2F11249F5750408AF0E1F0882398
:100970004AF0EE0FFF1FBB1F661F771F881F9150A5
:100980005040A9F79E3F510570F01CCFA6CF5F3FA6
:10099000ECF3983EDCF3869577956795B795F795D8
:1009A000E7959F5FC1F7FE2B880F911D9695879560
:1009B00097F908951F920F920FB60F9211242F935B
:1009C0003F934F935F936F937F938F939F93AF93D7
:1009D000BF93EF93FF938091310187FF27C010925F
:1009E000850010928400809131018F5F80933101E6
:1009F00080913101082E000C990B209130012817AD
:100A0000190629F024F0809131018C30D4F18091C5
:100A1000840090918500049680349C4908F479C044
:100A20008091840090918500049675C08091310179
:100A3000082E000C990B209130012817190699F205
:100A400094F2E09131018E2FEE0F990BFC01EE0F25
:100A5000FF1FE80FF91FEE5CFE4F808186FFC3CFBA
:100A6000E09131018E2FEE0F990BFC01EE0FFF1F6D
:100A7000E80FF91FEE5CFE4F808160E08F7385D236
:100A8000B2CF2091840030918500E09131018E2F0A
:100A9000EE0F990BFC01EE0FFF1FE80FF91FEE5C44
:100AA000FE4F81819281820F931F909389008093E2
:100AB0008800E09131018E2FEE0F990BFC01EE0FB3
:100AC000FF1FE80FF91FEE5CFE4F808186FF10C00C
:100AD000E09131018E2FEE0F990BFC01EE0FFF1FFD
:100AE000E80FF91FEE5CFE4F808161E08F734DD2FD
:100AF000FF91EF91BF91AF919F918F917F916F91F6
:100B00005F914F913F912F910F900FBE0F901F90CB
:100B1000189580E49CE990938900809388008FEF7A
:100B200080933101E5CFFC01909130019C3098F425
:100B300081E0890F809330019083892F90E0FC0140
:100B4000EE0FFF1FE80FF91FEE5CFE4F88EB9BE0F6
:100B50009283818308958FEF80830895DF92EF92CF
:100B6000FF920F931F93CF93DF93EC01D62E7A0160
:100B7000890188818C3008F065C061E08D2DC9D174
:100B80008881282F30E0F901EE0FFF1FE20FF31FDD
:100B9000EE5CFE4F9D2D9F736081607C692B6083AE
:100BA00020E232E02E193F0937FF02C02D5F3F4F90
:100BB0003595279535952795298320E639E0201B23
:100BC000310B37FF02C02D5F3F4F35952795359587
:100BD00027952A832CE0622F2ED4829FB001112406
:100BE00030E020E0AB01420F531FFA01EE0FFF1F70
:100BF000E40FF51FEE5CFE4F908196FD16C02F5F4F
:100C00003F4F2C30310571F781110FC010928000D9
:100C100082E0809381001092850010928400B19A46
:100C200080916F00826080936F00E8818E2F90E04A
:100C3000FC01EE0FFF1FE80FF91FEE5CFE4F8081F5
:100C4000806480838881DF91CF911F910F91FF9005
:100C5000EF90DF90089520E639E040E252E07ECF49
:100C6000DC01EC91EC3090F511968C91119728E80D
:100C700030E0281B310987FD3395220F331F220FE7
:100C8000331F6217730784F012968C9128E532E0C7
:100C9000281B310987FD3395220F331F220F331F85
:100CA000621773070CF49B0122503109220F331F86
:100CB0004FB7F8948E2F90E0FC01EE0FFF1FE80F66
:100CC000F91FEE5CFE4F328321834FBF0895AF9230
:100CD000BF92CF92DF92EF92FF920F931F93CF9329
:100CE000DF93EC01603282E078070CF03DC0653B99
:100CF000710514F064EB70E0898148E8A42EB12CF2
:100D0000A81AB10887FDB394AA0CBB1CAA0CBB1C83
:100D10000B2C000CCC08DD0877FF02C070E060E00F
:100D2000072E000C880B990B2A8108E512E0021BA4
:100D3000110927FD1395000F111F000F111F012E20
:100D4000000C220B330B3F932F931F930F9314EB45
:100D5000E12EF12C00E010E020E030E0A9011DD3ED
:100D60000F900F900F900F90CE01DF91CF911F91B8
:100D70000F91FF90EF90DF90CF90BF90AF9070CF2A
:100D80001F920F920FB60F9211242F933F938F93C0
:100D90009F93AF93BF938091570190915801A09179
:100DA0005901B0915A013091560123E0230F2D379C
:100DB00058F50196A11DB11D20935601809357014E
:100DC00090935801A0935901B0935A0180915B010F
:100DD00090915C01A0915D01B0915E010196A11D11
:100DE000B11D80935B0190935C01A0935D01B09372
:100DF0005E01BF91AF919F918F913F912F910F9085
:100E00000FBE0F901F90189526E8230F0296A11D84
:100E1000B11DD2CF789484B5826084BD84B58160E1
:100E200084BD85B5826085BD85B5816085BDEEE6F2
:100E3000F0E0808181608083E1E8F0E010828081D1
:100E400082608083808181608083E0E8F0E080813F
:100E500081608083E1EBF0E0808184608083E0EB5F
:100E6000F0E0808181608083EAE7F0E08081846047
:100E700080838081826080838081816080838081A3
:100E8000806880831092C10008958E3008F08E50E3
:100E90002091080190E4299F900111248770822BF2
:100EA00080937C0080917A00806480937A008091A6
:100EB0007A0086FDFCCF80917800909179000895AA
:100EC000833081F028F4813099F08230A9F00895C0
:100ED0008730A9F08830C9F08430B1F48091800067
:100EE0008F7D03C0809180008F778093800008956C
:100EF00084B58F7784BD089584B58F7DFBCF8091B5
:100F0000B0008F778093B00008958091B0008F7DFE
:100F1000F9CFCF93DF9390E0FC01E458FF4F249189
:100F200080579F4FFC0184918823C9F090E0880F7F
:100F3000991FFC01E255FF4FA591B491FC01EC55BE
:100F4000FF4FC591D49161110DC09FB7F8948C915A
:100F5000209582238C938881282328839FBFDF914B
:100F6000CF910895623051F49FB7F8943C91822F4D
:100F7000809583238C93E8812E2BEFCF8FB7F89445
:100F8000EC912E2B2C938FBFEACF1F93CF93DF933F
:100F9000282F30E0F901E859FF4F8491F901E45816
:100FA000FF4FD491F901E057FF4FC491CC23A1F03A
:100FB000162F811185DFEC2FF0E0EE0FFF1FEC55AF
:100FC000FF4FA591B4918FB7F894EC91111108C01F
:100FD000D095DE23DC938FBFDF91CF911F910895D1
:100FE000DE2BF8CFFC01918D228D892F90E0805C63
:100FF0009F4F821B91098F7399270895FC01918D52
:10100000828D981731F0828DE80FF11D858D90E06B
:1010100008958FEF9FEF0895FC01918D828D9817B1
:1010200061F0A28DAE0FBF2FB11D5D968C91928D98
:101030009F5F9F73928F90E008958FEF9FEF0895C9
:10104000FC01538D448D252F30E0842F90E0821BCE
:10105000930B541710F0CF96089501970895FC0153
:10106000A48DA80FB92FB11DA35ABF4F2C91848D09
:1010700090E001968F739927848FA689B7892C9366
:10108000A089B1898C91837080648C93938D848DB9
:10109000981306C00288F389E02D80818F7D8083BC
:1010A0000895CF93DF93EC01888D8823B1F0AA894E
:1010B000BB89E889F9898C9185FD03C0808186FD13
:1010C0000CC00FB607FCF7CF8C9185FFF2CF808163
:1010D00085FFEDCFCE01C3DFEACFDF91CF91089539
:1010E000EF92FF920F931F93CF93DF93EC0181E078
:1010F000888F9B8D8C8D98131AC0E889F98980811F
:1011000085FF15C09FB7F894EE89FF896083E88951
:10111000F98980818370806480839FBF81E090E043
:10112000DF91CF911F910F91FF90EF900895F62ED0
:101130000B8D10E00F5F1F4F0F731127E02E8C8D6A
:101140008E110BC00FB607FCFACFE889F9898081B0
:1011500085FFF5CFCE0183DFF2CFEB8DEC0FFD2FB6
:10116000F11DE35AFF4FF0829FB7F8940B8FEA8985
:10117000FB8980818062D0CFCF92DF92EF92FF9285
:101180001F93CF93DF93EC016A017B01122FE88953
:10119000F98982E08083C11481EED806E104F1046C
:1011A00099F060E079E08DE390E0A70196014FD1DE
:1011B0002150310941095109569547953795279591
:1011C000211580E1380790F0E889F989108260E8FC
:1011D00074E88EE190E0A701960139D121503109E0
:1011E000410951095695479537952795EC85FD8519
:1011F0003083EE85FF852083188EEC89FD8910836E
:10120000EA89FB89808180618083EA89FB8980810A
:1012100088608083EA89FB89808180688083EA898D
:10122000FB8980818F7D8083DF91CF911F91FF901B
:10123000EF90DF90CF9008951F920F920FB60F920C
:1012400011242F938F939F93EF93FF93E0916F015E
:10125000F09170018081E0917501F091760182FD3D
:101260001BC09081809178018F5F8F7320917901ED
:10127000821741F0E0917801F0E0E15AFE4F958F3E
:1012800080937801FF91EF919F918F912F910F9013
:101290000FBE0F901F9018958081F4CF1F920F9270
:1012A0000FB60F9211242F933F934F935F936F9339
:1012B0007F938F939F93AF93BF93EF93FF938FE5AC
:1012C00091E0CDDEFF91EF91BF91AF919F918F9112
:1012D0007F916F915F914F913F912F910F900FBE32
:1012E0000F901F901895EFE5F1E01382128288EEBF
:1012F00093E0A0E0B0E084839583A683B7838FE07A
:1013000091E09183808385EC90E09587848784ECDD
:1013100090E09787868780EC90E0918B808B81ECC2
:1013200090E0938B828B82EC90E0958B848B86ECA3
:1013300090E0978B868B118E128E138E148E0895EB
:10134000AF92BF92CF92DF92EF92FF920F931F93D3
:10135000CF93DF936C017B018B01040F151FEB0111
:101360005E01AE18BF08C017D10759F06991D601C8
:10137000ED91FC910190F081E02DC6010995892B3A
:1013800079F7C501DF91CF911F910F91FF90EF90F9
:10139000DF90CF90BF90AF9008954F925F926F9281
:1013A0007F92AF92BF92CF92DF92EF92FF920F9314
:1013B0001F93CF93DF93CDB7DEB729013A019B018D
:1013C000AC01241935094609570989899A89AB89DD
:1013D000BC89BC01CD016A197B098C099D091CD00F
:1013E000A8019701241935094609570952D0CA01A5
:1013F000B9016A0D7B1D8C1D9D1DDF91CF911F9141
:101400000F91FF90EF90DF90CF90BF90AF907F90C3
:101410006F905F904F900895DB018F939F9355D00D
:10142000BF91AF91A29F800D911DA39F900DB29F80
:10143000900D11240895991B79E004C0991F961707
:1014400008F0961B881F7A95C9F780950895A1E248
:101450001A2EAA1BBB1BFD010DC0AA1FBB1FEE1F2E
:10146000FF1FA217B307E407F50720F0A21BB30B79
:10147000E40BF50B661F771F881F991F1A9469F7F5
:1014800060957095809590959B01AC01BD01CF0151
:101490000895052E97FB16F400940FD057FD05D044
:1014A000D6DF07FC02D046F408C050954095309531
:1014B00021953F4F4F4F5F4F0895909580957095C0
:1014C00061957F4F8F4F9F4F08950FD0A59F900D2F
:1014D000B49F900DA49F800D911D11240895EE0FCF
:1014E000FF1F0590F491E02D0994A29FB001B39FD6
:1014F000C001A39F700D811D1124911DB29F700D1D
:0C150000811D1124911D0895F894FFCF67
:10150C000AD7233CD03F7F3E012A01000000007027
:0E151C0008A00920085108F2070C08FE07007D
:00000001FF
