:1000000052C0000078C0000076C0000074C000003C
:1000100072C0000070C000006EC000006CC0000024
:100020006AC0000068C0000066C0000064C0000034
:1000300062C000000C9481215EC000005CC0000022
:100040000C94242458C000000C9485260C94B726E8
:1000500052C0000050C000004EC000004CC0000064
:100060004AC0000048C0000001020408102040807F
:1000700001020408102001020408102004040404F2
:100080000404040402020202020203030303030342
:1000900000000000250028002B00000000002400C4
:1000A00027002A00DC2611241FBECFEFD8E0DEBFD8
:1000B000CDBF11E0A0E0B1E0E4E1FFE402C00590B3
:1000C0000D92A23CB107D9F724E0A2ECB1E001C047
:1000D0001D92AF3BB207E1F710E0C3E5D0E004C0EA
:1000E0002197FE010E945927C235D107C9F70E9406
:1000F0007F220C94882784CFCF93DF93882349F005
:10010000EB0181500E94042599838883DF91CF9170
:100110000895FB0111821082F9CF0F931F938B0179
:100120009C0183E036952795179507958A95D1F719
:100130000E531E4F462F477021E030E0F90102C0F8
:10014000EE0FFF1F4A95E2F7AF01F801208124234B
:10015000CB010196211102C090E080E01F910F9128
:1001600008950F931F938B019C0183E0369527958B
:10017000179507958A95D1F7677081E090E001C0E7
:10018000880F6A95EAF7F801EE53FE4F2081452B60
:1001900031F48095822380831F910F910895822BE3
:1001A000FACFCF92DF92EF92FF92CF93DF936B0162
:1001B0007C0160E08EE0C816D104E104F10490F403
:1001C0008EE08C0D0E941F25E6012196AE01C7012D
:1001D000B601C7DFCE01DF91CF91FF90EF90DF90A6
:1001E000CF9008958C2DEECF882341F08150682F59
:1001F00070E090E080E050E040E0B3CF089590E000
:1002000080E008950F931F93009709F487C061154C
:10021000710509F483C0009104011091050120913A
:100220000601309107010E3F1F4F2F4F3F4F09F03E
:1002300066C04FEF5FEFBA01409304015093050190
:1002400060930601709307014091040150910501EC
:100250006091060170910701DC011296ED91FC910D
:1002600080819181A281B381809333029093340283
:10027000A0933502B093360284819581A681B7811F
:1002800080932F0290933002A0933102B0933202F8
:1002900080859185A285B38580932B0290932C0253
:1002A000A0932D02B0932E0284859585A685B785EF
:1002B0008093270290932802A0932902B0932A02E8
:1002C000109223021092240210922502109226020C
:1002D0002AD488EB95E09093CC018093CB01909346
:1002E000CE018093CD010ED3009731F421E030E0B0
:1002F00030933802209337021F910F910895009197
:100300000401109105012091060130910701DB01E4
:100310000D931D932D933C93139796CF8FEF9FEFE3
:10032000EBCF8F929F92AF92BF92CF92DF92EF92DC
:10033000FF921F93CF93DF934B015C0110913A0220
:1003400082E090E090933802809337028114910408
:10035000A104B10441F480913A02811104C080915A
:100360003902C1E08111C0E0C12CD12C760180910D
:100370003A02811106C080913902811102C0CC235A
:10038000D1F083E090E09093380280933702CC2341
:1003900071F1CCE9DFEF111101C04ED7CE01DF9131
:1003A000CF911F91FF90EF90DF90CF90BF90AF90D3
:1003B0009F908F9008956AE070E080E090E00E9446
:1003C000932480E1C80E87E2D81EE11CF11C8FEF58
:1003D00088169806A806B80631F0C1E08C149D0472
:1003E000AE04BF0408F0C0E080E0C0D2C0CFD0E0CF
:1003F000C0E0D1CFCF92DF92EF92FF920F931F9385
:10040000CF93DF938F3F910511F008F050C02091FA
:100410003702309138022330310539F0209137020C
:10042000309138022130310531F424E030E030934E
:100430003802209337026A017B01EC01823091057A
:10044000A0F011E0AE01C701B6015BD2AB01BC0167
:10045000CE011123F9F0DF91CF911F910F91FF9001
:10046000EF90DF90CF900C94450B8C01000F111F83
:1004700005531E4FD8018D919C91892B11F30E9439
:100480004F0B0297F1F6D801ED91FC91CE01099541
:10049000182FD8CF0E94670B90E080E0DF91CF91BA
:1004A0001F910F91FF90EF90DF90CF9008958FEF05
:1004B0009FEFF4CF80E05AC2CF93DF9386E090E0C5
:1004C0009093380280933702AAD2EC01EBECF1E072
:1004D00084E0DF011D928A95E9F746D61092380232
:1004E00010923702CE01DF91CF91089580913902A9
:1004F000089580912202089560930401709305018C
:10050000809306019093070190E080E00895CF92D8
:10051000DF92EF92FF92C0900001D0900101E09035
:100520000201F0900301A70196016091B50470915A
:10053000B6048091B7049091B8040E9407238823E1
:1005400041F0C092B504D092B604E092B704F092A4
:10055000B8046EE070E080E090E0DFDD9093B404DA
:100560008093B30443E050E06BEB74E0C5DD609131
:10057000F9017091FA018091FB019091FC016F5F8C
:100580007F4F8F4F9F4F6093F9017093FA018093D3
:10059000FB019093FC010E940B239B01AC01609135
:1005A000FD017091FE018091FF01909100020E9477
:1005B00070236093F5017093F6018093F701909397
:1005C000F801FF90EF90DF90CF900895CF93DF93E5
:1005D000EFEDF1E080E090E0A0E8BFEB82A393A311
:1005E000A4A3B5A38AE097EDA3E2BCE3868F978F1F
:1005F000A0A3B1A386E599E0A2E6B3E9848395833D
:10060000A683B78389EC9DEFADEFB1EE808791872C
:10061000A287B38781E994E4A4E3B8EE8487958741
:10062000A687B78781E697ECA7EBB0E3808B918B29
:10063000A28BB38BA3EDB1E0B383A283EFECF1E027
:100640001196FC93EE938EE291E0918380839383E5
:10065000828383EF91E015969C938E93149783EE9B
:1006600091E013969C938E93129785EF91E01796E5
:100670009C938E931697CDEAD4E018828091000166
:1006800090910101A0910201B0910301888799879F
:10069000AA87BB8781E090E0A0E0B0E089839A83DD
:1006A000AB83BC836EE070E080E090E07ADD9F83F6
:1006B0008E8381E08D83DF91CF9108958091AD0489
:1006C00081111DC081E08093AD048091AE049091B2
:1006D000AF04A091B004B091B1040197A105B10598
:1006E00071F48091B204882351F06EE070E080E0F4
:1006F00090E013DD9093B4048093B30475CD089516
:100700004F925F926F927F928F929F92AF92BF9221
:10071000CF92DF92EF92FF920F931F93F894409045
:100720001202509013026090140270901502C09053
:100730000602D0900702E0900802F0900902452BD3
:1007400009F0A4C09B01AC012419350946095709D9
:1007500029013A0100910E0210910F02209110021E
:100760003091110248015901840C951CA61CB71C3C
:1007700080169106A206B306A0F400910A02109119
:100780000B0220910C0230910D020F5F1F4F2F4F73
:100790003F4F00930A0210930B0220930C023093F8
:1007A0000D0280920E0290920F02A0921002B0925F
:1007B000110200910A0210910B0220910C0230915B
:1007C0000D028092160290921702A0921802B09227
:1007D000190200931A0210931B0220931C023093FB
:1007E0001D0260931202709313028093140290937F
:1007F0001502A0E1B7E2A30192010E945F276C0DF0
:100800007D1D8E1D9F1D60930602709307028093CD
:1008100008029093090200910401109105012091B2
:100820000601309107010F3F1F4F2F4F3F4FF1F04F
:1008300000910401109105012091060130910701FA
:100840000E3F1F4F2F4F3F4F89F0C0900401D090B3
:100850000501E0900601F090070121E08C149D0451
:10086000AE04BF0408F420E02093220278941F9184
:100870000F91FF90EF90DF90CF90BF90AF909F903F
:100880008F907F906F905F904F9008954B015C0127
:1008900084189508A608B708A3019201261B370BF8
:1008A000480B590B6415750586059705D0F082161F
:1008B0009306A406B50640F420E030E0A9018114B7
:1008C0009104A104B10491F4A0E1B7E20E945F2772
:1008D000A7019601261B370B480B590BCA01B9011A
:1008E000C5CF82169306A406B50670F7A0E1B7E25D
:1008F000A50194010E945F276C0D7D1D8E1D9F1D1B
:10090000B5CFFECECF93DF9300D000D0CDB7DEB70A
:100910001C821B821A82198210921E0210921F02E0
:100920001092200210922102BE016F5F7F4FCE0114
:1009300003960E94652169817A818B819C810E9446
:100940005E1A009761F4BE016F5F7F4FCE01039680
:100950000E94712169817A818B819C812CD50F90B5
:100960000F900F900F90DF91CF910895FF920F930A
:100970001F93CF93DF93082F60E070E0CB010E94BC
:100980009324FF24F3940E944919EC01892B89F0E8
:1009900010E0CE3F8FEFD80769F0002361F160E0EF
:1009A00070E0CB010E94932481E090E0892B59F301
:1009B00022C011E023D5EC01892B21F0CE3F8FEF2F
:1009C000D80759F711111EC011E0229609F410E062
:1009D0000E94FA18EC01892B21F0CE3F8FEFD80747
:1009E000E1F6111111C011E0CE3F8FEFD80709F4E5
:1009F00010E001110BC0CE01DF91CF911F910F913B
:100A0000FF90089511E0E4CF11E0F3CF60E070E0D3
:100A1000CB010E9493241F25812F90E0C7CFCF9355
:100A2000DF9380912202882321F060E070E0CB0107
:100A30004CD635D6D0E0C0E0892B71F06AE070E08A
:100A400080E090E00E94932481E090DF28D62196F8
:100A5000C03D27E0D20781F727D60E94B21A109234
:100A60003A0210923902109233021092340210921C
:100A700035021092360210922F021092300210921C
:100A800031021092320210922B0210922C0210921C
:100A90002D0210922E02109227021092280210921C
:100AA000290210922A02109223021092240210921C
:100AB0002502109226024EEF5FEF6FEF7FEF40931B
:100AC0000401509305016093060170930701109291
:100AD0002202E6E1F2E028E0DF011D922A95E9F723
:100AE0001092120210921302109214021092150228
:100AF00010920E0210920F02109210021092110228
:100B000010920A0210920B0210920C0210920D0227
:100B10001092060210920702109208021092090227
:100B2000DF91CF91089510924602109247021092E1
:100B30004802109249021092450280914E02909113
:100B40004F0290934402809343021092420210920B
:100B5000410210923D0210923E0210923F0210920A
:100B6000400210924B0210924A0290E080E00895F9
:100B7000CF92DF92EF92FF920F931F93CF938C014E
:100B8000892B09F055C020914E0230914F0280917F
:100B900043029091440240914E0250914F02509373
:100BA0004402409343022817390781F01092420211
:100BB0001092410210923D0210923E0210923F02AA
:100BC0001092400210924B0210924A0280914E0203
:100BD00090914F02019761F580914A0290914B02EA
:100BE000892B21F480910801811112C080914A0261
:100BF00090914B020197E1F480913D0290913E0269
:100C0000A0913F02B09140020197A105B10581F486
:100C100010923D0210923E0210923F02109240024A
:100C20001092080182E090E090934B0280934A0278
:100C300080914E0290914F02019709F01CC1809162
:100C40006402909165028017910709F014C18091A8
:100C5000600290916102A0916202B09163020097DC
:100C600009F409C120915F0221110DC04091600279
:100C7000509161026091620270916302452B462B94
:100C8000472B09F4F8C020914A0230914B022230E0
:100C9000310509F0F0C0209141022111ECC0FC01A6
:100CA000C080D180E280F38080914502882309F4DE
:100CB000D3C08091510290915202892B09F4FDC05A
:100CC000209151023091520281E02230310509F029
:100CD00080E02091510230915202C1E02130310573
:100CE00049F02091510230915202C1E02230310589
:100CF00009F0C0E0882309F456C020915B023091CE
:100D00005C0240915D0250915E02C701B6010E94F3
:100D10006C2387FD14C020915B0230915C024091EE
:100D20005D0250915E02609146027091470280918F
:100D30004802909149020E94072387FD22C020911A
:100D40005B0230915C0240915D0250915E02C701EE
:100D5000B6010E946C23181634F520915B02309185
:100D60005C0240915D0250915E026091460270917A
:100D7000470280914802909149020E940723811105
:100D800012C08091530290915402A0915502B091EB
:100D90005602892B8A2B8B2B19F481E08093420217
:100DA00081E080934102CC2309F456C020915B027C
:100DB00030915C0240915D0250915E02C701B60124
:100DC0000E94072387FF14C020915B0230915C02D0
:100DD00040915D0250915E0260914602709147021F
:100DE00080914802909149020E946C2387FF22C0A3
:100DF00020915B0230915C0240915D0250915E0255
:100E0000C701B6010E940723811126C020915B0211
:100E100030915C0240915D0250915E026091460209
:100E20007091470280914802909149020E946C2380
:100E3000181694F48091530290915402A091550297
:100E4000B0915602892B8A2B8B2B19F481E0809369
:100E5000420281E08093410281E090914102911130
:100E600080E080934502C0924602D0924702E09211
:100E70004802F0924902012B09F067C180914A02B1
:100E800090914B02892BD9F410925002109241029A
:100E900080910801882379F082E090E090934B02E2
:100EA00080934A021092080120914E0230914F0225
:100EB00081E0232BE9F080E01BC081E00ACF109293
:100EC000080180915002882349F01092420210924A
:100ED0004B0210924A0210925002EDCF80914E02C6
:100EE00090914F02892BE1F08091410210924102D2
:100EF00020914A0230914B022230310509F45EC044
:100F000088F42115310509F448C02130310509F470
:100F1000F3C010924202109241021092500238C067
:100F200081E0E6CF2330310509F4B1C0243031052A
:100F300081F740913D0250913E0260913F027091D5
:100F40004002411551056105710561F0415051099B
:100F50006109710940933D0250933E0260933F0244
:100F60007093400240913D0250913E0260913F02D9
:100F700070914002452B462B472BD9F420914C020F
:100F800030914D022130310509F046C010924202E5
:100F900010924B0210924A020CC0809108018823E3
:100FA00041F082E090E090934B0280934A021092CD
:100FB000080110923B0280914202CEC08823C9F3FF
:100FC0008091530290915402A0915502B091560223
:100FD000181619061A061B060CF07DC080914E02E9
:100FE00090914F02019709F076C080915302909141
:100FF0005402A0915502B091560280933D02909305
:101000003E02A0933F02B093400283E090E09093B1
:101010004B0280934A02CDCF409157025091580223
:101020006091590270915A02452B462B472BA9F02B
:10103000109242028091570290915802A091590259
:10104000B0915A0280933D0290933E02A0933F02DA
:10105000B093400281E090E0DACF882399F080914C
:10106000090190910A01A0910B01B0910C018093AC
:101070003D0290933E02A0933F02B093400284E071
:1010800090E0C5CF1092420282E090E0C0CF809104
:101090003D0290913E02A0913F02B0914002009724
:1010A000A105B10559F00197A109B10980933D024D
:1010B00090933E02A0933F02B093400280913D0284
:1010C00090913E02A0913F02B0914002892B8A2B61
:1010D0008B2B09F06ECF8091090190910A01A091AC
:1010E0000B01B0910C01892B8A2B8B2B09F44ECF6D
:1010F00081E080934202B3CF40913D0250913E0285
:1011000060913F02709140024115510561057105E2
:1011100061F0415051096109710940933D025093BA
:101120003E0260933F027093400240913D02509115
:101130003E0260913F0270914002452B462B472BA7
:1011400009F037CF8111C7CF9FCF80913B02882311
:1011500009F431CF80913C02CF911F910F91FF9004
:10116000EF90DF90CF9008951092460210924702C0
:1011700010924802109249021092450210924B02BE
:1011800010924A0210924402109243021092650299
:1011900010926402109242021092410210923D029B
:1011A00010923E0210923F021092400210923C02B6
:1011B00010923B0210926002109261021092620241
:1011C0001092630210925F0210925B0210925C0216
:1011D00010925D0210925E0288EE93E0A0E0B0E013
:1011E0008093090190930A01A0930B01B0930C0125
:1011F00010925702109258021092590210925A02FD
:1012000010925302109254021092550210925602FC
:10121000109252021092510281E0809308011092C4
:10122000500210924F0210924E0210924D021092F4
:101230004C0290E080E0089580914E0290914F0220
:10124000892B19F580910801882351F08091500273
:10125000811106C081E080933C0280933B02089597
:10126000209150023091080181E090E0332311F089
:1012700090E080E030E082239323892B21F01092CC
:101280003C0281E0EACF10923B02089582E090E0B8
:10129000FA01918380838FEF9FEF0895CF93DF93BF
:1012A000EA01009711F00E94CF1B1982188290E08A
:1012B00080E0DF91CF910895DB01009719F48FEF63
:1012C0008C9308952EEF2C930F968F30910508F094
:1012D00033C0FC01E259F64F0C9459279A0998093A
:1012E0009609940992098E0990098C098A0988093E
:1012F000850981097D0983099C0980E311968C93F6
:10130000089589E2FBCF82E2F9CF11961C920895ED
:1013100083E2F4CF81E2F2CF81E1F0CF87E2EECF3A
:101320008AE2ECCF80E1EACF84E2E8CF88E2E6CF40
:1013300086E2E4CF81E3E2CF80E2E0CF80917202E7
:1013400090917302089590937302809372020895AE
:1013500080917102089590917102892B809371029E
:101360000895982F9095809171028923809371023E
:10137000089580917002089580916E0290916F029D
:1013800008956115710559F0FB0130E020E070E02F
:1013900060E02417350719F06115710511F0CB01D4
:1013A0000895A081B181A817B90709F4BF012F5F83
:1013B0003F4F3696EECF8091740281111CC062D2ED
:1013C00068D290936702809366020E94E2130E94A3
:1013D000F41390936B0280936A020E9464180E9437
:1013E0006B18909369028093680281E08093740285
:1013F00090E080E0089584EF9FEF08958F929F9290
:10140000AF92BF92CF92DF92EF92FF920F931F9312
:10141000CF93DF93CDB7DEB72A970FB6F894DEBF30
:101420000FBECDBF1A86198618861F821E821D82A6
:101430001C821B821A8219828091740207EF1FEFAF
:10144000882309F49CC08E010D5F1F4F9E012B5F06
:101450003F4FAE01495F5F4FBE01675F7F4F90E036
:1014600080E00E94E4198C01009721F00596029714
:1014700008F0DBC029853A852115310509F402C140
:10148000ED80FE804B815C81B701640F751F8F81F9
:1014900098858617970708F4F5C0E20EF31ED7016A
:1014A0009C91903C09F07FC04230510508F47BC00C
:1014B00011968C914091720250917302452B09F460
:1014C0009CC0913F08F071C02CE1290F2D3008F429
:1014D0008BC02DE2290F203108F489C0903C21F403
:1014E0008150823008F483C088E3890F8B3008F480
:1014F00081C09CE5C92E99E0D92EE6E4F9E06D8122
:101500007E81AE014F5F5F4F89859A8509955C01A9
:10151000C114D104A1F189809A808114910479F1D8
:101520008B819C818815990508F487C010E000E044
:101530004B815C8170E060E0C7010E94812701154A
:101540001105E9F449815A8169857A858D819E81E9
:10155000680F791FC501F6010995E980FA800D81B0
:101560001E812F81388549855A856FEF7FEF81E095
:1015700090E00E9480198C01892B09F056C0C801A7
:101580002A960FB6F894DEBF0FBECDBFDF91CF9184
:101590001F910F91FF90EF90DF90CF90BF90AF9091
:1015A0009F908F90089580E085CF30E020E0220F5B
:1015B000331FF901EA59FD4F0190F081E02D30977A
:1015C00009F497CF892F90E00995009709F491CFFE
:1015D000DC011296ED91FC9113971496CD90DC905E
:1015E000309709F08CCF1FC021E030E0E0CF22E03F
:1015F00030E0DDCF23E030E0DACFD12CC12CEEE4B7
:10160000F9E09F3F09F07BCFE0916602F09167021D
:10161000309721F4C90104EF1FEF0CC08FEF90E069
:1016200009950097A9F604EF1FEF89859A85009721
:1016300009F4A5CF0E94CF1BA2CF0E94AD1A8C0146
:1016400089859A850E94CF1B70E060E0C4010E94EA
:10165000461A98878F830E947D199E838D836F81A0
:1016600078856115710559F0C8010E945B1D9A8744
:10167000898706EF1FEF892B09F058CF59CF08EF64
:101680001FEF56CF08EF1FEFD0CF20917402222317
:1016900019F020E00C94F91387EF9FEF08958091E3
:1016A00072029091730208950E9470180E94CA17E6
:1016B000F5D0E6E6F2E088E0DF011D928A95E9F7D1
:1016C0001092740290E080E008950C94271621E0B7
:1016D00040E050E0BA010C94F91386E090E0FA0182
:1016E0009183808390E080E0089547E050E061E3DB
:1016F00071E047CEDF92EF92FF920F931F93CF934B
:10170000DF938A01EC01C60FD71FE0907802F090BA
:101710007902D9800E94951AD816190678F082E0CD
:1017200090E0F801918380838EEF9FEFDF91CF915E
:101730001F910F91FF90EF90DF900895EF2841F4F3
:1017400082E090E0F8019183808384EF9FEFEECFF9
:1017500089818093770290E00196F80191838083DC
:1017600090E080E0E3CFCF93DF93EA010E94D816A8
:10177000882321F00E94A21A0E94D91682E090E0EC
:10178000998388838BEF9FEFDF91CF910895CF935B
:10179000DF93EB0186E0FB0111928A95E9F78FEF69
:1017A0008883D6DD8983E5DD8A83E6DD9D838C83AE
:1017B000DF91CF910895CF93DF93EA010E94DB166A
:1017C000811109C082E090E09983888385EF9FEFC3
:1017D000DF91CF91089590E080E0B5DD81E090E069
:1017E0009983888390E080E0F3CF0F931F93CF938A
:1017F000DF93EA018C01060F171F0E94DB1681118F
:101800000BC082E090E09983888385EF9FEFDF91A2
:10181000CF911F910F910895F8018181823038F0A6
:1018200082E090E0998388838EEF9FEFF0CF81E094
:1018300090E089DD88E090E09983888390E080E003
:10184000E6CFCF93DF930097D1F4EB01FB01329603
:1018500086E0DF011D928A95E9F78FEF888385E0A6
:1018600089831A820E94951A8B830E94941A9D8301
:101870008C8381E08E838F83DF91CF910895DF91F8
:10188000CF911ACD85E79BE0909376028093750205
:1018900008958091750290917602089510927602D3
:1018A00010927502089580917802909179020895BE
:1018B000411105C0611571058105910561F06093C5
:1018C00078027093790280937A0290937B0240931E
:1018D0007C0281E0089580E00895FF920F931F93AA
:1018E000CF93DF938A01EC01C60FD71FF9800E94C6
:1018F000951AF816190668F082E090E0F8019183D5
:1019000080838EEF9FEFDF91CF911F910F91FF901A
:1019100008956C817D818E819F814B81C9DF81110A
:1019200008C082E090E0F8019183808384EF9FEF0C
:10193000EACF89818093770290E00196F801918344
:10194000808390E080E0DFCFCF93DF93EA01FC015A
:10195000E60FF71F64817581868197814381A8DF37
:10196000811109C082E090E09983888384EF9FEF22
:10197000DF91CF91089581E090E09983888390E092
:1019800080E0F6CFE8E7F2E0408151816281738127
:10199000480F511D611D711D408351836283738304
:1019A0000895CF93C09177024C2F50E06091780258
:1019B0007091790201960E9478278C2FE3DF1092B4
:1019C0007702CF910895009799F4809178029091D1
:1019D00079022FEFFB012083892B59F020917702A8
:1019E00030E02F5F3F4F2417350719F4CB01D9CFD3
:1019F00063CC0895009799F48091780290917902D0
:101A00002FEFFB012083892B59F02091770230E0E2
:101A10002F5F3F4F2417350719F4CB01C2CF4CCCB1
:101A2000089523E1AC01249FC001259F900D11244E
:101A3000E0918102F0918202E80FF91F2381348145
:101A40002250310981E02230310508F080E008950C
:101A50000F931F93CF93DF93009183021091840221
:101A6000D0E0C0E080E00C171D0749F491E081113F
:101A700090E0892FDF91CF911F910F9108958111EF
:101A8000F5CFCE01CEDF2196EECFA0918102B091AD
:101A90008202109729F120918302309184028217EB
:101AA0009307F0F453E1589F9001599F300D112492
:101AB000A20FB31FED91FC911197309789F0129608
:101AC0008C91681768F48BE0689FE00DF11D11247C
:101AD00080819181892B21F081E09281491708F062
:101AE00080E008959C0143E1429FC001439F900D17
:101AF0001124E0918102F0918202E80FF91F8385A1
:101B0000823091F481E090E06581768140910D0111
:101B100050910E016417750711F490E080E0892B55
:101B200019F081E0232B09F080E00895EF92FF92F5
:101B30000F931F93CF93DF93EA01FC01E60FF71F8A
:101B400002811381E480F5804F2D6E2DC8019DDF49
:101B500081110DC082E090E0998388838EEF9FEF22
:101B6000DF91CF911F910F91FF90EF900895C801E1
:101B700058DF882339F082E090E09983888388EFEA
:101B80009FEFEECF1093140100931301E092150123
:101B9000F092160181E090E09983888390E080E0E4
:101BA000DFCFCF92DF92EF92FF920F931F93CF93ED
:101BB000DF937A01EC01C60FD71FC0901301D090BC
:101BC00014010091150110911601412F602FC601DB
:101BD0005CDF811110C082E090E0F7019183808387
:101BE0008AEF9FEFDF91CF911F910F91FF90EF90C0
:101BF000DF90CF900895C60114DF882341F082E082
:101C000090E0F7019183808388EF9FEFEBCF4C81C9
:101C10005D816E817F819A8189818F3F41F082E071
:101C200090E0F701918380838EEF9FEFDBCFE3E1BC
:101C3000EC9D9001ED9D300D1124E0918102F09119
:101C40008202E20FF31F0190F081E02D2BE0029F52
:101C5000E00DF11D11240190F081E02D27E0129F8D
:101C6000E00DF11D1124808391838B818283438356
:101C70005483658376831F5F1093160181E090E0A3
:101C8000F7019183808390E080E0ACCFEF92FF92E8
:101C90000F931F93CF93DF937A018C01060F171FC9
:101CA000C0918102D0918202209781F021E030E042
:101CB000F8018281938140918302509184028417BC
:101CC000950710F030E020E0232B71F482E090E0E3
:101CD000F701918380838EEF9FEFDF91CF911F916A
:101CE0000F91FF90EF90089543E1489F9001499F25
:101CF000300D1124C20FD31F94DE882341F082E0FF
:101D000090E0F7019183808388EF9FEFE6CFF801A1
:101D10002481358120383105C8F687818111D6CFDD
:101D20004181842F90E08F7E009741F082E090E027
:101D3000F7019183808386EF9FEFCFCF4F833E8360
:101D40002D83268128871986223010F421E02887E8
:101D500021E030E0F70131832083BFCF88E090E0BD
:101D6000FA019183808390E080E00895FB018FEF7A
:101D7000808381E181838FEF9FEF9383828380E86B
:101D800090E095838483168217820895FB018FEF7C
:101D9000808391E0918382839383848384E385832A
:101DA00081E090E0978386830895DF92EF92FF921F
:101DB0000F931F93CF93DF93EA01FC01E60FF71F08
:101DC0008181813071F082E090E0998388838FEF88
:101DD0009FEFDF91CF911F910F91FF90EF90DF90D8
:101DE000089582819381D4802581E680F7800091D7
:101DF0008102109182020115110539F482E090E010
:101E0000998388838CEF9FEFE4CF409183025091B8
:101E100084028417950738F082E090E099838883E4
:101E20008EEF9FEFD6CF892B39F082E090E0998337
:101E3000888386EF9FEFCDCF8D2D8D7FB1F7213039
:101E4000A1F781E0D11006C091E0E916F10431F06C
:101E500080E004C0E2E0EE16F104D0F3882329F319
:101E600090E080E0DEDD882339F082E090E0998325
:101E7000888388EF9FEFADCFF801D38681E0848718
:101E8000F686E586108A178681E090E0998388833C
:101E900090E080E09ECF4CE050E06BE571E071CACD
:101EA0008F929F92BF92CF92DF92EF92FF920F9309
:101EB0001F93CF93DF93EA01FC01E60FF71F8281A6
:101EC00093810481B580E0918102F0918202309784
:101ED00091F482E090E0998388838CEF9FEFDF910B
:101EE000CF911F910F91FF90EF90DF90CF90BF9017
:101EF0009F908F90089520918302309184028217E1
:101F0000930738F082E090E0998388838EEF9FEF0B
:101F1000E6CF23E1289F6001299FD00C1124EC0D0E
:101F2000FD1DE080F180E114F10499F2828108172F
:101F300048F78BE0089F80011124E00EF11EF701A5
:101F400080819181892B29F6BB20E1F2F7E0BF9EC9
:101F500040011124C4010E94961BF70191838083E4
:101F6000E0918102F0918202EC0DFD1D0190F08163
:101F7000E02DE00FF11F80819181009739F482E01C
:101F800090E0998388838DEF9FEFA9CFA40170E043
:101F900060E00E9481278091810290918202C80EA8
:101FA000D91EF60180819181080F191FF801B282B4
:101FB00081E090E09983888390E080E090CFAF92B9
:101FC000BF92CF92DF92FF920F931F93CF93DF9335
:101FD000EA01FC01E60FF71F82819381F4800091F2
:101FE0008102109182020115110581F482E090E0D6
:101FF000998388838CEF9FEFDF91CF911F910F9191
:10200000FF90DF90CF90BF90AF9008952091830212
:10201000309184028217930738F082E090E0998330
:1020200088838EEF9FEFE8CF2FEF2F0D2C3FA8F77F
:1020300023E1289F6001299FD00C11240C0D1D1D48
:10204000F80180819181892B89F6FBE0FF9E500188
:102050001124C5010E94961BF80191838083E091B1
:102060008102F0918202EC0DFD1D8081918100972B
:1020700039F482E090E0998388838DEF9FEFBCCFA5
:10208000A50170E060E00E948127E0918102F0915B
:102090008202EC0DFD1DF28281E090E0998388833D
:1020A00090E080E0A9CFCF92DF92EF92FF920F9362
:1020B0001F93CF93DF93860F971FFC01028113813B
:1020C0008091810290918202892B81F082E090E0E0
:1020D000FA01918380838CEF9FEFDF91CF911F9165
:1020E0000F91FF90EF90DF90CF900895C801B0E07E
:1020F000A0E00197A109B1098F3F9F4FA105B1054C
:1021000040F082E090E0FA01918380838EEF9FEFB0
:10211000E4CF7A0183E1809F6001819FD00C11247C
:10212000C6010E94961BEC01009741F482E090E00A
:10213000F701918380838DEF9FEFCFCFA60170E0F1
:1021400060E00E948127D0938202C09381021093A5
:1021500084020093830290E080E02FEF3FEF41E0A4
:1021600061E070E08017910741F481E090E0F701B1
:102170009183808390E080E0B0CF3A8B298B1B86DF
:102180004C877E876D87188A1F8601966396EACFF3
:10219000CF92DF92EF92FF920F931F93CF93DF9333
:1021A000EC01D12CC12C10E000E0F12CE12C6A8173
:1021B00070E006171707BCF0660F771FAE014F5E81
:1021C0005F4FC7010E94FB1B009721F02FEF3FEFED
:1021D0003A8B298BDF91CF911F910F91FF90EF9058
:1021E000DF90CF900895E881F981EC0DFD1D4381CA
:1021F00054818D859E85489F9001499F300D589F41
:10220000300D1124C90101960115110519F44F81F2
:1022100044FD049661E070E00E94461AE816F90653
:1022200008F47C010F5F1F4F8BE0C80ED11CBFCF9D
:10223000F89420917F023091800281E021153105D0
:1022400009F080E0232B09F0789408952F923F92B3
:102250004F925F926F927F928F929F92AF92BF92B6
:10226000CF92DF92EF92FF920F931F93CF93DF9362
:102270003C01660E771EF301828193814C01B12CE3
:10228000A12CC0918102D0918202209769F021E0B7
:1022900030E060918302709184028617970710F0F6
:1022A00030E020E0232BD1F482E090E0FA0191832A
:1022B00080838EEF9FEFDF91CF911F910F91FF9061
:1022C000EF90DF90CF90BF90AF909F908F907F90D6
:1022D0006F905F904F903F902F90089580921701DC
:1022E00090921801A0921901B0921A0163E1689FBF
:1022F0009001699F300D1124C20FD31FF30181811A
:10230000833040F082E090E0FA019183808386EF91
:102310009FEFD1CF2A012B813C81232BF1F428811F
:1023200039819F8191FF2EC0232B09F46FC020912A
:1023300086029A81422F490F5527551FBA0141E065
:1023400050E06138710514F050E040E0452B09F48D
:102350005DC02A87920F909386028150823008F4E4
:1023600081C066DF882309F4D8C0F3018181813000
:1023700009F48DC008F47BC0823009F4C6C090E037
:1023800080E0ADC0232B09F441C0209185029A81E1
:10239000E22FE90FFF27FF1F41E050E0ED3FF1057D
:1023A00014F050E040E0452B89F12A87920F90937A
:1023B0008502D3CFA081B181A20FB31F11966C917A
:1023C000060F111D0196295F3F4F8417950794F35F
:1023D0008D859E85089F1001099F300C189F300C39
:1023E0001124C114D104D1F48F8184FF17C00E943D
:1023F000941AF5E02F0E311C21E08215930508F4A4
:1024000020E0A701455F5F4F21110EC082E090E000
:10241000F2019183808387EF9FEF4DCF0E94941A42
:102420002FEF221A320AE8CF88819981E80EF91E2F
:10243000F70114830383FFEFCF1ADF0A7A018A8141
:102440008C151D0409F00CF48CCFE881F981EE0D98
:10245000FF1D428150E030E020E010E000E090E01D
:1024600080E0B3CFF12CE12CD12CC12CE8CF81E05E
:1024700090E09C838B83ECDA882309F480CF81E0A1
:1024800090E00E94A30980E40E94B10978CF898975
:102490009A89019661F083E090E09C838B8382E0CF
:1024A00090E00E94A30980E40E94AB0968CF8D816F
:1024B0009E8120910D0130910E0182179307D1F476
:1024C0006091110170911201AE014F5E5F4F8091DA
:1024D0000F01909110010E941A1D0097E1F278946B
:1024E00022E030E0F20131832083892B99F08DEFD7
:1024F0009FEFE1CE89288A288B2869F6892B59F627
:10250000CE0146DE188A1F86E8CF82E090E09C83E9
:102510008B8335CF90E080E0CECE82E090E0F20178
:102520009183808385EF9FEFC6CE8F929F92AF926B
:10253000BF92CF92DF92EF92FF920F931F93CF93B0
:10254000DF93EA018C01060F171FF80181818330A8
:1025500098F082E090E09983888386EF9FEFDF9187
:10256000CF911F910F91FF90EF90DF90CF90BF9090
:10257000AF909F908F9008958091810290918202F8
:10258000892B61F081E090E02091830230918402F8
:10259000232B11F490E080E0892B39F482E090E065
:1025A000998388838EEF9FEFDACF42DE882309F488
:1025B000DFC0F8018181813009F495C0E8F08230F4
:1025C00099F42091830230918402E0918102F0918C
:1025D000820290E080E041E050E02817390709F0DE
:1025E000BDC036DA811117C0789481E090E09983FC
:1025F000888390E080E0B3CF209183023091840201
:10260000E0918102F091820290E080E041E050E0B0
:102610002817390741F481E090E00E94A30980E483
:102620000E94B109E1CF63817481672B11F054835B
:10263000438301967396ECCFE0918102F091820280
:10264000E00FF11F2381348122303105D9F4218933
:1026500032892F3F3F4FB1F42581368140910D01E2
:1026600050910E012417350761F5AF014F5E5F4FA2
:10267000609111017091120180910F0190911001F0
:102680000E941A1DEFEFCE1ADE0AEE0AFE0A0D5E58
:102690001F4F409183025091840270E060E0C416A5
:1026A000D506E606F7063CF5009731F27894892BBB
:1026B00009F49BCF82E090E0998388838DEF9FEFB0
:1026C0004ECFC114D104E104F104E1F6232BD1F67D
:1026D000CF015EDDE0918102F0918202E00FF11FF7
:1026E000108A1786CFCF10E000E090E080E0C12C88
:1026F000D12C7601CECF0097C9F610E000E0812CF6
:10270000912C540183E0E82EF12C1AC0E091810253
:10271000F0918202E00FF11F83819481029749F4C6
:10272000F482E38282E090E00E94A30980E40E94A8
:10273000AB09FFEF8F1A9F0AAF0ABF0A0D5E1F4F4A
:102740008091830290918402B0E0A0E088169906FF
:10275000AA06BB06DCF290E080E0A8CF638174811A
:102760006230710511F4548343830196739635CF1B
:1027700082E090E09983888385EF9FEFF0CE009709
:10278000B9F48FEFFB01808320911701309118017C
:1027900043E1429FC001439F900D1124E0918102CB
:1027A000F0918202E80FF91F8285FB018183089571
:1027B0000C945C0988E090E0FA019183808390E0BA
:1027C00080E008951092800210927F02E1E8F2E02A
:1027D00086E0DF011D928A95E9F78BE49FE09093F4
:1027E0007E0280937D02089580917D0290917E0209
:1027F00008952F923F924F925F926F927F928F92A5
:102800009F92AF92BF92CF92DF92EF92FF920F937F
:102810001F93CF93DF93CDB7DEB760970FB6F894D1
:10282000DEBF0FBECDBFF894E0917F02F091800231
:102830003196F0938002E0937F027894A091810218
:10284000B0918202BA83A983109709F4FAC1E0918A
:102850008302F0918402EF2B09F4F3C128874B87A0
:102860005C876D877E879A878987B88BAF87312C85
:10287000212CF12C512C412C8091830290918402C7
:102880002816390610F4FF2029F1F89480917F0270
:102890009091800201979093800280937F027894B8
:1028A000C20160960FB6F894DEBF0FBECDBFDF91B8
:1028B000CF911F910F91FF90EF90DF90CF90BF903D
:1028C000AF909F908F907F906F905F904F903F90D0
:1028D0002F900895B10190E080E087D4682EEF85B5
:1028E000F889878181FD3DC0838194810397C9F573
:1028F000258136813C832B8389859A852817390762
:1029000081F5C101EFD8782E8823A9F1AF85B88968
:102910001F968D919C915097019621E01D964D91A7
:102920005C918417950709F020E02F83B12CA12C2E
:10293000EF85F88982818A151B0419F014F0FF20B5
:10294000E9F0F885FF2309F46CC1AF85B88950968A
:102950001C921E921F97662021F0B10190E080E04A
:1029600046D4FFEF2F1A3F0A2F8538892D5E3F4F3F
:10297000388B2F8781CFB1E0BF83D8CFBED49E8361
:102980008D83E885EE23E9F0772009F43CC1AF851B
:10299000B8891F968D919C91892B79F0BBE0BA9DE7
:1029A000C001BB9D900D1124AF85B889ED91FC91BC
:1029B000E80FF91F85819681F2D6BFEFAB1ABB0AEB
:1029C000B7CF81E0772039F0EF85F8892785308906
:1029D000232B09F080E0F82EE12CA114B10439F486
:1029E000AF85B8891796EC90E4FAEE24E0F8BBE0E6
:1029F000BA9D6001BB9DD00C1124882309F424C129
:102A0000AF85B889ED91FC911197EC0DFD1D4381C7
:102A100054811D962D913C91429FC001439F900D82
:102A2000529F900D1124E1105DC00196908787831D
:102A300061E070E08781908529D5EF85F88921894B
:102A40003289008111810C0D1D1D2F3F320709F4C1
:102A50004BC0BC01C9010E945B1DD80116969C9316
:102A60008E931597AF85B889ED91FC911197EC0D78
:102A7000FD1D058116810115110509F4CDC0ED81FB
:102A8000FE810E0F1F1F1A968C918A0DD8018C9310
:102A9000E1102FC00F5F1F4FAF85B889ED91FC91FA
:102AA000EC0DFD1D12870187AF85B889ED91FC9172
:102AB000EC0DFD1D85819681892B09F4A4C08091C0
:102AC0000D0190910E012B813C812817390709F4E3
:102AD00065C0772011F001851285912C812C1A8216
:102AE00019824AC00596A2CF21D6F8019683858324
:102AF000B9CF8B859C85AD85BE85F8018183928396
:102B0000A383B4830B5F1F4FC7CFE080F180E80C35
:102B1000F91CD70113966D917C9114978C918F3F7E
:102B200009F473C0E1E0F0E002C0EE0FFF1F8A95E8
:102B3000E2F7CF01092E000CAA0BBB0BFB01408171
:102B400051816281738184239523A623B72321E0D9
:102B5000892B8A2B8B2B09F420E0D8012C93D701E9
:102B600011968C91080F111DE981FA813196FA8333
:102B7000E983F7E08F0E911CAF85B889ED91FC9148
:102B8000EC0DFD1D828129813A818217130611F017
:102B90000CF0BBCF772011F0128701873F813323E0
:102BA00091F1AF85B889ED91FC91EC0DFD1D61E0CF
:102BB00070E0878190856AD4AF85B889ED91FC91EA
:102BC000EC0DFD1DE780F08445815681E1E0F0E0E9
:102BD000662011F0F0E0E0E00D811E819C01B10162
:102BE000882799278E1B9F0B8BD32C01892B59F09B
:102BF000EF85F88980819181C80ED91ED60115967E
:102C00008D919C91CCD5F12CD8CEF701418150E02B
:102C1000C8010E947827A3CF86EF482E55245A94E6
:102C2000CCCEEF85F889878590890196908B878730
:102C3000258536858217930709F08DCE108A178671
:102C40008ACE512C412C21CE10E000E02DCF2F92C6
:102C50003F924F925F926F927F928F929F92AF922C
:102C6000BF92CF92DF92EF92FF920F931F93CF9379
:102C7000DF93809181029091820210E000E0892B25
:102C8000A9F0D6DA0AEF1FEF882381F020908302A3
:102C900030908402C0918102D0918202D12CC12C4B
:102CA00010E000E02C143D04A9F47894C801DF91F1
:102CB000CF911F910F91FF90EF90DF90CF90BF9039
:102CC000AF909F908F907F906F905F904F903F90CC
:102CD0002F900895C6010E94720D882309F18B81FF
:102CE0009C810397E9F48F859889892BC9F0B601F7
:102CF00090E080E07AD221E030E0882311F030E0EB
:102D000020E044245524421A530AB12CA12C912CC2
:102D1000812C8A818815190409F038F4188A1F86D5
:102D20004FEFC41AD40A6396BDCFE881F981EA0D4A
:102D3000FB1D85819681892BA1F161E070E087817F
:102D40009085A4D33C01D9D28C01E881F981EA0DA8
:102D5000FB1D8185928525813681200F311FAC01B5
:102D6000421B530B9A0147815085421B530B70E065
:102D700060E00E948127E881F981EA0DFB1DE78070
:102D8000F084458156819301B601C201B9D28C010C
:102D9000892B39F0E881F981EA0DFB1D8581968147
:102DA000FED45FEF851A950A8BE0A80EB11CB1CF57
:102DB0003FCA789408952F923F924F925F926F92FC
:102DC0007F929F92AF92BF92CF92DF92EF92FF924B
:102DD0000F931F93CF93DF9300D000D000D0CDB7D7
:102DE000DEB700918102109182029924939401151B
:102DF000110509F43EC0A0908302B090840218DA55
:102E0000982E8823B1F110928202109281021092C2
:102E100084021092830210928502109286028FEF34
:102E20009FEFDC018093170190931801A093190183
:102E3000B0931A0178947AD31E830D83C12CD12CC0
:102E40007601C501B0E0A0E089839A83AB83BC839F
:102E500022242A94322C89819A81AB81BC81C816A4
:102E6000D906EA06FB06F4F0C80199D480E40E9472
:102E7000B109892D26960FB6F894DEBF0FBECDBFDF
:102E8000DF91CF911F910F91FF90EF90DF90CF9046
:102E9000BF90AF909F907F906F905F904F903F90CA
:102EA0002F900895AD81BE8115968D919C911697B6
:102EB00020910D0130910E0182179307D1F45196A4
:102EC0008D919C91E6D5ED81FE8180819181B12C1F
:102ED000A12C412C512C3201892B89F5BFEFCB1A43
:102EE000DB0AEB0AFB0AED81FE817396FE83ED831C
:102EF000B2CFC114D104E104F10429F7892B19F7E9
:102F0000ED81FE81818992898F3F980709F021D553
:102F1000AD81BE8152963C922E925197D4CF8A0DAC
:102F20009B1DDC018D919C91009709F038D4BFEF77
:102F30004B1A5B0A6B0A7B0AEBE0AE0EB11CAD814B
:102F4000BE818D919C91119712964C9150E070E04A
:102F500060E044165506660677060CF320D4BECF13
:102F6000CF93DF93EA0127DF811109C082E090E06F
:102F70009983888385EF9FEFDF91CF91089581E05A
:102F800090E00E94A30981E090E09983888390E01B
:102F900080E0F2CF10DF10927E0210927D02089541
:102FA00042E050E063EA71E00C94C109FF920F9394
:102FB0001F93CF93DF938A01EC01C60FD71FF980CF
:102FC000B4D20897F816190671F068F082E090E024
:102FD000F801918380838EEF9FEFDF91CF911F9156
:102FE0000F91FF9008956C817D818E819F814B812F
:102FF0000E94580C811108C082E090E0F801918392
:10300000808384EF9FEFE9CFF9800E94530C4F2D0E
:1030100050E0BE01685F7F4F0E94782789810E943F
:10302000C20C81E090E0F8019183808390E080E021
:10303000D4CFDF92EF92FF920F931F93CF93DF9342
:103040008A01EC01C60FD71F0E94530C7C01D98066
:103050006CD2DD2059F0029721E030E0D816190635
:1030600019F010F030E020E0232B79F482E090E0BA
:10307000F801918380838EEF9FEFDF91CF911F91B5
:103080000F91FF90EF90DF900895EF2841F482E0D8
:1030900090E0F8019183808384EF9FEFEECFF98079
:1030A0000E94530C4F2D50E0BE016E5F7F4F0E9477
:1030B000782789810E94C20C81E090E0F801918319
:1030C000808390E080E0D9CF80ED97E190938802F3
:1030D00080938702089580918702909188020895D5
:1030E0000895FC0111821082938382830895DB018D
:1030F0001D921C92DC011296ED91FC911397718345
:10310000608313967C936E9312970895FC018081DF
:103110009181DB018D939C93A081B181109741F047
:103120008D919C9191838083892B11F4F383E283A9
:103130000895FC0180819181DB018D939C93892B03
:1031400011F473836283718360830895FC0111829B
:103150001082938382830895CF93DF9300D0CDB7FD
:10316000DEB71A821982F894BE016F5F7F4F8EE836
:1031700092E0CCDF89819A81009709F010D3898190
:103180009A81892B89F7BE016F5F7F4F82E992E0B8
:10319000BDDF89819A81009709F001D389819A81E5
:1031A000892B89F778940F900F90DF91CF91089534
:1031B000CF93DF9300D0CDB7DEB71A821982F8948F
:1031C000BE016F5F7F4F8AE892E0A0DF89819A811C
:1031D000009709F0E4D289819A81892B89F7789444
:1031E0000F900F90DF91CF91089581E0089590E0C6
:1031F00080E00895EF92FF920F931F93CF93DF9398
:1032000000D0CDB7DEB71A8219828091890207EF0C
:103210001FEF8823A1F1F894BE016F5F7F4F82E911
:1032200092E074DF789489819A81EE24E394F12C02
:10323000892B51F4F894BE016F5F7F4F8EE892E0C6
:1032400065DF7894F12CE12C89819A810EEF1FEFD4
:103250000097A9F0FC014281538164E070E06AD6D6
:103260008C01892B61F0F89469817A81C701880FFC
:10327000991F880F991F82579D4F5BDF7894C80173
:103280000F900F90DF91CF911F910F91FF90EF90D2
:1032900008950F931F93CF93DF9300D000D0CDB745
:1032A000DEB71C821B821A8219828091890207EF85
:1032B0001FEF8823C1F0AE014D5F5F4F64E070E007
:1032C000CE010196AAD68C01892B69F4E981FA8195
:1032D0008B819C8193838283F89469817A818AE8C7
:1032E00092E005DF7894C8010F900F900F900F9037
:1032F000DF91CF911F910F910895AED70496089555
:103300008F929F92AF92BF92CF92DF92EF92FF92F5
:103310000F931F93CF93DF9300D0CDB7DEB71A8200
:103320001982BC016F5F7F4F6330710598F0AA244A
:10333000AA94BA2CC5010F900F90DF91CF911F91E5
:103340000F91FF90EF90DF90CF90BF90AF909F9044
:103350008F9008954115510551F3480159018A0193
:103360006C01CBDF8815990511F7E114F104F9F22E
:103370008E0D9F1DA816B906D0F280918902882370
:10338000F1F0F894B501645071099701AE014F5FF7
:103390005F4FC8010496D5D65C01892B71F48981F1
:1033A0009A81F80193838283C601880F991F880F41
:1033B000991FB80182579D4F9ADE7894BBCF87EF53
:1033C000A82EBB24BA94B6CFAF92BF92CF92DF9211
:1033D000EF92FF920F931F93CF93DF9300D0CDB75F
:1033E000DEB71A821982892B09F047C06115710571
:1033F00009F443C04115510509F43FC021153105B9
:1034000009F43BC001151105C1F18091890288239F
:10341000B9F179016A015B01F894BE016F5F7F4FDA
:103420008AE892E073DE789489819A81009759F155
:10343000DC0112966D917C91A80104969BD68C01BB
:10344000E981FA81D501ED93FC9382819381049601
:10345000F6019183808351DFD7018D939C93C8013E
:103460000F900F90DF91CF911F910F91FF90EF90F0
:10347000DF90CF90BF90AF9008950FEF1FEFEFCF89
:1034800007EF1FEFECCF0EEF1FEFE9CFCF93DF93E6
:10349000EC01672B71F4E9D68C179D0760F0DCD640
:1034A0002496C80FD91FDBD68C0F9D1FDF91CF91BB
:1034B0000895D8D6F1CF90E080E0F8CF0F931F9316
:1034C000CF93DF932091890221112BC08B01EC0156
:1034D0008EE892E006DE82E992E003DE8AE892E07E
:1034E00000DE97D00097C1F4C0D670E060E0CEDF78
:1034F0004BE151E062E070E07ED1009769F4809189
:103500001B0190911C01C3D6B801CE01F9D40097DC
:1035100019F421E020938902DF91CF911F910F913F
:10352000089584EF9FEFF8CF9DC69FC6CF93DF939A
:103530009FD6EC01892B11F40FDE3ADECE01DF912C
:10354000CF910895CF93DF9393D6EC01892B09F4A3
:1035500003DECE01DF91CF91089580911B01909100
:103560001C010895CF93DF9380918902D0E0C0E0E1
:103570008823D1F091D6EC01892BB1F4EDDD18DE72
:1035800080911B0190911C01E4D1E5D2EC01892BC3
:1035900059F48EE892E0DADD82E992E0D7DD8AE83C
:1035A00092E0D4DD10928902CE01DF91CF9108958F
:1035B000EF92FF920F931F93CF93DF93EC017A0169
:1035C0008B010F5F1F4F0E9DA0010F9D500D1E9D83
:1035D000500D112470E060E00E94812790E080E0AF
:1035E000F0E0E0E02FEFE816F90639F4DF91CF9133
:1035F0001F910F91FF90EF9008951A8219822883EE
:10360000309711F0D283C1830196FE01C00FD11F04
:10361000EACFCF92DF92EF92FF920F931F93CF9357
:10362000DF930AE613E00C7F43E050E06DE171E0C8
:1036300083E291E012D48DE1E82E81E0F82E93E24E
:10364000C92E91E0D92EC9ECD3E0D7014D915D91FF
:103650007D01F601619171916F01198308835D838A
:103660004C835B834A837F836E839B012F5F3F4F35
:10367000249FC001259F900D349F900D11249987A0
:1036800088870115110511F0C80192DF8885998599
:10369000080F191F2A96F3E2EF16F1E0FF06A9F6CC
:1036A000E8E9F2E08FECDF011D928A95E9F71092CC
:1036B0009702109296021092E8031092E70310927C
:1036C000EC031092EB031092EA031092E9031092BC
:1036D000EE031092ED031092F0031092EF0310929C
:1036E000F2031092F1031092F6031092F503109278
:1036F000F4031092F3031092F8031092F703109260
:10370000FA031092F9031092C6031092C5031092A7
:10371000C8031092C70390E080E0DF91CF911F9122
:103720000F91FF90EF90DF90CF9008950097F1F008
:10373000F894A3E2B1E0E9ECF3E030E020E04D9151
:103740005D9148175907A8F04281538141155105F1
:1037500081F08AE0829FF001839FF00D1124E753EE
:10376000FC4F80819181009759F4789490E080E03B
:1037700008952F5F3F4F3A962330310501F7F5CF7B
:10378000DC0111966D917C917183608341505109E8
:1037900053834283FC012193CF01789408950097CD
:1037A00049F1DC018E91853041F4E091C703F0913D
:1037B000C8033097F9F0CD0109948530D8F4282F4B
:1037C00030E0F8948FEF8C938AE0829FF001839F22
:1037D000F00D1124E753FC4F8081918112969C9348
:1037E0008E931197B183A0838281938101969383F5
:1037F000828378940895CF92DF92EF92FF920F9395
:103800001F93CF93DF939C018BE992E08C7F41154E
:10381000510509F49BC02115310509F497C06115C4
:10382000710509F493C07A01AB01B9016D5F7F4F57
:103830006C7F9B012F5F3F4F249F8001259F100DC0
:10384000349F100D1124F8942091E7033091E80380
:10385000232B59F42091EF033091F003211531050A
:1038600069F12017310708F058C02091F103309119
:10387000F203232B91F42091EF033091F003820F98
:10388000931F2091F9033091FA032115310509F4B2
:1038900041C02017310708F056C07894CFEFDFEF12
:1038A00086EF9FEFF701D183C083DF91CF911F9106
:1038B0000F91FF90EF90DF90CF900895C3E0D0E09C
:1038C000C0909602D09097022CEC30E02C193D0964
:1038D0002017310710F32AE02C9FF0012D9FF00DE7
:1038E0001124E753FC4F9183808355834483538392
:1038F00042837783668311870087009709F058DE3B
:103900000C0D1D1D1093970200939602789490E081
:1039100080E0C8CFC4E0D0E0D3CFC3E0D0E02AE05D
:103920002C9FF0012D9FF00D1124E753FC4F918344
:1039300080835583448353834283778366830097D0
:1039400029F336DEE3CFC4E0D0E0E9CF8FEF9FEF7D
:10395000ACCF9C010397029708F069C0F89484E00B
:103960009AE0482F50E0241735070CF44DC091E041
:103970008AE0829FF001839FF00D1124E753FC4FF2
:10398000118210821582148213821282178216828B
:103990009923B1F18091E7039091E803892BA9F471
:1039A0002091EF033091F0032115310571F08091E2
:1039B000960290919702821B930B909397028093AB
:1039C00096021092F0031092EF038091F103909110
:1039D000F203892BA9F42091F9033091FA03211500
:1039E000310571F08091960290919702821B930BA2
:1039F00090939702809396021092FA031092F90323
:103A0000789490E080E00895949FF001959FF00DE8
:103A10001124E753FC4F40815181452B31F44085FF
:103A20005185452B11F481509CCF90E0A1CF8FEFB1
:103A30009FEF08954115510549F1009739F161153E
:103A4000710521F1F8942091C5033091C603232B11
:103A5000B9F42091C7033091C803232B89F49093C4
:103A6000C6038093C5037093C8036093C70378941B
:103A700025E030E090E080E0FA0131832083089572
:103A800078942FEF3FEF86EF9FEFF6CF8FEF9FEF0A
:103A90000895059769F4F8941092C6031092C5032F
:103AA0001092C8031092C703789490E080E00895C4
:103AB0008FEF9FEF08956115710519F4F0E0E0E0D4
:103AC00011C08530910581F4E091C503F091C603E2
:103AD0003097A1F3CB0101960995009779F3FC018A
:103AE00085E08193CF0108959C0123503109223054
:103AF000310520F72AE0289FD001299FB00D11241D
:103B0000A753BC4F2D913C911197232BB9F21696D8
:103B10002D913C9117972617370780F2F89412964B
:103B20002D913C9113972115310529F0ED91FC91D0
:103B30001197309711F47894C1CF41815281119639
:103B40005C934E932150310913963C932E93129718
:103B500081937894C7CFE7E6F3E08EE5DF011D920D
:103B60008A95E9F7E8E9F2E08FECDF011D928A958A
:103B7000E9F71092970210929602E9ECF3E082E3E3
:103B8000DF011D928A95E9F7E5ECF3E084E0DF01BF
:103B90001D928A95E9F790E080E00895CF93DF9336
:103BA000C0912901D0912A01CF3FDC0759F406D4F6
:103BB00090932A018093290197FF09C0D0932A018D
:103BC000C093290184EF9FEFDF91CF91089590E09A
:103BD00080E0FACF8230910528F48093FB0390E0D7
:103BE00080E008958FEF9FEF08954F925F926F925C
:103BF0007F92AF92BF92CF92DF92EF92FF920F939C
:103C00001F93CF93DF9300D0CDB7DEB71A8219820E
:103C1000009709F478C06115710509F474C020910A
:103C2000290130912A0107EF1FEF2F3F3F4F09F481
:103C300044C06B015C01412C512C3201F12CE12C70
:103C400010E000E09E012F5F3F4FA6014E195F0973
:103C5000B5016E0D7F1D8091290190912A010DD42F
:103C6000892B09F04AC089819A81009741F4E114B7
:103C7000F10429F42091FB03222309F441C0E80E4A
:103C8000F91EEC14FD04C8F480E8481684E85806D0
:103C90008EE16806710418F560E070E0CB0143D650
:103CA0002AE0420E511C611C711C0A3F4FEF1407A1
:103CB00021F0043F8FEF1807A1F4C8010F900F9077
:103CC000DF91CF911F910F91FF90EF90DF90CF90F8
:103CD000BF90AF907F906F905F904F90089501EFED
:103CE0001FEF81E090E0013F2FEF120711F090E00D
:103CF00080E0892B09F4A6CFE0CF04EF1FEFDDCFE2
:103D00000AEF1FEFDACF0FEF1FEFD7CF4F925F927F
:103D10006F927F92AF92BF92CF92DF92EF92FF921B
:103D20000F931F93CF93DF9300D0CDB7DEB71A82E6
:103D30001982009709F478C06115710509F474C0FF
:103D40002091290130912A0107EF1FEF2F3F3F4FAC
:103D500009F444C06B015C01412C512C3201F12C5F
:103D6000E12C10E000E09E012F5F3F4FA6014E19AD
:103D70005F09B5016E0D7F1D8091290190912A0187
:103D800032D3892B09F04AC089819A81009741F486
:103D9000E114F10429F42091FB03222309F441C02A
:103DA000E80EF91EEC14FD04C8F480E8481686E914
:103DB000580688E96806710418F560E070E0CB01E8
:103DC000B2D52AE0420E511C611C711C0E3F4FEF10
:103DD000140721F0043F8FEF1807A1F4C8010F90DA
:103DE0000F90DF91CF911F910F91FF90EF90DF9097
:103DF000CF90BF90AF907F906F905F904F9008955D
:103E000002EF1FEF81E090E0023F2FEF120711F069
:103E100090E080E0892B09F4A6CFE0CF04EF1FEFFC
:103E2000DDCF0EEF1FEFDACF0FEF1FEFD7CF80916F
:103E3000290190912A018F3F980749F0B7D2892B29
:103E400049F48FEF9FEF90932A018093290190E02E
:103E500080E0089584EF9FEF0895CF92DF92EF9274
:103E6000FF920F931F93CF93DF9321E041155105EC
:103E700009F020E04150510921112CC0DC01FB0167
:103E8000D12CC12C21E022C03FEFC31AD30A7D01FF
:103E90000D911D91E701EA80FB80E016F106A8F480
:103EA00020813181E280F380F182E08233832283BA
:103EB000ED90FC9011979D0122503109E901F982A2
:103EC000E88211961C930E9320E03296C416D50614
:103ED000D8F2D2CFDF91CF911F910F91FF90EF9049
:103EE000DF90CF900895FC01680F791F90E080E08B
:103EF000E617F70709F408952191820F911DF8CF75
:103F00002091FC03211113C049DE009791F4109217
:103F1000020410920104109200041092FF03109208
:103F2000FE031092FD0321E02093FC03089584EF2B
:103F30009FEF0895AF92BF92CF92DF92EF92FF92E0
:103F40000F931F93CF93DF93009709F460C046301F
:103F5000510508F45CC02091FC03C7EFDFEF22237A
:103F600009F449C08C01060F171FF801C080D180E9
:103F7000C114D10409F44EC096012A5F3F4F421785
:103F8000530708F447C07C0180910104909102041A
:103F900093838283B6016C5F7F4F5801A60EB71ED4
:103FA000C801A1DFF5019183808364E070E0C8015E
:103FB0001CDEEC01892BF9F481E090E00BDEB60108
:103FC000C801049612DEEC01892B91F462E070E0E6
:103FD000C5010BDEEC01892B59F4C701E0DB8091B0
:103FE00001049091020401969093020480930104CD
:103FF00090E080E0EFDDCE01DF91CF911F910F9136
:10400000FF90EF90DF90CF90BF90AF900895CFEFEB
:10401000DFEFF1CFC9EFDFEFEECF6F927F928F929C
:104020009F92AF92BF92CF92DF92EF92FF920F9347
:104030001F93CF93DF9300D000D0CDB7DEB70097AA
:1040400009F479C04115510509F475C02091FC03AC
:1040500007EF1FEF222309F44CC03A017B015C01FA
:1040600064E070E0CE01019651DE8C01892B09F0ED
:1040700040C009811A810115110509F459C0480190
:1040800086E0880E911CB701680D791D80912B0187
:1040900090912C0110DD6C01009709F44FC0A7012D
:1040A00070E060E02ED789819A81AB81BC81EC0CF5
:1040B000FD1CF70181939193A193B1937F0181E05E
:1040C00090E088DDB801C70121DE892B31F562E07F
:1040D00070E0C701800F911F19DE8C01892BE9F474
:1040E00090E080E077DDF501D182C082F30191821A
:1040F0008082C8010F900F900F900F90DF91CF91A9
:104100001F910F91FF90EF90DF90CF90BF90AF90F5
:104110009F908F907F906F90089590E080E05ADD9F
:10412000F50111821082F30111821082C60137DB82
:1041300009EF1FEFDECF0FEF1FEFDBCF06EF1FEF13
:10414000D8CF0097A1F04115510589F0211531050F
:1041500071F0F90136966E177F0748F0DC012D9358
:104160003C93DA01ED93FC9390E080E008958FEFAB
:104170009FEF0895AF92BF92CF92DF92EF92FF929E
:104180000F931F93CF93DF93009709F45FC04115FE
:10419000510509F45BC06530710508F457C02091E2
:1041A000FC03C7EFDFEF222391F1DC01CD90DC901F
:1041B00011971296ED91FC9196012A5F3F4FC9EF3E
:1041C000DFEF2617370719F5C091FD03D091FE03E5
:1041D000209749F521E030E03093FE032093FD0362
:1041E0007A018C01F0930004E093FF035601B4E0E0
:1041F000AB0EB11CB50177DE0A0D1B1DF801208145
:1042000031818217930729F5D701CD92DC92CE0137
:10421000DF91CF911F910F91FF90EF90DF90CF90A2
:10422000BF90AF9008952091FF03309100042F5F5D
:104230003F4FCCEFDFEFE217F30790F2CBEFDFEF6A
:104240002E173F0768F2D0E0C0E0CACFCFEFDFEF14
:10425000DECFC3EFDFEFDBCF84E090E0089582E0B4
:1042600090E008958CEF9FEF089580E290E008952C
:104270001092020410920104109200041092FF03A5
:104280001092FE031092FD0390E080E00895909359
:104290002C0180932B0108958091FC03882391F0D9
:1042A000C6DD009789F41092020410920104109266
:1042B00000041092FF031092FE031092FD0310926F
:1042C000FC03089590E080E00895009749F061159F
:1042D000710531F0FC0111821082FB011182108204
:1042E0000895F3CF26E030E040E855E260E070E06A
:1042F00090E080E000C0892B19F480E194E0A5C42F
:1043000008951F920F920FB60F9211242F933F938F
:104310004F935F936F937F938F939F93AF93BF93CD
:10432000EF93FF938FE89DEF909385008093840037
:10433000B7D0FF91EF91BF91AF919F918F917F91F6
:104340006F915F914F913F912F910F900FBE0F9002
:104350001F9018958FE89DEF9093850080938400BF
:10436000AFE6B0E08C918E7F8C93E0E8F0E0808146
:104370008C7F8083E1E8F0E08081877E808380818C
:104380008460808380818C7F80838C9181608C931A
:104390000895EFE6F0E0808190819E7F90838170A8
:1043A000089581E0089510920304089568EE73E083
:1043B00080E090E0B8D290E080E0089526E030E020
:1043C00040E052EC61E070E090E080E094DF80E15A
:1043D00094E071D3892B21F080E194E086D3F7CF6C
:1043E00090E080E00895CF92DF92EF92FF920F93DA
:1043F0001F93CF93DF936B017A01E9011982188231
:1044000080E194E058D3892B69F18601CC24C394D0
:1044100082E0D82E80910304811110C080E194E0E5
:1044200064D30297B9F7C0920304F801D1928F01C7
:1044300088819981019699838883ECCF88819981BD
:104440008E159F0578F480E194E04FD38F3F980755
:10445000A9F3F80181938F0188819981019699834D
:104460008883ECCF90E080E0DF91CF911F910F9196
:10447000FF90EF90DF90CF9008950F931F93CF930D
:10448000DF93EA01890180E194E0C3D4F801D1838C
:10449000C08390E080E0DF91CF911F910F9108954C
:1044A000CF92DF92EF92FF928091040491E0980FF7
:1044B00090930404882369F021E030E030930604EF
:1044C0002093050480930404FF90EF90DF90CF9039
:1044D00008957894E0912F01F0913001C28CD38C33
:1044E000E48CF58C0E948702B701A60190E080E081
:1044F0000E94FA01F894809104048150E3CF0F9355
:104500001F93CF93DF931092BE041092BD0441D24B
:10451000E9DEC0912F01D0913001198218826FEF2E
:104520007FEFCB010E947C0270E060E090E080E0D1
:104530000E94FF00009709F03AC00E94E602F8943A
:104540007894BE016E5D7F4F8A819B810E9402013B
:10455000892B59F46FEF7FEFCB010E9491010E94EC
:104560007602882311F081E08EA3F894F3DE0E9496
:104570007902882311F080E008C00E947602811140
:10458000FACF81E09EA19111F6CF8093BD0478947B
:104590000E949E098C0178948091BD0481110CC009
:1045A0000E945E030E945C02F89490E080E0DF913C
:1045B000CF911F910F9108950E945A020E94790293
:1045C0008823D9F081E08093BE049091BE0481E0FD
:1045D000911180E08093BD048091BE048111D9DEE9
:1045E0000130110529F40E949E09892B09F4DBDEB4
:1045F0000E949E098C01D5DECFCF0E9476028111E8
:10460000E1CF81E09EA19111DECF80E0DCCF40D0F0
:1046100008F481E00895E89409C097FB3EF4909572
:104620008095709561957F4F8F4F9F4F9923A9F08B
:10463000F92F96E9BB279395F6958795779567951A
:10464000B795F111F8CFFAF4BB0F11F460FF1BC05E
:104650006F5F7F4F8F4F9F4F16C0882311F096E9F1
:1046600011C0772321F09EE8872F762F05C066239F
:1046700071F096E8862F70E060E02AF09A95660F58
:10468000771F881FDAF7880F9695879597F9089511
:10469000990F0008550FAA0BE0E8FEEF1616170653
:1046A000E807F907C0F012161306E407F50798F0BB
:1046B000621B730B840B950B39F40A2661F0232BD4
:1046C000242B252B21F408950A2609F4A140A69550
:1046D0008FEF811D811D0895DBDF08F48FEF0895B2
:1046E0000BD078C069D028F06ED018F0952309F06F
:1046F0005AC05FC01124A2C07ED0A0F3959FD1F311
:10470000950F50E0551F629FF001729FBB27F00D7F
:10471000B11D639FAA27F00DB11DAA1F649F6627D4
:10472000B00DA11D661F829F2227B00DA11D621F23
:10473000739FB00DA11D621F839FA00D611D221FDD
:10474000749F3327A00D611D231F849F600D211DC1
:10475000822F762F6A2F11249F5750408AF0E1F064
:1047600088234AF0EE0FFF1FBB1F661F771F881FAD
:1047700091505040A9F79E3F510570F014C05EC0A3
:104780005F3FECF3983EDCF3869577956795B79598
:10479000F795E7959F5FC1F7FE2B880F911D9695C2
:1047A000879597F9089597F99F6780E870E060E032
:1047B00008959FEF80EC089500240A9416161706BA
:1047C00018060906089500240A9412161306140602
:1047D00005060895092E0394000C11F4882352F065
:1047E000BB0F40F4BF2B11F460FF04C06F5F7F4F1D
:1047F0008F4F9F4F089557FD9058440F551F59F004
:104800005F3F71F04795880F97FB991F61F09F3FBD
:1048100079F087950895121613061406551FF2CFE6
:104820004695F1DF08C0161617061806991FF1CF36
:1048300086957105610508940895E894BB2766275D
:104840007727CB0197F908951F920F920FB60F9219
:1048500011242F933F938F939F93AF93BF93809196
:10486000080490910904A0910A04B0910B043091BE
:10487000070423E0230F2D3758F50196A11DB11D24
:10488000209307048093080490930904A0930A04DA
:10489000B0930B0480910C0490910D04A0910E0430
:1048A000B0910F040196A11DB11D80930C0490934B
:1048B0000D04A0930E04B0930F04BF91AF919F918C
:1048C0008F913F912F910F900FBE0F901F901895D1
:1048D00026E8230F0296A11DB11DD2CF3FB7F89451
:1048E00080910C0490910D04A0910E04B0910F04DE
:1048F00026B5A89B05C02F3F19F00196A11DB11D3B
:104900003FBFBA2FA92F982F8827BC01CD01620F76
:10491000711D811D911D42E0660F771F881F991F31
:104920004A95D1F708958F929F92AF92BF92CF92FE
:10493000DF92EF92FF926B017C01D0DF4B015C01B3
:10494000C114D104E104F104D9F090D2C7DF681991
:1049500079098A099B09683E73408105910580F3B6
:1049600021E0C21AD108E108F10888EE880E83E040
:10497000981EA11CB11CC114D104E104F10431F74B
:10498000FF90EF90DF90CF90BF90AF909F908F906F
:104990000895789484B5826084BD84B5816084BDB7
:1049A00085B5826085BD85B5816085BDEEE6F0E0A8
:1049B000808181608083E1E8F0E010828081826004
:1049C0008083808181608083E0E8F0E08081816085
:1049D0008083E1EBF0E0808184608083E0EBF0E0B5
:1049E000808181608083EAE7F0E080818460808359
:1049F0008081826080838081816080838081806803
:104A000080831092C10008958E3008F08E5020915E
:104A10002D0190E4299F900111248770822B8093AF
:104A20007C0080917A00806480937A0080917A0083
:104A300086FDFCCF80917800909179000895CF9306
:104A4000DF9390E0FC01E859FF4F249184589F4F79
:104A5000FC0184918823C9F090E0880F991FFC0124
:104A6000E656FF4FA591B491FC01E057FF4FC59169
:104A7000D49161110DC09FB7F8948C912095822339
:104A80008C938881282328839FBFDF91CF9108953D
:104A9000623051F49FB7F8943C91822F8095832324
:104AA0008C93E8812E2BEFCF8FB7F894EC912E2BBF
:104AB0002C938FBFEACFFC01918D228D892F90E03E
:104AC000805C9F4F821B91098F7399270895FC0189
:104AD000918D828D981731F0828DE80FF11D858DB3
:104AE00090E008958FEF9FEF0895FC01918D828DE6
:104AF000981761F0A28DAE0FBF2FB11D5D968C91FE
:104B0000928D9F5F9F73928F90E008958FEF9FEF3C
:104B10000895FC01538D448D252F30E0842F90E0C3
:104B2000821B930B541710F0CF96089501970895A8
:104B3000FC01A48DA80FB92FB11DA35ABF4F2C9112
:104B4000848D90E001968F739927848FA689B78909
:104B50002C93A089B1898C91837080648C93938D00
:104B6000848D981306C00288F389E02D80818F7DA3
:104B700080830895CF93DF93EC01888D8823B1F073
:104B8000AA89BB89E889F9898C9185FD03C0808158
:104B900086FD0CC00FB607FCF7CF8C9185FFF2CFD6
:104BA000808185FFEDCFCE01C3DFEACFDF91CF91CA
:104BB0000895EF92FF920F931F93CF93DF93EC0131
:104BC00081E0888F9B8D8C8D98131AC0E889F989B4
:104BD000808185FF15C09FB7F894EE89FF896083B7
:104BE000E889F98980818370806480839FBF81E038
:104BF00090E0DF91CF911F910F91FF90EF9008957A
:104C0000F62E0B8D10E00F5F1F4F0F731127E02E54
:104C10008C8D8E110BC00FB607FCFACFE889F9898D
:104C2000808185FFF5CFCE0183DFF2CFEB8DEC0FD6
:104C3000FD2FF11DE35AFF4FF0829FB7F8940B8FC1
:104C4000EA89FB8980818062D0CFCF92DF92EF9298
:104C5000FF921F93CF93DF93EC016A017B01122F28
:104C6000E889F98982E08083C11481EED806E104E5
:104C7000F10499F060E079E08DE390E0A7019601FE
:104C8000F6D021503109410951095695479537957C
:104C90002795211580E1380790F0E889F98910827D
:104CA00060E874E88EE190E0A7019601E0D0215021
:104CB0003109410951095695479537952795EC8556
:104CC000FD853083EE85FF852083188EEC89FD8974
:104CD0001083EA89FB89808180618083EA89FB896E
:104CE000808188608083EA89FB89808180688083F5
:104CF000EA89FB8980818F7D8083DF91CF911F912D
:104D0000FF90EF90DF90CF9008951F920F920FB613
:104D10000F9211242F938F939F93EF93FF93E09122
:104D20002004F09121048081E0912604F091270471
:104D300082FD1BC09081809129048F5F8F73209129
:104D40002A04821741F0E0912904F0E0E05FFB4F74
:104D5000958F80932904FF91EF919F918F912F91CF
:104D60000F900FBE0F901F9018958081F4CF1F9267
:104D70000F920FB60F9211242F933F934F935F938F
:104D80006F937F938F939F93AF93BF93EF93FF9313
:104D900080E194E0CDDEFF91EF91BF91AF919F91C3
:104DA0008F917F916F915F914F913F912F910F90D4
:104DB0000FBE0F901F901895E0E1F4E0138212826D
:104DC00088EE93E0A0E0B0E084839583A683B78368
:104DD00083EB91E09183808385EC90E095878487D5
:104DE00084EC90E09787868780EC90E0918B808BB5
:104DF00081EC90E0938B828B82EC90E0958B848B9E
:104E000086EC90E0978B868B118E128E138E148E0B
:104E10000895AF92BF92CF92DF92EF92FF920F93DD
:104E20001F93CF93DF936C017B018B01040F151F40
:104E3000EB015E01AE18BF08C017D10759F06991A8
:104E4000D601ED91FC910190F081E02DC60109950C
:104E5000892B79F7C501DF91CF911F910F91FF90B9
:104E6000EF90DF90CF90BF90AF9008950895A1E2AA
:104E70001A2EAA1BBB1BFD010DC0AA1FBB1FEE1FD4
:104E8000FF1FA217B307E407F50720F0A21BB30B1F
:104E9000E40BF50B661F771F881F991F1A9469F79B
:104EA00060957095809590959B01AC01BD01CF01F7
:104EB0000895EE0FFF1F0590F491E02D099409D09D
:104EC000A59F900DB49F900DA49F800D911D11245E
:104ED0000895A29FB001B39FC001A39F700D811DD3
:104EE0001124911DB29F700D811D1124911D0895F3
:104EF000FB01DC0102C001900D9241505040D8F7F7
:104F00000895DC0101C06D9341505040E0F70895D1
:044F1000F894FFCF43
:104F14000AD7233CFEFFFFFF01E8030000FFFF0068
:104F2400000000FFFFFFFFFFFFFFFFFFFF01000185
:104F3400000100200030000800FFFFFFFF0101DF37
:104F440001FF00F50B210CFE00DB0B5C09FD006D7D
:104F54000BC70BFC00B30B5C09F600A40C5C09F551
:104F6400007A0BE30CF4006D0CFA0CDE002611BF82
:104F740013DD0095125C09DA00AE0EB60ED900DA24
:104F840013C60EE200960D5C09E100D10D5C09E048
:104F940000460E5C09D600B0175C09D50053105CBE
:104FA40009D400DF0F5C09D300500F5C09C000D5A1
:104FB4000E5C09F00019185C09ED00D6175C0900B5
:104FC400000000D92509278925BA255B25752567A1
:024FD4002500B6
:00000001FF
