:1000000061C0000087C0000085C0000083C0000000
:1000100081C000007FC000007DC000007BC00000E8
:1000200079C0000077C0000075C0000073C00000F8
:1000300071C000000C9428206DC000006BC000004F
:100040000C94CB2267C000000C948F250C94C12522
:1000500061C000005FC000005DC000005BC0000028
:1000600059C0000057C00000000000080002010055
:100070000003040700000000000000000102040863
:100080001020408001020408102001020408102002
:10009000040404040404040402020202020203032E
:1000A00003030303000000002300260029000000D2
:1000B0000000250028002B0000000000240027007D
:1000C0002A00E62511241FBECFEFD8E0DEBFCDBF4A
:1000D00011E0A0E0B1E0E6E4FDE402C005900D927D
:1000E000AC3BB107D9F724E0ACEBB1E001C01D9205
:1000F000A730B207E1F710E0C2E6D0E004C02197D4
:10010000FE010E947226C136D107C9F70E9426213E
:100110000C94A12675CF611102C00C94D4236130D8
:10012000E1F362E0FACF662319F061E00C94102449
:1001300060E0FCCF0E943D2421E0019709F020E01F
:10014000822F089590E080E008950F931F93009709
:1001500009F487C06115710509F483C000910C0191
:1001600010910D0120910E0130910F010E3F1F4F94
:100170002F4F3F4F09F066C04FEF5FEFBA0140933A
:100180000C0150930D0160930E0170930F0140918B
:100190000C0150910D0160910E0170910F01DC0175
:1001A0001296ED91FC9180819181A281B38180931F
:1001B0002C0290932D02A0932E02B0932F028481E3
:1001C0009581A681B7818093280290932902A093FC
:1001D0002A02B0932B0280859185A285B3858093F6
:1001E000240290932502A0932602B09327028485CF
:1001F0009585A685B7858093200290932102A093D0
:100200002202B093230210921C0210921D0210923F
:100210001E0210921F028CD48DEB95E09093BD01CD
:100220008093BC019093BF018093BE0170D300976F
:1002300031F421E030E030933102209330021F91FD
:100240000F91089500910C0110910D0120910E0164
:1002500030910F01DB010D931D932D933C93139768
:1002600096CF8FEF9FEFEBCF8F929F92AF92BF927F
:10027000CF92DF92EF92FF921F93CF93DF934B01C8
:100280005C011091330282E090E090933102809300
:10029000300281149104A104B10441F4809133022D
:1002A000811104C080913202C1E08111C0E0C12CF3
:1002B000D12C760180913302811106C080913202E7
:1002C000811102C0CC23D1F083E090E09093310201
:1002D00080933002CC2371F1CCE9DFEF111101C022
:1002E000B0D7CE01DF91CF911F91FF90EF90DF90BB
:1002F000CF90BF90AF909F908F9008956AE070E08C
:1003000080E090E00E943A2380E1C80E87E2D81E88
:10031000E11CF11C8FEF88169806A806B80631F08C
:10032000C1E08C149D04AE04BF0408F0C0E080E07E
:1003300022D3C0CFD0E0C0E0D1CFCF92DF92EF92F6
:10034000FF920F931F93CF93DF938F3F910511F08F
:1003500008F050C020913002309131022330310535
:1003600039F020913002309131022130310531F4E1
:1003700024E030E030933102209330026A017B01A7
:10038000EC0182309105A0F011E0AE01C701B60189
:10039000BDD2AB01BC01CE011123F9F0DF91CF91A9
:1003A0001F910F91FF90EF90DF90CF900C944A0B2C
:1003B0008C01000F111F04541E4FD8018D919C9188
:1003C000892B11F30E94540B0297F1F6D801ED919D
:1003D000FC91CE010995182FD8CF0E946C0B90E0AC
:1003E00080E0DF91CF911F910F91FF90EF90DF9010
:1003F000CF9008958FEF9FEFF4CF80E0BCC2CF93F2
:10040000DF9386E090E090933102809330020CD32A
:10041000EC01ECEBF1E084E0DF011D928A95E9F755
:10042000A8D61092310210923002CE01DF91CF9106
:10043000089580913202089580911B02089560937F
:100440000C0170930D0180930E0190930F0190E0C9
:1004500080E00895CF92DF92EF92FF92CF93C09009
:100460000001D0900101E0900201F0900301A7018A
:1004700096016091E1037091E2038091E303909112
:10048000E4030E94AE21882341F0C092E103D092A0
:10049000E203E092E303F092E40388E04BDE682F8E
:1004A00070E090E080E00E94B4216B017C01C1E02B
:1004B000AC019B01609104017091050180910601DE
:1004C000909107010E94AE218111C0E06C2F87E05E
:1004D0002ADE6C2F84E027DEC1E0A701960160913F
:1004E00008017091090180910A0190910B010E940D
:1004F000AE218111C0E06C2F86E015DE6C2F85E007
:1005000012DE6091F2017091F3018091F4019091FB
:10051000F5016F5F7F4F8F4F9F4F6093F201709394
:10052000F3018093F4019093F5010E94B2219B01A5
:10053000AC016091F6017091F7018091F801909102
:10054000F9010E9417226093EE017093EF018093EE
:10055000F0019093F101CF91FF90EF90DF90CF9059
:100560000895CF92DF92EF92FF921F93CF93DF9384
:10057000E8EDF1E080E090E0A0E8BFEB82A393A378
:10058000A4A3B5A38DEC9CECACECBDE3868F978F58
:10059000A0A3B1A386E596EFA9E4B3EC8483958389
:1005A000A683B78385E093E2A1E0B9E480879187D1
:1005B000A287B38789E796E3ABEEBEE4848795878D
:1005C000A687B78787E99EEBACE3B4E5808B918B78
:1005D000A28BB38BACECB1E0B383A283E0ECF1E08F
:1005E0001196FC93EE9389E291E09183808393834B
:1005F000828395838483978386839187808793877B
:1006000082878CEE91E015969C938E9314978CEDD7
:1006100091E013969C938E9312978EEE91E017962D
:100620009C938E931697C9EDD3E0188280910001B8
:1006300090910101A0910201B091030188879987EF
:10064000AA87BB87C12CD12C7601C394C982DA82D8
:10065000EB82FC8260E088E05EDD11E01D831CA27D
:10066000CDA2DEA2EFA2F8A661E087E054DD19A7D3
:100670001C86CD86DE86EF86F88A61E084E04BDD5D
:10068000198B1C8ECD8EDE8EEF8EF8A261E086E097
:1006900042DD19A31C8ACD8ADE8AEF8AF88E61E0DA
:1006A00085E039DD198FDF91CF911F91FF90EF9099
:1006B000DF90CF9008958091D903811103C081E02C
:1006C0008093D9038091FD03811103C081E0809361
:1006D000FD038091E503811103C081E08093E50370
:1006E0008091F503811103C081E08093F50380912F
:1006F000ED03811103C081E08093ED0308954F92D3
:100700005F926F927F928F929F92AF92BF92CF92A1
:10071000DF92EF92FF920F931F93F89440900B0299
:1007200050900C0260900D0270900E02C090FF017C
:10073000D0900002E0900102F0900202452B09F0F7
:10074000A6C09B01AC0124193509460957092901A6
:100750003A0100910702109108022091090230919C
:100760000A0248015901840C951CA61CB71C80166E
:100770009106A206B306A0F40091030210910402B0
:1007800020910502309106020F5F1F4F2F4F3F4F00
:100790000093030210930402209305023093060293
:1007A0008092070290920802A0920902B0920A0277
:1007B000009103021091040220910502309106027B
:1007C00080920F0290921002A0921102B092120237
:1007D0000093130210931402209315023093160213
:1007E00060930B0270930C0280930D0290930E02A3
:1007F000A301920160EA76E881E090E00E94412640
:100800006C0D7D1D8E1D9F1D6093FF017093000276
:10081000809301029093020200910C0110910D014E
:1008200020910E0130910F010F3F1F4F2F4F3F4F6F
:10083000F1F000910C0110910D0120910E01309109
:100840000F010E3F1F4F2F4F3F4F89F0C0900C01FB
:10085000D0900D01E0900E01F0900F0121E08C147A
:100860009D04AE04BF0408F420E020931B0278949A
:100870001F910F91FF90EF90DF90CF90BF90AF90BE
:100880009F908F907F906F905F904F9008954B0155
:100890005C0184189508A608B708A3019201261BDD
:1008A000370B480B590B6415750586059705E0F065
:1008B00082169306A406B50640F420E030E0A901B4
:1008C00081149104A104B104A1F460EA76E881E006
:1008D00090E00E944126A7019601261B370B480B8A
:1008E000590BCA01B901C3CF82169306A406B506F7
:1008F00060F7A501940160EA76E881E090E00E944B
:1009000041266C0D7D1D8E1D9F1DB1CFF8CECF935E
:10091000DF9300D000D0CDB7DEB71C821B821A82D5
:100920001982109217021092180210921902109256
:100930001A02BE016F5F7F4FCE0103960E940C200A
:1009400069817A818B819C810E94621A009761F48F
:10095000BE016F5F7F4FCE0103960E941820698110
:100960007A818B819C812CD50F900F900F900F90E6
:10097000DF91CF910895FF920F931F93CF93DF9351
:10098000082F60E070E0CB010E943A23FF24F3942B
:100990000E944D19EC01892B89F010E0CE3F8FEFBA
:1009A000D80769F0002361F160E070E0CB010E949C
:1009B0003A2381E090E0892B59F322C011E023D53E
:1009C000EC01892B21F0CE3F8FEFD80759F7111199
:1009D0001EC011E0229609F410E00E94FE18EC01FE
:1009E000892B21F0CE3F8FEFD807E1F6111111C00E
:1009F00011E0CE3F8FEFD80709F410E001110BC0D2
:100A0000CE01DF91CF911F910F91FF90089511E0DA
:100A1000E4CF11E0F3CF60E070E0CB010E943A2315
:100A20001F25812F90E0C7CFCF93DF9380911B02CA
:100A3000882321F060E070E0CB014CD635D6D0E0C1
:100A4000C0E0892B71F06AE070E080E090E00E94E5
:100A50003A2381E090DF28D62196C03D27E0D207D7
:100A600081F727D60E94B61A1092330210923202F2
:100A700010922C0210922D0210922E0210922F0230
:100A8000109228021092290210922A0210922B0230
:100A90001092240210922502109226021092270230
:100AA0001092200210922102109222021092230230
:100AB00010921C0210921D0210921E0210921F0230
:100AC0004EEF5FEF6FEF7FEF40930C0150930D01FE
:100AD00060930E0170930F0110921B02EFE0F2E0A1
:100AE00028E0DF011D922A95E9F710920B0210927F
:100AF0000C0210920D0210920E0210920702109238
:100B000008021092090210920A0210920302109237
:100B1000040210920502109206021092FF01109238
:100B200000021092010210920202DF91CF9108950B
:100B300010923F0210924002109241021092420223
:100B400010923E02809147029091480290933D029C
:100B500080933C0210923B0210923A0210923602AD
:100B60001092370210923802109239021092440209
:100B70001092430290E080E00895CF92DF92EF92CE
:100B8000FF920F931F93CF938C01892B09F055C0CF
:100B9000209147023091480280913C0290913D02A1
:100BA000409147025091480250933D0240933C02CD
:100BB0002817390781F010923B0210923A021092E6
:100BC00036021092370210923802109239021092B7
:100BD000440210924302809147029091480201978B
:100BE00061F58091430290914402892B21F4809118
:100BF0001001811112C0809143029091440201972B
:100C0000E1F48091360290913702A0913802B091C0
:100C100039020197A105B10581F4109236021092B4
:100C2000370210923802109239021092100182E0BD
:100C300090E0909344028093430280914702909108
:100C40004802019709F01CC180915D0290915E02FB
:100C50008017910709F014C18091590290915A02AE
:100C6000A0915B02B0915C02009709F409C1209148
:100C7000580221110DC04091590250915A026091C1
:100C80005B0270915C02452B462B472B09F4F8C0A0
:100C900020914302309144022230310509F0F0C026
:100CA00020913A022111ECC0FC01C080D180E28089
:100CB000F38080913E02882309F4D3C080914A02D8
:100CC00090914B02892B09F4FDC020914A0230918A
:100CD0004B0281E02230310509F080E020914A0288
:100CE00030914B02C1E02130310549F020914A0298
:100CF00030914B02C1E02230310509F0C0E0882379
:100D000009F456C020915402309155024091560288
:100D100050915702C701B6010E94132287FD14C0EB
:100D20002091540230915502409156025091570241
:100D300060913F0270914002809141029091420285
:100D40000E94AE2187FD22C02091540230915502AD
:100D50004091560250915702C701B6010E941322DA
:100D6000181634F5209154023091550240915602E4
:100D70005091570260913F02709140028091410270
:100D8000909142020E94AE21811112C080914C02CA
:100D900090914D02A0914E02B0914F02892B8A2B67
:100DA0008B2B19F481E080933B0281E080933A021F
:100DB000CC2309F456C02091540230915502409141
:100DC000560250915702C701B6010E94AE2187FF1B
:100DD00014C0209154023091550240915602509116
:100DE000570260913F0270914002809141029091C0
:100DF00042020E94132287FF22C0209154023091A8
:100E000055024091560250915702C701B6010E9407
:100E1000AE21811126C0209154023091550240919B
:100E200056025091570260913F02709140028091AA
:100E30004102909142020E941322181694F480916C
:100E40004C0290914D02A0914E02B0914F02892B1D
:100E50008A2B8B2B19F481E080933B0281E08093F5
:100E60003A0281E090913A02911180E080933E0233
:100E7000C0923F02D0924002E0924102F0924202C0
:100E8000012B09F067C18091430290914402892BA4
:100E9000D9F41092490210923A02809110018823ED
:100EA00079F082E090E090934402809343021092A4
:100EB0001001209147023091480281E0232BE9F094
:100EC00080E01BC081E00ACF10921001809149029E
:100ED000882349F010923B02109244021092430280
:100EE00010924902EDCF8091470290914802892BE0
:100EF000E1F080913A0210923A022091430230913F
:100F000044022230310509F45EC088F42115310510
:100F100009F448C02130310509F4F3C010923B02B6
:100F200010923A021092490238C081E0E6CF233095
:100F3000310509F4B1C02430310581F74091360202
:100F40005091370260913802709139024115510574
:100F50006105710561F041505109610971094093C2
:100F600036025093370260933802709339024091F1
:100F70003602509137026091380270913902452B48
:100F8000462B472BD9F4209145023091460221305F
:100F9000310509F046C010923B02109244021092B3
:100FA00043020CC080911001882341F082E090E060
:100FB00090934402809343021092100110923402E5
:100FC00080913B02CEC08823C9F380914C0290915E
:100FD0004D02A0914E02B0914F02181619061A0642
:100FE0001B060CF07DC0809147029091480201974A
:100FF00009F076C080914C0290914D02A0914E0272
:10100000B0914F028093360290933702A09338023A
:10101000B093390283E090E09093440280934302BE
:10102000CDCF409150025091510260915202709187
:101030005302452B462B472BA9F010923B0280917F
:10104000500290915102A0915202B09153028093AC
:10105000360290933702A0933802B093390281E0B0
:1010600090E0DACF882399F08091110190911201DC
:10107000A0911301B091140180933602909337022E
:10108000A0933802B093390284E090E0C5CF10926B
:101090003B0282E090E0C0CF80913602909137020F
:1010A000A0913802B09139020097A105B10559F01D
:1010B0000197A109B1098093360290933702A0935A
:1010C0003802B09339028091360290913702A09194
:1010D0003802B0913902892B8A2B8B2B09F06ECF05
:1010E0008091110190911201A0911301B09114010E
:1010F000892B8A2B8B2B09F44ECF81E080933B0206
:10110000B3CF40913602509137026091380270910E
:101110003902411551056105710561F041505109D0
:101120006109710940933602509337026093380287
:101130007093390240913602509137026091380223
:1011400070913902452B462B472B09F037CF81117F
:10115000C7CF9FCF80913402882309F431CF80918B
:101160003502CF911F910F91FF90EF90DF90CF90BC
:10117000089510923F021092400210924102109284
:10118000420210923E0210924402109243021092C8
:101190003D0210923C0210925E0210925D0210928B
:1011A0003B0210923A0210923602109237021092CD
:1011B00038021092390210923502109234021092C5
:1011C000590210925A0210925B0210925C02109225
:1011D0005802109254021092550210925602109228
:1011E000570288EE93E0A0E0B0E080931101909365
:1011F0001201A0931301B0931401109250021092A7
:101200005102109252021092530210924C0210920C
:101210004D0210924E0210924F0210924B02109209
:101220004A0281E080931001109249021092480214
:1012300010924702109246021092450290E080E020
:1012400008958091470290914802892B19F5809169
:101250001001882351F080914902811106C081E07C
:101260008093350280933402089520914902309191
:10127000100181E090E0332311F090E080E030E055
:1012800082239323892B21F01092350281E0EACF4B
:1012900010923402089582E090E0FA0191838083F5
:1012A0008FEF9FEF0895CF93DF93EA01009711F03E
:1012B0000E94301B1982188290E080E0DF91CF916C
:1012C0000895DB01009719F48FEF8C9308952EEFAA
:1012D0002C930F968F30910508F033C0FC01ED5828
:1012E000F64F0C9472269F099D099B09990997094D
:1012F0009309950991098F098D098A09860982093F
:101300008809A10980E311968C93089589E2FBCFA7
:1013100082E2F9CF11961C92089583E2F4CF81E224
:10132000F2CF81E1F0CF87E2EECF8AE2ECCF80E12D
:10133000EACF84E2E8CF88E2E6CF86E2E4CF81E339
:10134000E2CF80E2E0CF80916B0290916C02089531
:1013500090936C0280936B02089580916A020895C5
:1013600090916A02892B80936A020895982F909534
:1013700080916A02892380936A02089580916902AC
:101380000895809167029091680208956115710532
:1013900059F0FB0130E020E070E060E024173507F1
:1013A00019F06115710511F0CB010895A081B1818B
:1013B000A817B90709F4BF012F5F3F4F3696EECF4C
:1013C00080916D0281111CC062D268D2909360023C
:1013D00080935F020E94E7130E94F91390936402C6
:1013E000809363020E9468180E946F1890936202B3
:1013F0008093610281E080936D0290E080E0089527
:1014000084EF9FEF08958F929F92AF92BF92CF92F9
:10141000DF92EF92FF920F931F93CF93DF93CDB79D
:10142000DEB72A970FB6F894DEBF0FBECDBF1A867F
:10143000198618861F821E821D821C821B821A82B8
:10144000198280916D0207EF1FEF882309F49CC079
:101450008E010D5F1F4F9E012B5F3F4FAE01495F15
:101460005F4FBE01675F7F4F90E080E00E94E81908
:101470008C01009721F00596029708F0DBC02985C2
:101480003A852115310509F402C1ED80FE804B81BA
:101490005C81B701640F751F8F8198858617970748
:1014A00008F4F5C0E20EF31ED7019C91903C09F0C0
:1014B0007FC04230510508F47BC011968C91409159
:1014C0006B0250916C02452B09F49CC0913F08F0CF
:1014D00071C02CE1290F2D3008F48BC02DE2290FAB
:1014E000203108F489C0903C21F48150823008F406
:1014F00083C088E3890F8B3008F481C091E6C92E40
:1015000099E0D92EEBE4F9E06D817E81AE014F5F69
:101510005F4F89859A8509955C01C114D104A1F1B9
:1015200089809A808114910479F18B819C8188153E
:10153000990508F487C010E000E04B815C8170E001
:1015400060E0C7010E949A2601151105E9F449815E
:101550005A8169857A858D819E81680F791FC501C1
:10156000F6010995E980FA800D811E812F81388569
:1015700049855A856FEF7FEF81E090E00E948419E2
:101580008C01892B09F056C0C8012A960FB6F89431
:10159000DEBF0FBECDBFDF91CF911F910F91FF90A6
:1015A000EF90DF90CF90BF90AF909F908F90089575
:1015B00080E085CF30E020E0220F331FF901E15AAF
:1015C000FD4F0190F081E02D309709F497CF892FDE
:1015D00090E00995009709F491CFDC011296ED9106
:1015E000FC9113971496CD90DC90309709F08CCF36
:1015F0001FC021E030E0E0CF22E030E0DDCF23E08B
:1016000030E0DACFD12CC12CE3E5F9E09F3F09F0BF
:101610007BCFE0915F02F0916002309721F4C90125
:1016200004EF1FEF0CC08FEF90E009950097A9F62B
:1016300004EF1FEF89859A85009709F4A5CF0E94D2
:10164000301BA2CF0E94B11A8C0189859A850E9415
:10165000301B70E060E0C4010E944A1A98878F83B3
:101660000E9481199E838D836F8178856115710534
:1016700059F0C8010E94531C9A87898706EF1FEF13
:10168000892B09F058CF59CF08EF1FEF56CF08EF3D
:101690001FEFD0CF20916D02222319F020E00C948F
:1016A000FE1387EF9FEF089580916B0290916C027B
:1016B00008950E9474180E94CE17F5D0EFE5F2E06D
:1016C00088E0DF011D928A95E9F710926D0290E0A3
:1016D00080E008950C942B1621E040E050E0BA0120
:1016E0000C94FE1386E090E0FA019183808390E0F1
:1016F00080E0089547E050E06CE271E047CEDF9271
:10170000EF92FF920F931F93CF93DF938A01EC0127
:10171000C60FD71FE0907102F0907202D9800E942C
:10172000991AD816190678F082E090E0F8019183B2
:1017300080838EEF9FEFDF91CF911F910F91FF90EC
:10174000EF90DF900895EF2841F482E090E0F801F7
:101750009183808384EF9FEFEECF89818093700225
:1017600090E00196F8019183808390E080E0E3CFE0
:10177000CF93DF93EA010E94DC16882321F00E94B8
:10178000A61A0E94DD1682E090E0998388838BEF91
:101790009FEFDF91CF910895CF93DF93EB0186E028
:1017A000FB0111928A95E9F78FEF8883D6DD898353
:1017B000E5DD8A83E6DD9D838C83DF91CF910895FB
:1017C000CF93DF93EA010E94DF16811109C082E006
:1017D00090E09983888385EF9FEFDF91CF91089503
:1017E00090E080E0B5DD81E090E09983888390E02F
:1017F00080E0F3CF0F931F93CF93DF93EA018C0127
:10180000060F171F0E94DF1681110BC082E090E0C7
:101810009983888385EF9FEFDF91CF911F910F917F
:101820000895F8018181823038F082E090E0998358
:1018300088838EEF9FEFF0CF81E090E089DD88E034
:1018400090E09983888390E080E0E6CFCF93DF93A8
:101850000097D1F4EB01FB01329686E0DF011D9287
:101860008A95E9F78FEF888385E089831A820E9441
:10187000991A8B830E94981A9D838C8381E08E83B2
:101880008F83DF91CF910895DF91CF911ACD8AE7B1
:101890009BE090936F0280936E02089580916E0298
:1018A00090916F02089510926F0210926E02089547
:1018B00080917102909172020895411105C06115E5
:1018C00071058105910561F0609371027093720258
:1018D00080937302909374024093750281E008959F
:1018E00080E00895FF920F931F93CF93DF938A01B7
:1018F000EC01C60FD71FF9800E94991AF816190635
:1019000068F082E090E0F801918380838EEF9FEF92
:10191000DF91CF911F910F91FF9008956C817D8190
:101920008E819F814B81C9DF811108C082E090E0E8
:10193000F8019183808384EF9FEFEACF89818093C0
:10194000700290E00196F8019183808390E080E03E
:10195000DFCFCF93DF93EA01FC01E60FF71F64812D
:101960007581868197814381A8DF811109C082E05A
:1019700090E09983888384EF9FEFDF91CF91089562
:1019800081E090E09983888390E080E0F6CFE1E702
:10199000F2E04081518162817381480F511D611DC8
:1019A000711D40835183628373830895CF93C091E7
:1019B00070024C2F50E0609171027091720201969A
:1019C0000E9491268C2FE3DF10927002CF91089530
:1019D000009799F480917102909172022FEFFB01B0
:1019E0002083892B59F02091700230E02F5F3F4F08
:1019F0002417350719F4CB01D9CF63CC089500978C
:101A000099F480917102909172022FEFFB01208373
:101A1000892B59F02091700230E02F5F3F4F24173F
:101A2000350719F4CB01C2CF4CCC089523E1AC01AA
:101A3000249FC001259F900D1124E0917A02F0911E
:101A40007B02E80FF91F238134812250310981E0A4
:101A50002230310508F080E008950F931F93CF9353
:101A6000DF9300917C0210917D02D0E0C0E080E025
:101A70000C171D0749F491E0811190E0892FDF9147
:101A8000CF911F910F9108958111F5CFCE01CEDF37
:101A90002196EECFA0917A02B0917B02109729F1A6
:101AA00020917C0230917D0282179307F0F453E17C
:101AB000589F9001599F300D1124A20FB31FED9133
:101AC000FC911197309789F012968C91681768F401
:101AD0008BE0689FE00DF11D112480819181892B9D
:101AE00021F081E09281491708F080E008959C017F
:101AF00043E1429FC001439F900D1124E0917A027F
:101B0000F0917B02E80FF91F8385823091F481E028
:101B100090E065817681409115015091160164171E
:101B2000750711F490E080E0892B19F081E0232BF8
:101B300009F080E00895EF92FF920F931F93CF93E7
:101B4000DF93EA01FC01E60FF71F02811381E480B5
:101B5000F5804F2D6E2DC8019DDF81110DC082E0F3
:101B600090E0998388838EEF9FEFDF91CF911F9153
:101B70000F91FF90EF900895C80158DF882339F046
:101B800082E090E09983888388EF9FEFEECF1093F7
:101B90001C0100931B01E0921D01F0921E0181E0E7
:101BA00090E09983888390E080E0DFCFCF92DF924E
:101BB000EF92FF920F931F93CF93DF937A01EC0183
:101BC000C60FD71FC0901B01D0901C0100911D01B2
:101BD00010911E01412F602FC6015CDF811110C0E2
:101BE00082E090E0F701918380838AEF9FEFDF919D
:101BF000CF911F910F91FF90EF90DF90CF900895BC
:101C0000C60114DF882341F082E090E0F701918360
:101C1000808388EF9FEFEBCF4C815D816E817F8168
:101C20009A8189818F3F41F082E090E0F7019183B2
:101C300080838EEF9FEFDBCFE3E1EC9D9001ED9D84
:101C4000300D1124E0917A02F0917B02E20FF31F34
:101C50000190F081E02D2BE0029FE00DF11D112499
:101C60000190F081E02D27E0129FE00DF11D11247D
:101C7000808391838B8182834383548365837683BE
:101C80001F5F10931E0181E090E0F7019183808334
:101C900090E080E0ACCFEF92FF920F931F93CF9331
:101CA000DF937A018C01060F171FC0917A02D09141
:101CB0007B02209781F021E030E0F801828193815E
:101CC00040917C0250917D028417950710F030E01E
:101CD00020E0232B71F482E090E0F7019183808370
:101CE0008EEF9FEFDF91CF911F910F91FF90EF90BB
:101CF000089543E1489F9001499F300D1124C20F80
:101D0000D31F94DE882341F082E090E0F7019183B5
:101D1000808388EF9FEFE6CFF8012481358120385A
:101D20003105C8F687818111D6CF4181842F90E09B
:101D30008F7E009741F082E090E0F70191838083ED
:101D400086EF9FEFCFCF4F833E832D832681288759
:101D50001986223010F421E0288721E030E0F701D5
:101D600031832083BFCF88E090E0FA0191838083A4
:101D700090E080E00895FB018FEF808381E1818313
:101D80008FEF9FEF9383828380E890E09583848335
:101D9000168217820895FB018FEF808391E0918373
:101DA00082839383848384E3858381E090E09783B7
:101DB00086830895DF92EF92FF920F931F93CF9344
:101DC000DF93EA01FC01E60FF71F8181813071F09A
:101DD00082E090E0998388838FEF9FEFDF91CF912E
:101DE0001F910F91FF90EF90DF9008958281938172
:101DF000D4802581E680F78000917A0210917B02E1
:101E00000115110539F482E090E0998388838CEF05
:101E10009FEFE4CF40917C0250917D02841795079B
:101E200038F082E090E0998388838EEF9FEFD6CFE1
:101E3000892B39F082E090E09983888386EF9FEFC9
:101E4000CDCF8D2D8D7FB1F72130A1F781E0D1105D
:101E500006C091E0E916F10431F080E004C0E2E050
:101E6000EE16F104D0F3882329F390E080E0DEDD64
:101E7000882339F082E090E09983888388EF9FEF90
:101E8000ADCFF801D38681E08487F686E586108A97
:101E9000178681E090E09983888390E080E09ECF70
:101EA0004CE050E066E571E071CA8F929F92BF925C
:101EB000CF92DF92EF92FF920F931F93CF93DF9316
:101EC000EA01FC01E60FF71F828193810481B5804E
:101ED000E0917A02F0917B02309791F482E090E0F9
:101EE000998388838CEF9FEFDF91CF911F910F91A2
:101EF000FF90EF90DF90CF90BF909F908F900895CC
:101F000020917C0230917D028217930738F082E0A5
:101F100090E0998388838EEF9FEFE6CF23E1289F9F
:101F20006001299FD00C1124EC0DFD1DE080F18093
:101F3000E114F10499F28281081748F78BE0089FB9
:101F400080011124E00EF11EF70180819181892B1F
:101F500029F6BB20E1F2F7E0BF9E40011124C40145
:101F60000E942D1BF70191838083E0917A02F0910A
:101F70007B02EC0DFD1D0190F081E02DE00FF11FC3
:101F800080819181009739F482E090E09983888381
:101F90008DEF9FEFA9CFA40170E060E00E949A2628
:101FA00080917A0290917B02C80ED91EF601808141
:101FB0009181080F191FF801B28281E090E09983A6
:101FC000888390E080E090CFAF92BF92CF92DF9273
:101FD000FF920F931F93CF93DF93EA01FC01E60F6B
:101FE000F71F82819381F48000917A0210917B0225
:101FF0000115110581F482E090E0998388838CEFCC
:102000009FEFDF91CF911F910F91FF90DF90CF90C5
:10201000BF90AF90089520917C0230917D0282178D
:10202000930738F082E090E0998388838EEF9FEFEA
:10203000E8CF2FEF2F0D2C3FA8F723E1289F600159
:10204000299FD00C11240C0D1D1DF8018081918158
:10205000892B89F6FBE0FF9E50011124C5010E94E7
:102060002D1BF80191838083E0917A02F0917B022D
:10207000EC0DFD1D80819181009739F482E090E0A4
:10208000998388838DEF9FEFBCCFA50170E060E05E
:102090000E949A26E0917A02F0917B02EC0DFD1DE0
:1020A000F28281E090E09983888390E080E0A9CF7C
:1020B000CF92DF92EF92FF920F931F93CF93DF9314
:1020C000860F971FFC010281138180917A02909103
:1020D0007B02892B81F082E090E0FA01918380837A
:1020E0008CEF9FEFDF91CF911F910F91FF90EF90B9
:1020F000DF90CF900895C801B0E0A0E00197A1095A
:10210000B1098F3F9F4FA105B10540F082E090E0FB
:10211000FA01918380838EEF9FEFE4CF7A0183E110
:10212000809F6001819FD00C1124C6010E942D1B4D
:10213000EC01009741F482E090E0F7019183808305
:102140008DEF9FEFCFCFA60170E060E00E949A264E
:10215000D0937B02C0937A0210937D0200937C029D
:1021600090E080E02FEF3FEF41E061E070E080170A
:10217000910741F481E090E0F7019183808390E042
:1021800080E0B0CF3A8B298B1B864C877E876D878A
:10219000188A1F8601966396EACFCF92DF92EF925C
:1021A000FF920F931F93CF93DF93EC01D12CC12C9F
:1021B00010E000E0F12CE12C6A8170E006171707AF
:1021C000BCF0660F771FAE014F5E5F4FC7010E94E4
:1021D0005A1B009721F02FEF3FEF3A8B298BDF91AD
:1021E000CF911F910F91FF90EF90DF90CF900895C6
:1021F000E881F981EC0DFD1D438154818D859E851B
:10220000489F9001499F300D589F300D1124C901FE
:1022100001960115110519F44F8144FD049661E002
:1022200070E00E944A1AE816F90608F47C010F5F74
:102230001F4F8BE0C80ED11CBFCFF89420917802BD
:102240003091790281E02115310509F080E0232BDE
:1022500009F0789408952F923F924F925F926F9277
:102260007F928F929F92AF92BF92CF92DF92EF9226
:10227000FF920F931F93CF93DF933C01660E771E5F
:10228000F301828193814C01B12CA12CC0917A027F
:10229000D0917B02209769F021E030E060917C02D0
:1022A00070917D028617970710F030E020E0232B15
:1022B000D1F482E090E0FA01918380838EEF9FEF6A
:1022C000DF91CF911F910F91FF90EF90DF90CF9012
:1022D000BF90AF909F908F907F906F905F904F9046
:1022E0003F902F90089580921F0190922001A0921C
:1022F0002101B092220163E1689F9001699F300D36
:102300001124C20FD31FF3018181833040F082E09A
:1023100090E0FA019183808386EF9FEFD1CF2A016D
:102320002B813C81232BF1F4288139819F8191FFFE
:102330002EC0232B09F46FC020917F029A81422F77
:10234000490F5527551FBA0141E050E0613871052A
:1023500014F050E040E0452B09F45DC02A87920F4D
:1023600090937F028150823008F481C066DF882319
:1023700009F4D8C0F3018181813009F48DC008F4DB
:102380007BC0823009F4C6C090E080E0ADC0232B52
:1023900009F441C020917E029A81E22FE90FFF27C4
:1023A000FF1F41E050E0ED3FF10514F050E040E048
:1023B000452B89F12A87920F90937E02D3CFA0817B
:1023C000B181A20FB31F11966C91060F111D0196DA
:1023D000295F3F4F8417950794F38D859E85089F4D
:1023E0001001099F300C189F300C1124C114D10426
:1023F000D1F48F8184FF17C00E94981AF5E02F0E48
:10240000311C21E08215930508F420E0A701455F07
:102410005F4F21110EC082E090E0F2019183808332
:1024200087EF9FEF4DCF0E94981A2FEF221A320AA2
:10243000E8CF88819981E80EF91EF70114830383A0
:10244000FFEFCF1ADF0A7A018A818C151D0409F08B
:102450000CF48CCFE881F981EE0DFF1D428150E034
:1024600030E020E010E000E090E080E0B3CFF12C1D
:10247000E12CD12CC12CE8CF81E090E09C838B83B0
:10248000ECDA882309F480CF81E090E00E94A8096B
:1024900080E40E94B60978CF89899A89019661F013
:1024A00083E090E09C838B8382E090E00E94A80907
:1024B00080E40E94B00968CF8D819E812091150132
:1024C0003091160182179307D1F460911901709130
:1024D0001A01AE014F5E5F4F809117019091180174
:1024E0000E94121C0097E1F2789422E030E0F201A1
:1024F00031832083892B99F08DEF9FEFE1CE8928DE
:102500008A288B2869F6892B59F6CE0146DE188A6F
:102510001F86E8CF82E090E09C838B8335CF90E0EC
:1025200080E0CECE82E090E0F2019183808385EF5F
:102530009FEFC6CE8F929F92AF92BF92CF92DF92C3
:10254000EF92FF920F931F93CF93DF93EA018C01D9
:10255000060F171FF8018181833098F082E090E028
:102560009983888386EF9FEFDF91CF911F910F9121
:10257000FF90EF90DF90CF90BF90AF909F908F90A3
:10258000089580917A0290917B02892B61F081E01D
:1025900090E020917C0230917D02232B11F490E099
:1025A00080E0892B39F482E090E0998388838EEF74
:1025B0009FEFDACF42DE882309F4DFC0F801818182
:1025C000813009F495C0E8F0823099F420917C02C2
:1025D00030917D02E0917A02F0917B0290E080E000
:1025E00041E050E02817390709F0BDC036DA811103
:1025F00017C0789481E090E09983888390E080E030
:10260000B3CF20917C0230917D02E0917A02F0916B
:102610007B0290E080E041E050E02817390741F468
:1026200081E090E00E94A80980E40E94B609E1CF11
:1026300063817481672B11F05483438301967396F1
:10264000ECCFE0917A02F0917B02E00FF11F238141
:10265000348122303105D9F4218932892F3F3F4F0F
:10266000B1F425813681409115015091160124174E
:10267000350761F5AF014F5E5F4F609119017091B1
:102680001A0180911701909118010E94121CEFEF1E
:10269000CE1ADE0AEE0AFE0A0D5E1F4F40917C0242
:1026A00050917D0270E060E0C416D506E606F7069C
:1026B0003CF5009731F27894892B09F49BCF82E0A6
:1026C00090E0998388838DEF9FEF4ECFC114D104A2
:1026D000E104F104E1F6232BD1F6CF015EDDE091B8
:1026E0007A02F0917B02E00FF11F108A1786CFCF9C
:1026F00010E000E090E080E0C12CD12C7601CECF3C
:102700000097C9F610E000E0812C912C540183E081
:10271000E82EF12C1AC0E0917A02F0917B02E00FD2
:10272000F11F83819481029749F4F482E38282E06D
:1027300090E00E94A80980E40E94B009FFEF8F1A80
:102740009F0AAF0ABF0A0D5E1F4F80917C029091D5
:102750007D02B0E0A0E088169906AA06BB06DCF26E
:1027600090E080E0A8CF638174816230710511F43C
:10277000548343830196739635CF82E090E099832A
:10278000888385EF9FEFF0CE0097B9F48FEFFB01C0
:10279000808320911F013091200143E1429FC001BD
:1027A000439F900D1124E0917A02F0917B02E80F93
:1027B000F91F8285FB01818308950C94610988E0EB
:1027C00090E0FA019183808390E080E00895109278
:1027D000790210927802EAE7F2E086E0DF011D92CA
:1027E0008A95E9F780E59FE09093770280937602DF
:1027F0000895809176029091770208952F923F92EA
:102800004F925F926F927F928F929F92AF92BF9200
:10281000CF92DF92EF92FF920F931F93CF93DF93AC
:10282000CDB7DEB760970FB6F894DEBF0FBECDBF51
:10283000F894E0917802F09179023196F093790260
:10284000E09378027894A0917A02B0917B02BA83E7
:10285000A983109709F4F9C1E0917C02F0917D02FF
:10286000EF2B09F4F2C128874B875C876D877E8741
:102870009A878987B88BAF87312C212CF12C512C6A
:10288000412C80917C0290917D022816390610F42B
:10289000FF2029F1F89480917802909179020197B4
:1028A00090937902809378027894C20160960FB673
:1028B000F894DEBF0FBECDBFDF91CF911F910F9176
:1028C000FF90EF90DF90CF90BF90AF909F908F9050
:1028D0007F906F905F904F903F902F900895B1013F
:1028E00090E080E086D4682EEF85F889878181FDAD
:1028F0003DC0838194810397C9F5258136813C834E
:102900002B8389859A852817390781F5C101EFD86E
:10291000782E8823A9F1AF85B8891F968D919C9157
:102920005097019621E01D964D915C918417950773
:1029300009F020E02F83B12CA12CEF85F88982814A
:102940008A151B0419F014F0FF20E9F0F885FF2325
:1029500009F46BC1AF85B88950961C921E921F97DF
:10296000662021F0B10190E080E045D4FFEF2F1AFE
:102970003F0A2F8538892D5E3F4F388B2F8781CFB7
:10298000B1E0BF83D8CFBDD49E838D83E885EE238D
:10299000E9F0772009F43BC1AF85B8891F968D9186
:1029A0009C91892B79F0BBE0BA9DC001BB9D900D35
:1029B0001124AF85B889ED91FC91E80FF91F85814D
:1029C00096814ED6BFEFAB1ABB0AB7CF81E0772016
:1029D00039F0EF85F88927853089232B09F080E0CD
:1029E000F82EE12CA114B10439F4AF85B8891796FB
:1029F000EC90E4FAEE24E0F8BBE0BA9D6001BB9DE8
:102A0000D00C1124882309F423C1AF85B889ED9136
:102A1000FC911197EC0DFD1D438154811D962D9164
:102A20003C91429FC001439F900D529F900D1124F5
:102A3000E1105CC001969087878361E070E0878138
:102A4000908528D5EF85F889218932890081118107
:102A50000C0D1D1D2F3F320709F44AC0BC01C901EE
:102A600022D7D80116969C938E931597AF85B88977
:102A7000ED91FC911197EC0DFD1D0581168101155D
:102A8000110509F4CDC0ED81FE810E0F1F1F1A96AE
:102A90008C918A0DD8018C93E1102FC00F5F1F4FCE
:102AA000AF85B889ED91FC91EC0DFD1D1287018772
:102AB000AF85B889ED91FC91EC0DFD1D8581968166
:102AC000892B09F4A4C080911501909116012B81E6
:102AD0003C812817390709F465C0772011F001857A
:102AE0001285912C812C1A8219824AC00596A3CF97
:102AF000B4D5F80196838583B9CF8B859C85AD8548
:102B0000BE85F80181839283A383B4830B5F1F4F3B
:102B1000C7CFE080F180E80CF91CD70113966D91C6
:102B20007C9114978C918F3F09F473C0E1E0F0E041
:102B300002C0EE0FFF1F8A95E2F7CF01092E000CAD
:102B4000AA0BBB0BFB0140815181628173818423FD
:102B50009523A623B72321E0892B8A2B8B2B09F4FD
:102B600020E0D8012C93D70111968C91080F111DEC
:102B7000E981FA813196FA83E983F7E08F0E911C9F
:102B8000AF85B889ED91FC91EC0DFD1D8281298105
:102B90003A818217130611F00CF0BBCF772011F0A9
:102BA000128701873F81332391F1AF85B889ED9179
:102BB000FC91EC0DFD1D61E070E0878190856AD489
:102BC000AF85B889ED91FC91EC0DFD1DE780F08497
:102BD00045815681E1E0F0E0662011F0F0E0E0E0B0
:102BE0000D811E819C01B101882799278E1B9F0BA7
:102BF0008BD32C01892B59F0EF85F8898081918145
:102C0000C80ED91ED60115968D919C9129D5F12C0F
:102C1000D9CEF701418150E0C8010E949126A3CF8F
:102C200086EF482E55245A94CDCEEF85F8898785B6
:102C300090890196908B8787258536858217930723
:102C400009F08ECE108A17868BCE512C412C22CEC5
:102C500010E000E02DCF2F923F924F925F926F9243
:102C60007F928F929F92AF92BF92CF92DF92EF921C
:102C7000FF920F931F93CF93DF9380917A029091ED
:102C80007B0210E000E0892BA9F0D7DA0AEF1FEFF2
:102C9000882381F020907C0230907D02C0917A02DE
:102CA000D0917B02D12CC12C10E000E02C143D040B
:102CB000A9F47894C801DF91CF911F910F91FF90F3
:102CC000EF90DF90CF90BF90AF909F908F907F90CC
:102CD0006F905F904F903F902F900895C6010E9493
:102CE000770D882309F18B819C810397E9F48F8507
:102CF0009889892BC9F0B60190E080E07AD221E072
:102D000030E0882311F030E020E044245524421ABA
:102D1000530AB12CA12C912C812C8A81881519047D
:102D200009F038F4188A1F864FEFC41AD40A639644
:102D3000BDCFE881F981EA0DFB1D85819681892B44
:102D4000A1F161E070E087819085A4D33C01D9D2E4
:102D50008C01E881F981EA0DFB1D81859285258131
:102D60003681200F311FAC01421B530B9A01478162
:102D70005085421B530B70E060E00E949A26E88168
:102D8000F981EA0DFB1DE780F084458156819301AE
:102D9000B601C201B9D28C01892B39F0E881F981E1
:102DA000EA0DFB1D858196815BD45FEF851A950A3C
:102DB0008BE0A80EB11CB1CF40CA789408952F9231
:102DC0003F924F925F926F927F929F92AF92BF928B
:102DD000CF92DF92EF92FF920F931F93CF93DF93E7
:102DE00000D000D000D0CDB7DEB700917A021091AC
:102DF0007B02992493940115110509F43EC0A0901B
:102E00007C02B0907D0219DA982E8823B1F11092DD
:102E10007B0210927A0210927D0210927C02109234
:102E20007E0210927F028FEF9FEFDC0180931F01E3
:102E300090932001A0932101B093220178947AD33A
:102E40001E830D83C12CD12C7601C501B0E0A0E01A
:102E500089839A83AB83BC8322242A94322C898170
:102E60009A81AB81BC81C816D906EA06FB06F4F04C
:102E7000C801F6D380E40E94B609892D26960FB6C4
:102E8000F894DEBF0FBECDBFDF91CF911F910F91A0
:102E9000FF90EF90DF90CF90BF90AF909F907F908A
:102EA0006F905F904F903F902F900895AD81BE81BD
:102EB00015968D919C9116972091150130911601D0
:102EC00082179307D1F451968D919C91DAD4ED81BC
:102ED000FE8180819181B12CA12C412C512C320199
:102EE000892B89F5BFEFCB1ADB0AEB0AFB0AED81D0
:102EF000FE817396FE83ED83B2CFC114D104E10449
:102F0000F10429F7892B19F7ED81FE8181899289D6
:102F10008F3F980709F057D4AD81BE8152963C92FD
:102F20002E925197D4CF8A0D9B1DDC018D919C91DF
:102F3000009709F095D3BFEF4B1A5B0A6B0A7B0A27
:102F4000EBE0AE0EB11CAD81BE818D919C911197CD
:102F500012964C9150E070E060E04416550666060B
:102F600077060CF37DD3BECFCF93DF93EA0127DF43
:102F7000811109C082E090E09983888385EF9FEFFB
:102F8000DF91CF91089581E090E00E94A80981E04F
:102F900090E09983888390E080E0F2CF10DF109278
:102FA000770210927602089542E050E06EE971E0F7
:102FB0000C94C609FF920F931F93CF93DF938A015E
:102FC000EC01C60FD71FF980B4D20897F81619067E
:102FD00071F068F082E090E0F801918380838EEFD9
:102FE0009FEFDF91CF911F910F91FF9008956C811A
:102FF0007D818E819F814B810E945D0C811108C073
:1030000082E090E0F8019183808384EF9FEFE9CF25
:10301000F9800E94580C4F2D50E0BE01685F7F4F31
:103020000E94912689810E94C70C81E090E0F801FE
:103030009183808390E080E0D4CFDF92EF92FF9283
:103040000F931F93CF93DF938A01EC01C60FD71F15
:103050000E94580C7C01D9806CD2DD2059F0029777
:1030600021E030E0D816190619F010F030E020E029
:10307000232B79F482E090E0F801918380838EEF36
:103080009FEFDF91CF911F910F91FF90EF90DF9015
:103090000895EF2841F482E090E0F8019183808365
:1030A00084EF9FEFEECFF9800E94580C4F2D50E037
:1030B000BE016E5F7F4F0E94912689810E94C70CDE
:1030C00081E090E0F8019183808390E080E0D9CFA7
:1030D00084ED97E19093810280938002089580911E
:1030E00080029091810208950895FC01118210825E
:1030F000938382830895DB011D921C92DC0112965A
:10310000ED91FC9113977183608313967C936E937A
:1031100012970895FC0180819181DB018D939C932E
:10312000A081B181109741F08D919C919183808312
:10313000892B11F4F383E2830895FC01808191814E
:10314000DB018D939C93892B11F4738362837183CC
:1031500060830895FC011182108293838283089515
:10316000CF93DF9300D0CDB7DEB71A821982F894DF
:10317000BE016F5F7F4F87E892E0CCDF89819A8143
:10318000009709F06DD289819A81892B89F7BE0158
:103190006F5F7F4F8BE892E0BDDF89819A81009756
:1031A00009F05ED289819A81892B89F778940F90F2
:1031B0000F90DF91CF910895CF93DF9300D0CDB7DB
:1031C000DEB71A821982F894BE016F5F7F4F83E8E1
:1031D00092E0A0DF89819A81009709F041D289812C
:1031E0009A81892B89F778940F900F90DF91CF9176
:1031F000089581E0089590E080E00895EF92FF92B5
:103200000F931F93CF93DF9300D0CDB7DEB71A8211
:1032100019828091820207EF1FEF8823A1F1F894B1
:10322000BE016F5F7F4F8BE892E074DF78948981F5
:103230009A81EE24E394F12C892B51F4F894BE0189
:103240006F5F7F4F87E892E065DF7894F12CE12C87
:1032500089819A810EEF1FEF0097A9F0FC0142814E
:10326000538164E070E00DD58C01892B61F0F894F6
:1032700069817A81C701880F991F880F991F895723
:103280009D4F5BDF7894C8010F900F90DF91CF9135
:103290001F910F91FF90EF9008950F931F93CF937D
:1032A000DF9300D000D0CDB7DEB71C821B821A821C
:1032B00019828091820207EF1FEF8823C1F0AE01CF
:1032C0004D5F5F4F64E070E0CE0101964DD58C01FB
:1032D000892B69F4E981FA818B819C8193838283B4
:1032E000F89469817A8183E892E005DF7894C801D7
:1032F0000F900F900F900F90DF91CF911F910F9132
:10330000089551D6049608958F929F92AF92BF92DE
:10331000CF92DF92EF92FF920F931F93CF93DF93A1
:1033200000D0CDB7DEB71A821982BC016F5F7F4F24
:103330006330710598F0AA24AA94BA2CC5010F90A5
:103340000F90DF91CF911F910F91FF90EF90DF9041
:10335000CF90BF90AF909F908F90089541155105E9
:1033600051F3480159018A016C01CBDF8815990599
:1033700011F7E114F104F9F28E0D9F1DA816B9069C
:10338000D0F2809182028823F1F0F894B501645064
:1033900071099701AE014F5F5F4FC801049678D560
:1033A0005C01892B71F489819A81F801938382836E
:1033B000C601880F991F880F991FB80189579D4F23
:1033C0009ADE7894BBCF87EFA82EBB24BA94B6CFF1
:1033D000AF92BF92CF92DF92EF92FF920F931F9323
:1033E000CF93DF9300D0CDB7DEB71A821982892B35
:1033F00009F047C06115710509F443C04115510535
:1034000009F43FC02115310509F43BC00115110530
:10341000C1F1809182028823B9F179016A015B01CF
:10342000F894BE016F5F7F4F83E892E073DE78947B
:1034300089819A81009759F1DC0112966D917C91F6
:10344000A80104963ED58C01E981FA81D501ED935E
:10345000FC93828193810496F6019183808351DFEE
:10346000D7018D939C93C8010F900F90DF91CF915E
:103470001F910F91FF90EF90DF90CF90BF90AF9092
:1034800008950FEF1FEFEFCF07EF1FEFECCF0EEF19
:103490001FEFE9CFCF93DF93EC01672B71F48CD54D
:1034A0008C179D0760F07FD52496C80FD91F7ED555
:1034B0008C0F9D1FDF91CF9108957BD5F1CF90E0C8
:1034C00080E0F8CF0F931F93CF93DF932091820278
:1034D00021112BC08B01EC0187E892E006DE8BE81E
:1034E00092E003DE83E892E000DE97D00097C1F41B
:1034F00063D570E060E0CEDF43E251E062E070E06F
:10350000D9D0009769F4809123019091240166D568
:10351000B801CE019CD3009719F421E020938202D8
:10352000DF91CF911F910F91089584EF9FEFF8CF16
:1035300040C542C5CF93DF9342D5EC01892B11F4EE
:103540000FDE3ADECE01DF91CF910895CF93DF9366
:1035500036D5EC01892B09F403DECE01DF91CF9142
:10356000089580912301909124010895CF93DF93D2
:1035700080918202D0E0C0E08823D1F034D5EC0104
:10358000892BB1F4EDDD18DE8091230190912401A7
:103590001AD1CED1EC01892B59F487E892E0DADD1B
:1035A0008BE892E0D7DD83E892E0D4DD10928202CE
:1035B000CE01DF91CF910895EF92FF920F931F9369
:1035C000CF93DF93EC017A018B010F5F1F4F0E9DAC
:1035D000A0010F9D500D1E9D500D112470E060E064
:1035E0000E949A2690E080E0F0E0E0E02FEFE816FD
:1035F000F90639F4DF91CF911F910F91FF90EF9071
:1036000008951A8219822883309711F0D283C183DA
:103610000196FE01C00FD11FEACFE1E9F2E085E893
:10362000DF011D928A95E9F71092900210928F02A5
:10363000EDE1F3E01182108215821482138212826E
:103640001782168211861086E9E1F3E0118210825A
:103650001382128290E080E0089590E080E0089567
:10366000009739F1DC018E91813041F4E0911B0328
:10367000F0911C033097E9F0CD010994811119C034
:10368000F8948FEF8C9380911D0390911E031296F6
:103690009C938E931197B0931E03A0931D0380916A
:1036A0001F039091200301969093200380931F03A2
:1036B00078940895EF92FF920F931F93CF93DF9327
:1036C0004115510509F47CC0009709F479C06115D2
:1036D000710509F475C0EA01AB01BC01F894809151
:1036E0001D0390911E03892B19F584E992E08C7FCC
:1036F0006D5F7F4F6C7F9B012F5F3F4F249F800149
:10370000259F100D349F100D112420912503309119
:1037100026032115310509F03CC0E0908F02F0909E
:10372000900222E830E02E193F092017310730F4CB
:1037300078942FEF3FEF86EF9FEF22C090931E0308
:1037400080931D0350932203409321035093200341
:1037500040931F0370932403609323031093260365
:1037600000932503009709F027DF0E0D1F1D10930E
:10377000900200938F02789430E020E090E080E0A7
:1037800039832883DF91CF911F910F91FF90EF90A4
:1037900008952017310760F290931E0380931D0354
:1037A00050932203409321035093200340931F031F
:1037B00070932403609323030097E9F2FDDEDBCFCF
:1037C0008FEF9FEFDFCF892B51F5F89410921E03F6
:1037D00010921D03109222031092210310922003D5
:1037E00010921F03109224031092230320912503AB
:1037F000309126032115310571F080918F0290914F
:103800009002821B930B9093900280938F021092F0
:10381000260310922503789490E080E008958FEFBE
:103820009FEF08954115510549F1009739F1611550
:10383000710521F1F8942091190330911A03232B7B
:10384000B9F420911B0330911C03232B89F490932E
:103850001A038093190370931C0360931B037894DD
:1038600021E030E090E080E0FA0131832083089588
:1038700078942FEF3FEF86EF9FEFF6CF8FEF9FEF1C
:103880000895019769F4F89410921A03109219039D
:1038900010921C0310921B03789490E080E008952E
:1038A0008FEF9FEF08956115710519F4F0E0E0E0E6
:1038B00011C08130910581F4E0911903F0911A0350
:1038C0003097A1F3CB0101960995009779F3FC019C
:1038D00081E08193CF010895892B41F780911D03E9
:1038E00090911E03892B11F380912303909124035F
:1038F00086179707D8F2F89480911F0390912003C0
:10390000009731F0E0911D03F0911E03309711F400
:103910007894CCCF2181328130931E0320931D03F4
:1039200001979093200380931F0311927894D2CF34
:10393000E6E1F3E083E0DF011D928A95E9F7E1E932
:10394000F2E085E8DF011D928A95E9F71092900276
:1039500010928F02EDE1F3E08AE0DF011D928A957B
:10396000E9F7E9E1F3E084E0DF011D928A95E9F7E8
:1039700090E080E00895CF93DF93C0912501D0912E
:103980002601CF3FDC0759F4C0D3909326018093E2
:10399000250197FF09C0D0932601C093250184EF2C
:1039A0009FEFDF91CF91089590E080E0FACF8230D1
:1039B000910528F48093270390E080E008958FEF2D
:1039C0009FEF08954F925F926F927F92AF92BF9256
:1039D000CF92DF92EF92FF920F931F93CF93DF93DB
:1039E00000D0CDB7DEB71A821982009709F478C0EB
:1039F0006115710509F474C02091250130912601EB
:103A000007EF1FEF2F3F3F4F09F444C06B015C01EC
:103A1000412C512C3201F12CE12C10E000E09E01F0
:103A20002F5F3F4FA6014E195F09B5016E0D7F1D37
:103A30008091250190912601C7D3892B09F04AC0B6
:103A400089819A81009741F4E114F10429F42091CD
:103A50002703222309F441C0E80EF91EEC14FD04EB
:103A6000C8F480E8481684E858068EE168067104B8
:103A700018F560E070E0CB01FDD52AE0420E511C44
:103A8000611C711C0A3F4FEF140721F0043F8FEFB8
:103A90001807A1F4C8010F900F90DF91CF911F91EB
:103AA0000F91FF90EF90DF90CF90BF90AF907F90FD
:103AB0006F905F904F90089501EF1FEF81E090E0CD
:103AC000013F2FEF120711F090E080E0892B09F4FD
:103AD000A6CFE0CF04EF1FEFDDCF0AEF1FEFDACF65
:103AE0000FEF1FEFD7CF4F925F926F927F92AF92FF
:103AF000BF92CF92DF92EF92FF920F931F93CF93DB
:103B0000DF9300D0CDB7DEB71A821982009709F48F
:103B100078C06115710509F474C0209125013091B8
:103B2000260107EF1FEF2F3F3F4F09F444C06B0101
:103B30005C01412C512C3201F12CE12C10E000E011
:103B40009E012F5F3F4FA6014E195F09B5016E0D13
:103B50007F1D8091250190912601ECD2892B09F0DF
:103B60004AC089819A81009741F4E114F10429F453
:103B700020912703222309F441C0E80EF91EEC141A
:103B8000FD04C8F480E8481686E9580688E9680606
:103B9000710418F560E070E0CB016CD52AE0420EAC
:103BA000511C611C711C0E3F4FEF140721F0043FA4
:103BB0008FEF1807A1F4C8010F900F90DF91CF91FC
:103BC0001F910F91FF90EF90DF90CF90BF90AF903B
:103BD0007F906F905F904F90089502EF1FEF81E00C
:103BE00090E0023F2FEF120711F090E080E0892B68
:103BF00009F4A6CFE0CF04EF1FEFDDCF0EEF1FEFEC
:103C0000DACF0FEF1FEFD7CF8091250190912601DA
:103C10008F3F980749F071D2892B49F48FEF9FEFBE
:103C2000909326018093250190E080E0089584EF31
:103C30009FEF0895FC01680F791F90E080E0E61780
:103C4000F70709F408952191820F911DF8CF209173
:103C50002803211113C08FDE009791F410922E03D8
:103C600010922D0310922C0310922B0310922A0312
:103C70001092290321E020932803089584EF9FEFF9
:103C80000895AF92BF92CF92DF92EF92FF920F937F
:103C90001F93CF93DF93009709F460C0463051051E
:103CA00008F45CC020912803C7EFDFEF222309F45A
:103CB00049C08C01060F171FF801C080D180C114C4
:103CC000D10409F44EC096012A5F3F4F42175307B3
:103CD00008F447C07C0180912D0390912E039383BB
:103CE0008283B6016C5F7F4F5801A60EB71EC801D4
:103CF000A1DFF5019183808364E070E0C80162DE9A
:103D0000EC01892BF9F481E090E051DEB601C801A5
:103D1000049658DEEC01892B91F462E070E0C50155
:103D200051DEEC01892B59F4C7019ADC80912D03F7
:103D300090912E03019690932E0380932D0390E093
:103D400080E035DECE01DF91CF911F910F91FF9082
:103D5000EF90DF90CF90BF90AF900895CFEFDFEF5F
:103D6000F1CFC9EFDFEFEECF6F927F928F929F92EC
:103D7000AF92BF92CF92DF92EF92FF920F931F9379
:103D8000CF93DF9300D000D0CDB7DEB7009709F412
:103D900079C04115510509F475C02091280307EF3A
:103DA0001FEF222309F44CC03A017B015C0164E05F
:103DB00070E0CE01019697DE8C01892B09F040C09E
:103DC00009811A810115110509F459C0480186E0DD
:103DD000880E911CB701680D791D80912701909183
:103DE000280161DD6C01009709F44FC0A70170E064
:103DF00060E0A0D789819A81AB81BC81EC0CFD1C6D
:103E0000F70181939193A193B1937F0181E090E0B9
:103E1000CEDDB801C70167DE892B31F562E070E0C5
:103E2000C701800F911F5FDE8C01892BE9F490E0C0
:103E300080E0BDDDF501D182C082F30191828082F4
:103E4000C8010F900F900F900F90DF91CF911F91AD
:103E50000F91FF90EF90DF90CF90BF90AF909F9029
:103E60008F907F906F90089590E080E0A0DDF50145
:103E700011821082F30111821082C601F1DB09EF79
:103E80001FEFDECF0FEF1FEFDBCF06EF1FEFD8CF17
:103E90000097A1F04115510589F02115310571F008
:103EA000F90136966E177F0748F0DC012D933C939D
:103EB000DA01ED93FC9390E080E008958FEF9FEF9F
:103EC0000895AF92BF92CF92DF92EF92FF920F933D
:103ED0001F93CF93DF93009709F45FC041155105FD
:103EE00009F45BC06530710508F457C020912803C0
:103EF000C7EFDFEF222391F1DC01CD90DC90119729
:103F00001296ED91FC9196012A5F3F4FC9EFDFEFCA
:103F10002617370719F5C0912903D0912A03209756
:103F200049F521E030E030932A03209329037A01F8
:103F30008C01F0932C03E0932B035601B4E0AB0EFD
:103F4000B11CB50177DE0A0D1B1DF80120813181FE
:103F50008217930729F5D701CD92DC92CE01DF912C
:103F6000CF911F910F91FF90EF90DF90CF90BF9076
:103F7000AF90089520912B0330912C032F5F3F4F7A
:103F8000CCEFDFEFE217F30790F2CBEFDFEF2E1766
:103F90003F0768F2D0E0C0E0CACFCFEFDFEFDECF5F
:103FA000C3EFDFEFDBCF84E090E0089582E090E0A4
:103FB00008958CEF9FEF089580E290E008951092AD
:103FC0002E0310922D0310922C0310922B031092AB
:103FD0002A031092290390E080E00895909328012D
:103FE00080932701089580912803882391F00CDEA7
:103FF000009789F410922E0310922D0310922C0337
:1040000010922B0310922A03109229031092280376
:10401000089590E080E00895009749F061157105DA
:1040200031F0FC0111821082FB011182108208958F
:10403000F3CF26E030E040E855E260E070E090E049
:1040400080E000C0892B19F48CE393E008C5089543
:104050001F920F920FB60F9211242F933F934F93FD
:104060005F936F937F938F939F93AF93BF93EF93E0
:10407000FF9386E997EE9093850080938400B7D0F4
:10408000FF91EF91BF91AF919F918F917F916F9130
:104090005F914F913F912F910F900FBE0F901F9006
:1040A000189586E997EE9093850080938400AFE69B
:1040B000B0E08C918E7F8C93E0E8F0E080818C7F83
:1040C0008083E1E8F0E08081877E80838081846066
:1040D000808380818C7F80838C9181608C93089514
:1040E000EFE6F0E0808190819E7F9083817008955B
:1040F00081E0089510922F03089568EE73E080E048
:1041000090E0B8D290E080E0089526E030E040E012
:1041100052EC61E070E090E080E094DF8CE393E0AB
:10412000D4D3892B21F08CE393E0E9D3F7CF90E04F
:1041300080E00895CF92DF92EF92FF920F931F934A
:10414000CF93DF936B017A01E901198218828CE326
:1041500093E0BBD3892B69F18601CC24C39482E020
:10416000D82E80912F03811110C08CE393E0C7D328
:104170000297B9F7C0922F03F801D1928F0188817D
:104180009981019699838883ECCF888199818E15D6
:104190009F0578F48CE393E0B2D38F3F9807A9F39F
:1041A000F80181938F018881998101969983888391
:1041B000ECCF90E080E0DF91CF911F910F91FF90C5
:1041C000EF90DF90CF9008950F931F93CF93DF93DD
:1041D000EA0189018CE393E026D5F801D183C083FD
:1041E00090E080E0DF91CF911F910F910895CF92E1
:1041F000DF92EF92FF928091300391E0980F9093BD
:104200003003882369F021E030E0309332032093BB
:10421000310380933003FF90EF90DF90CF900895AB
:104220007894E0912A01F0912B01C28CD38CE48C1C
:10423000F58C0E942A02B701A60190E080E00E945E
:104240009D01F894809130038150E3CF0F931F9329
:10425000CF93DF93109206041092050441D2E9DE59
:10426000C0912A01D0912B01198218826FEF7FEF44
:10427000CB010E941F0270E060E090E080E00E94AD
:10428000A200009709F03AC00E94B102F894789415
:10429000BE016E5D7F4F8A819B810E94A500892BA4
:1042A00059F46FEF7FEFCB010E9434010E94190295
:1042B000882311F081E08EA3F894F3DE0E941C02A3
:1042C000882311F080E008C00E9419028111FACF02
:1042D00081E09EA19111F6CF8093050478940E940D
:1042E000A3098C0178948091050481110CC00E946F
:1042F0005B030E94FF01F89490E080E0DF91CF9192
:104300001F910F9108950E94FD010E941C028823B5
:10431000D9F081E0809306049091060481E0911128
:1043200080E080930504809106048111D9DE01307C
:10433000110529F40E94A309892B09F4DBDE0E94F0
:10434000A3098C01D5DECFCF0E9419028111E1CFE4
:1043500081E09EA19111DECF80E0DCCF40D008F457
:1043600081E00895E89409C097FB3EF4909580950C
:10437000709561957F4F8F4F9F4F9923A9F0F92F2B
:1043800096E9BB279395F695879577956795B795A9
:10439000F111F8CFFAF4BB0F11F460FF1BC06F5F8F
:1043A0007F4F8F4F9F4F16C0882311F096E911C0A1
:1043B000772321F09EE8872F762F05C0662371F0C2
:1043C00096E8862F70E060E02AF09A95660F771FD6
:1043D000881FDAF7880F9695879597F90895990FB2
:1043E0000008550FAA0BE0E8FEEF16161706E807BF
:1043F000F907C0F012161306E407F50798F0621BE0
:10440000730B840B950B39F40A2661F0232B242BB4
:10441000252B21F408950A2609F4A140A6958FEFD3
:10442000811D811D0895DBDF08F48FEF08950BD007
:1044300078C069D028F06ED018F0952309F05AC0E2
:104440005FC01124A2C07ED0A0F3959FD1F3950F39
:1044500050E0551F629FF001729FBB27F00DB11D08
:10446000639FAA27F00DB11DAA1F649F6627B00D98
:10447000A11D661F829F2227B00DA11D621F739F81
:10448000B00DA11D621F839FA00D611D221F749F8F
:104490003327A00D611D231F849F600D211D822FD6
:1044A000762F6A2F11249F5750408AF0E1F088231D
:1044B0004AF0EE0FFF1FBB1F661F771F881F91502A
:1044C0005040A9F79E3F510570F014C05EC05F3F99
:1044D000ECF3983EDCF3869577956795B795F7955D
:1044E000E7959F5FC1F7FE2B880F911D96958795E5
:1044F00097F9089597F99F6780E870E060E0089564
:104500009FEF80EC089500240A94161617061806EB
:104510000906089500240A941216130614060506C7
:104520000895092E0394000C11F4882352F0BB0F58
:1045300040F4BF2B11F460FF04C06F5F7F4F8F4FBB
:104540009F4F089557FD9058440F551F59F05F3FF6
:1045500071F04795880F97FB991F61F09F3F79F0A5
:1045600087950895121613061406551FF2CF469527
:10457000F1DF08C0161617061806991FF1CF8695A9
:104580007105610508940895E894BB27662777278D
:10459000CB0197F908951F920F920FB60F92112435
:1045A0002F933F938F939F93AF93BF938091340347
:1045B00090913503A0913603B091370330913303C6
:1045C00023E0230F2D3758F50196A11DB11D20932F
:1045D00033038093340390933503A0933603B09351
:1045E00037038091380390913903A0913A03B09139
:1045F0003B030196A11DB11D8093380390933903AD
:10460000A0933A03B0933B03BF91AF919F918F91D9
:104610003F912F910F900FBE0F901F90189526E895
:10462000230F0296A11DB11DD2CF3FB7F894809100
:10463000380390913903A0913A03B0913B0326B51A
:10464000A89B05C02F3F19F00196A11DB11D3FBFCA
:10465000BA2FA92F982F8827BC01CD01620F711D99
:10466000811D911D42E0660F771F881F991F4A9593
:10467000D1F708958F929F92AF92BF92CF92DF921F
:10468000EF92FF926B017C01D0DF4B015C01C11402
:10469000D104E104F104D9F0F3D2C7DF6819790934
:1046A0008A099B09683E73408105910580F321E0EA
:1046B000C21AD108E108F10888EE880E83E0981E3E
:1046C000A11CB11CC114D104E104F10431F7FF9025
:1046D000EF90DF90CF90BF90AF909F908F90089514
:1046E000789484B5826084BD84B5816084BD85B5CD
:1046F000826085BD85B5816085BDEEE6F0E0808194
:1047000081608083E1E8F0E01082808182608083B4
:10471000808181608083E0E8F0E080818160808337
:10472000E1EBF0E0808184608083E0EBF0E0808169
:1047300081608083EAE7F0E080818460808380810B
:1047400082608083808181608083808180688083B3
:104750001092C1000895833081F028F4813099F0DF
:104760008230A9F008958730A9F08830C9F08430EC
:10477000B1F4809180008F7D03C0809180008F779D
:1047800080938000089584B58F7784BD089584B5A3
:104790008F7DFBCF8091B0008F778093B00008951C
:1047A0008091B0008F7DF9CFCF93DF9390E0FC0133
:1047B000E458FF4F249180579F4FFC018491882338
:1047C000C9F090E0880F991FFC01E854FF4FA591B4
:1047D000B491FC01E255FF4FC591D49161110DC018
:1047E0009FB7F8948C91209582238C9388812823FD
:1047F00028839FBFDF91CF910895623051F49FB716
:10480000F8943C91822F809583238C93E8812E2B02
:10481000EFCF8FB7F894EC912E2B2C938FBFEACF6C
:104820001F93CF93DF93282F30E0F901E859FF4F12
:104830008491F901E458FF4FD491F901E057FF4FFB
:10484000C491CC23A1F0162F811185DFEC2FF0E06D
:10485000EE0FFF1FE255FF4FA591B4918FB7F8946B
:10486000EC91111108C0D095DE23DC938FBFDF914E
:10487000CF911F910895DE2BF8CFCF93DF93282F90
:1048800030E0F901E859FF4F8491F901E458FF4FF6
:10489000D491F901E057FF4FC491CC2399F08111D5
:1048A0005ADFEC2FF0E0EE0FFF1FEC55FF4FA59104
:1048B000B491EC91ED2381E090E009F480E0DF9188
:1048C000CF91089580E090E0FACFFC01918D228D88
:1048D000892F90E0805C9F4F821B91098F739927ED
:1048E0000895FC01918D828D981731F0828DE80F2B
:1048F000F11D858D90E008958FEF9FEF0895FC01E5
:10490000918D828D981761F0A28DAE0FBF2FB11DD2
:104910005D968C91928D9F5F9F73928F90E008952A
:104920008FEF9FEF0895FC01538D448D252F30E0CC
:10493000842F90E0821B930B541710F0CF960895AC
:1049400001970895FC01A48DA80FB92FB11DA35A9A
:10495000BF4F2C91848D90E001968F739927848F9F
:10496000A689B7892C93A089B1898C9183708064C2
:104970008C93938D848D981306C00288F389E02D63
:1049800080818F7D80830895CF93DF93EC01888DA4
:104990008823B1F0AA89BB89E889F9898C9185FDC2
:1049A00003C0808186FD0CC00FB607FCF7CF8C9149
:1049B00085FFF2CF808185FFEDCFCE01C3DFEACF47
:1049C000DF91CF910895EF92FF920F931F93CF93B2
:1049D000DF93EC0181E0888F9B8D8C8D98131AC03A
:1049E000E889F989808185FF15C09FB7F894EE8921
:1049F000FF896083E889F98980818370806480837E
:104A00009FBF81E090E0DF91CF911F910F91FF90C8
:104A1000EF900895F62E0B8D10E00F5F1F4F0F7370
:104A20001127E02E8C8D8E110BC00FB607FCFACF2C
:104A3000E889F989808185FFF5CFCE0183DFF2CF48
:104A4000EB8DEC0FFD2FF11DE35AFF4FF0829FB766
:104A5000F8940B8FEA89FB8980818062D0CFCF9256
:104A6000DF92EF92FF921F93CF93DF93EC016A01E5
:104A70007B01122FE889F98982E08083C11481EEDD
:104A8000D806E104F10499F060E079E08DE390E06C
:104A9000A701960105D121503109410951095695C7
:104AA000479537952795211580E1380790F0E889DB
:104AB000F989108260E874E88EE190E0A701960120
:104AC000EFD0215031094109510956954795379545
:104AD0002795EC85FD853083EE85FF852083188E34
:104AE000EC89FD891083EA89FB898081806180835C
:104AF000EA89FB89808188608083EA89FB898081DB
:104B000080688083EA89FB8980818F7D8083DF9143
:104B1000CF911F91FF90EF90DF90CF9008951F925B
:104B20000F920FB60F9211242F938F939F93EF93B1
:104B3000FF93E0914C03F0914D038081E09152038B
:104B4000F091530382FD1BC09081809155038F5FCC
:104B50008F7320915603821741F0E0915503F0E0E6
:104B6000E45CFC4F958F80935503FF91EF919F91EB
:104B70008F912F910F900FBE0F901F9018958081ED
:104B8000F4CF1F920F920FB60F9211242F933F93E1
:104B90004F935F936F937F938F939F93AF93BF9345
:104BA000EF93FF938CE393E0CDDEFF91EF91BF9104
:104BB000AF919F918F917F916F915F914F913F91B5
:104BC0002F910F900FBE0F901F901895ECE3F3E01C
:104BD0001382128288EE93E0A0E0B0E08483958394
:104BE000A683B7838EEA91E09183808385EC90E081
:104BF0009587848784EC90E09787868780EC90E0A7
:104C0000918B808B81EC90E0938B828B82EC90E097
:104C1000958B848B86EC90E0978B868B118E128E11
:104C2000138E148E0895AF92BF92CF92DF92EF92BF
:104C3000FF920F931F93CF93DF936C017B018B0146
:104C4000040F151FEB015E01AE18BF08C017D10796
:104C500059F06991D601ED91FC910190F081E02D20
:104C6000C6010995892B79F7C501DF91CF911F9175
:104C70000F91FF90EF90DF90CF90BF90AF9008958D
:104C80000895DB018F939F9333D0BF91AF91A29F83
:104C9000800D911DA39F900DB29F900D112408953A
:104CA000A1E21A2EAA1BBB1BFD010DC0AA1FBB1F30
:104CB000EE1FFF1FA217B307E407F50720F0A21BA2
:104CC000B30BE40BF50B661F771F881F991F1A940F
:104CD00069F760957095809590959B01AC01BD0139
:104CE000CF010895EE0FFF1F0590F491E02D099478
:104CF00009D0A59F900DB49F900DA49F800D911D8C
:104D000011240895A29FB001B39FC001A39F700D0D
:104D1000811D1124911DB29F700D811D1124911DC3
:104D20000895FB01DC0102C001900D9241505040FA
:104D3000D8F70895DC0101C06D9341505040E0F771
:064D40000895F894FFCF76
:104D4600CDCCCC3D000000000000803FFEFFFFFF01
:104D560001E8030000FFFF00000000FFFFFFFFFF68
:104D6600FFFFFFFFFFFFFFFFFF01D801FF00FA0B68
:104D7600260CFE00E00B6109FD00720BCC0BFC005B
:104D8600B80B6109F600A90C6109F5007F0BE80C68
:104D9600F400720CFF0CDE002B11C413DD009A1216
:104DA6006109DA00B30EBB0ED900DF13CB0EE200A9
:104DB6009B0D6109E100D60D6109E0004B0E61090A
:104DC600D600B4176109D50058106109D400E40F64
:104DD6006109D300550F6109C000DA0E6109F000C0
:104DE6001D186109ED00DA17610900000000E324CF
:0C4DF60013269324C42465247F24712418
:00000001FF
