:100000005CC000007FC000007DC000007BC000001D
:1000100079C0000077C0000075C0000073C0000008
:1000200071C000006FC000006DC000006BC0000018
:1000300069C00000E9C0000065C0000063C00000A6
:100040007CC100005FC00000B9C30000E9C300002C
:1000500059C0000057C0000055C0000053C0000048
:1000600051C000004FC00000000000080002010065
:100070000003040700000000000000000102040863
:100080001020408001020408102001020408102002
:10009000040404040404040402020202020203032E
:1000A0000303030300000000250028002B000000CC
:1000B0000000240027002A00350411241FBECFEFC2
:1000C000D8E0DEBFCDBF11E0A0E0B1E0E2E7F9E0AB
:1000D00002C005900D92A631B107D9F721E0A6E143
:1000E000B1E001C01D92A33EB207E1F710E0CDE5FB
:1000F000D0E003C02197FE0134D4CC35D107D1F72D
:10010000E5D035C47DCF611101C0C5C16130E9F3CF
:1001100062E0FBCF662311F061E0F9C160E0FDCF42
:10012000609100018DE0F6DF6091000184E0F2DF74
:1001300060E086E0EFDF60E085E0ECCFCF92DF9219
:10014000EF92FF921F93CF93DF93C1ECD1E0188E13
:10015000C12CD12C7601C394C98EDA8EEB8EFC8E25
:1001600061E08DE0D0DF11E01D8F1882C982DA8254
:10017000EB82FC8261E084E0C6DF1D83188AC98AB5
:10018000DA8AEB8AFC8A61E086E0BDDF1D8B188687
:10019000C986DA86EB86FC8661E085E0B4DF1D87E0
:1001A000DF91CF911F91FF90EF90DF90CF90089556
:1001B0008091D901811103C081E08093D9018091A0
:1001C000C101811103C081E08093C1018091D101FF
:1001D000811103C081E08093D1018091C901811117
:1001E00003C081E08093C901089526E030E040E833
:1001F00055E260E070E090E080E000C0892B19F4E7
:1002000084E291E07BC208951F920F920FB60F9285
:1002100011242F933F934F935F936F937F938F930B
:100220009F93AF93BF93EF93FF938BEC93EF9093D8
:1002300085008093840032D0FF91EF91BF91AF9100
:100240009F918F917F916F915F914F913F912F91EE
:100250000F900FBE0F901F9018958BEC93EF90931B
:10026000850080938400AFE6B0E08C918E7F8C9304
:10027000E0E8F0E080818C7F8083E1E8F0E080813D
:10028000877E808380818560808380818D7F80836D
:100290008C9181608C93089581E00895809118017C
:1002A00091E0980F90931801882349F021E030E005
:1002B00030931A01209319018093180108957894BE
:1002C0002FDFF894809118018150F6CFCF93DF9300
:1002D0001092E2011092E1017AD087DFC091010112
:1002E000D09102011982188229DFF894B6DF2881A3
:1002F000398181E0232B09F080E08093E10178943B
:1003000078948091E101811107C052DFF89490E068
:1003100080E0DF91CF9108952881398181E0232BFE
:1003200009F480E08093E2019091E20181E0911173
:1003300080E08093E101B0DFE4CF1F920F920FB60F
:100340000F9211242F933F938F939F93AF93BF935B
:1003500080911C0190911D01A0911E01B0911F017F
:1003600030911B0123E0230F2D3758F50196A11D75
:10037000B11D20931B0180931C0190931D01A0933C
:100380001E01B0931F018091200190912101A09145
:100390002201B09123010196A11DB11D809320017E
:1003A00090932101A0932201B0932301BF91AF91BB
:1003B0009F918F913F912F910F900FBE0F901F90A3
:1003C000189526E8230F0296A11DB11DD2CF78946F
:1003D00084B5826084BD84B5816084BD85B582604A
:1003E00085BD85B5816085BDEEE6F0E080818160E8
:1003F0008083E1E8F0E010828081826080838081E8
:1004000081608083E0E8F0E0808181608083E1EBBF
:10041000F0E0808184608083E0EBF0E080818160A7
:100420008083EAE7F0E0808184608083808182605D
:100430008083808181608083808180688083109246
:10044000C1000895833081F028F4813099F0823022
:10045000A9F008958730A9F08830C9F08430B1F44C
:10046000809180008F7D03C0809180008F77809382
:100470008000089584B58F7784BD089584B58F7DFD
:10048000FBCF8091B0008F778093B000089580916A
:10049000B0008F7DF9CFCF93DF9390E0FC01E4585B
:1004A000FF4F249180579F4FFC0184918823C9F00E
:1004B00090E0880F991FFC01E255FF4FA591B49180
:1004C000FC01EC55FF4FC591D49161110DC09FB750
:1004D000F8948C91209582238C93888128232883FB
:1004E0009FBFDF91CF910895623051F49FB7F89488
:1004F0003C91822F809583238C93E8812E2BEFCF24
:100500008FB7F894EC912E2B2C938FBFEACF1F93CB
:10051000CF93DF93282F30E0F901E859FF4F849102
:10052000F901E458FF4FD491F901E057FF4FC4910E
:10053000CC23A1F0162F811185DFEC2FF0E0EE0F18
:10054000FF1FEC55FF4FA591B4918FB7F894EC9134
:10055000111108C0D095DE23DC938FBFDF91CF91BE
:100560001F910895DE2BF8CFFC01918D228D892FEC
:1005700090E0805C9F4F821B91098F7399270895AB
:10058000FC01918D828D981731F0828DE80FF11D5D
:10059000858D90E008958FEF9FEF0895FC01918D78
:1005A000828D981761F0A28DAE0FBF2FB11D5D96A1
:1005B0008C91928D9F5F9F73928F90E008958FEF43
:1005C0009FEF0895FC01538D448D252F30E0842F3B
:1005D00090E0821B930B541710F0CF96089501976B
:1005E0000895FC01A48DA80FB92FB11DA35ABF4FC8
:1005F0002C91848D90E001968F739927848FA68922
:10060000B7892C93A089B1898C91837080648C9375
:10061000938D848D981306C00288F389E02D808124
:100620008F7D80830895CF93DF93EC01888D88239D
:10063000B1F0AA89BB89E889F9898C9185FD03C04D
:10064000808186FD0CC00FB607FCF7CF8C9185FF2B
:10065000F2CF808185FFEDCFCE01C3DFEACFDF91FE
:10066000CF910895EF92FF920F931F93CF93DF9353
:10067000EC0181E0888F9B8D8C8D98131AC0E889DE
:10068000F989808185FF15C09FB7F894EE89FF89AD
:100690006083E889F98980818370806480839FBF4B
:1006A00081E090E0DF91CF911F910F91FF90EF904B
:1006B0000895F62E0B8D10E00F5F1F4F0F7311275B
:1006C000E02E8C8D8E110BC00FB607FCFACFE88997
:1006D000F989808185FFF5CFCE0183DFF2CFEB8DE5
:1006E000EC0FFD2FF11DE35AFF4FF0829FB7F894F6
:1006F0000B8FEA89FB8980818062D0CFCF92DF9215
:10070000EF92FF921F93CF93DF93EC016A017B017D
:10071000122FE889F98982E08083C11481EED8061E
:10072000E104F10499F060E079E08DE390E0A70145
:100730009601F5D021503109410951095695479547
:1007400037952795211580E1380790F0E889F989D8
:10075000108260E874E88EE190E0A7019601DFD096
:1007600021503109410951095695479537952795EB
:10077000EC85FD853083EE85FF852083188EEC891E
:10078000FD891083EA89FB89808180618083EA8901
:10079000FB89808188608083EA89FB898081806809
:1007A0008083EA89FB8980818F7D8083DF91CF916F
:1007B0001F91FF90EF90DF90CF9008951F920F92BE
:1007C0000FB60F9211242F938F939F93EF93FF9364
:1007D000E0913401F09135018081E0913A01F0918E
:1007E0003B0182FD1BC0908180913D018F5F8F7323
:1007F00020913E01821741F0E0913D01F0E0EC5D77
:10080000FE4F958F80933D01FF91EF919F918F91C6
:100810002F910F900FBE0F901F9018958081F4CFED
:100820001F920F920FB60F9211242F933F934F9365
:100830005F936F937F938F939F93AF93BF93EF9348
:10084000FF9384E291E0CDDEFF91EF91BF91AF91F4
:100850009F918F917F916F915F914F913F912F91D8
:100860000F900FBE0F901F901895E4E2F1E01382F5
:10087000128288EE93E0A0E0B0E084839583A683A3
:10088000B78387E091E09183808385EC90E0958742
:10089000848784EC90E09787868780EC90E0918B4A
:1008A000808B81EC90E0938B828B82EC90E0958B37
:1008B000848B86EC90E0978B868B118E128E138E34
:1008C000148E0895AF92BF92CF92DF92EF92FF9273
:1008D0000F931F93CF93DF936C017B018B01040F68
:1008E000151FEB015E01AE18BF08C017D10759F004
:1008F0006991D601ED91FC910190F081E02DC60146
:100900000995892B79F7C501DF91CF911F910F913F
:10091000FF90EF90DF90CF90BF90AF900895A1E24D
:100920001A2EAA1BBB1BFD010DC0AA1FBB1FEE1F69
:10093000FF1FA217B307E407F50720F0A21BB30BB4
:10094000E40BF50B661F771F881F991F1A9469F730
:1009500060957095809590959B01AC01BD01CF018C
:100960000895EE0FFF1F0590F491E02D0994F8947F
:02097000FFCFB7
:100972000116010000000032036204E2021303B414
:0609820002CE02C00200DB
:00000001FF
