:100000005CC0000082C0000080C000007EC0000014
:100010007CC000007AC0000078C0000076C00000FC
:1000200074C0000072C0000070C000006EC000000C
:100030006CC000000C94682368C0000066C000001B
:100040000C94A42662C000000C94B6290C94E829F4
:100050005CC000005AC0000058C0000056C000003C
:1000600054C0000052C0000000000008000201005F
:100070000003040700000000000000000102040863
:100080001020408001020408102001020408102002
:10009000040404040404040402020202020203032E
:1000A0000303030300000000250028002B000000CC
:1000B0000000240027002A000D2A11241FBECFEFC4
:1000C000D8E0DEBFCDBF11E0A0E0B1E0E6E7F5E5A6
:1000D00002C005900D92A63CB107D9F724E0A6EC2A
:1000E000B1E001C01D92A63DB207E1F710E0CDE5F9
:1000F000D0E004C02197FE010E948A2ACC35D107A6
:10010000C9F70E9466240C94B92A7ACFCF93DF9363
:10011000882349F0EB0181500E94842799838883CA
:10012000DF91CF910895FB0111821082F9CF0F93D7
:100130001F938B019C0183E03695279517950795B2
:100140008A95D1F701531E4F462F477021E030E0CA
:10015000F90102C0EE0FFF1F4A95E2F7AF01F80167
:1001600020812423CB010196211102C090E080E080
:100170001F910F9108950F931F938B019C0183E0B2
:1001800036952795179507958A95D1F7677081E081
:1001900090E001C0880F6A95EAF7F801E153FE4F3D
:1001A0002081452B31F48095822380831F910F910C
:1001B0000895822BFACFCF92DF92EF92FF92CF93E6
:1001C000DF936B017C0160E08EE0C816D104E1048E
:1001D000F10490F48EE08C0D0E942328E601219614
:1001E000AE01C701B601C7DFCE01DF91CF91FF900D
:1001F000EF90DF90CF9008958C2DEECF882341F0C3
:100200008150682F70E090E080E050E040E0B3CF94
:100210000895CF92DF92EF92FF92CF93882351F10E
:100220006A017B01CFEFC80F20E030E0A901CB01CC
:10023000B6010E94EE2487FF11C0C701B601905895
:100240000E945F259B01AC016C2F70E090E080E084
:10025000CF91FF90EF90DF90CF90B2C0C701B60171
:100260000E945A258C2FCF91FF90EF90DF90CF9076
:100270000C949F27CF91FF90EF90DF90CF9008953F
:100280000F931F938B019C0183E03695279517955B
:1002900007958A95D1F70A531E4F462F477021E0E4
:1002A00030E0F90102C0EE0FFF1F4A95E2F7AF01FF
:1002B000F80120812423CB010196211102C090E096
:1002C00080E01F910F9108950F931F938B019C0164
:1002D00083E036952795179507958A95D1F767702E
:1002E00081E090E001C0880F6A95EAF7F801EA53CF
:1002F000FE4F2081452B31F48095822380831F910E
:100300000F910895822BFACF2F923F924F925F92D6
:100310006F927F928F929F92AF92BF92CF92DF9215
:10032000EF92FF920F931F93CF93DF93D62EC72E9A
:10033000782E692E49015A01280161E08D2D0E9415
:100340002328CD2DDC2D8E010F5F1F4FA8016D2DB1
:100350007C2D872D962DB8DF20E030E0A901C20169
:10036000B7010E943D26181664F4C201B7010E942D
:100370005F252B01C501B4010E945F25A201CE01BA
:1003800023D0C801DF91CF911F910F91FF90EF9083
:10039000DF90CF90BF90AF909F908F907F906F90A5
:1003A0005F904F903F902F900895882341F08150A7
:1003B000682F70E090E080E050E040E085CF089545
:1003C000862FB9010C949F279C01FC01E859FF4F2F
:1003D000E491E33061F140F4E13011F1E23021F1D8
:1003E00060E0822F0C945F28E730C1F1E83009F417
:1003F00041C0E430A9F7809180008C7F82608093B7
:10040000800090918100907E9061692B60938100C3
:1004100050938700409386008091800080621BC0CB
:1004200084B5806884BDDCCF84B58062FBCF8091C9
:1004300080008C7F82608093800090918100907E0C
:100440009061692B609381005093870040938600F0
:1004500080918000806880938000C2CF8091B0003E
:1004600080688093B0008091B100887F682B609392
:10047000B100B6CF8091B0008062F3CF90E080E011
:1004800008950F931F93009709F487C061157105B4
:1004900009F483C0009108011091090120910A011B
:1004A00030910B010E3F1F4F2F4F3F4F09F066C099
:1004B0004FEF5FEFBA014093080150930901609339
:1004C0000A0170930B01409108015091090160915C
:1004D0000A0170910B01DC011296ED91FC91808173
:1004E0009181A281B3818093420290934302A093B1
:1004F0004402B093450284819581A681B78180939F
:100500003E0290933F02A0934002B0934102808547
:100510009185A285B38580933A0290933B02A09384
:100520003C02B0933D0284859585A685B78580936E
:10053000360290933702A0933802B093390210929A
:100540003202109233021092340210923502D1D44A
:100550008EE997E09093D9018093D8019093DB01C5
:100560008093DA01B5D3009731F421E030E0309385
:100570004702209346021F910F91089500910801B0
:100580001091090120910A0130910B01DB010D93BB
:100590001D932D933C93139796CF8FEF9FEFEBCF47
:1005A0008F929F92AF92BF92CF92DF92EF92FF9283
:1005B0001F93CF93DF934B015C011091490282E0BE
:1005C00090E0909347028093460281149104A10425
:1005D000B10441F480914902811104C08091480224
:1005E000C1E08111C0E0C12CD12C7601809149027B
:1005F000811106C080914802811102C0CC23D1F044
:1006000083E090E09093470280934602CC2371F1FF
:10061000CCE9DFEF111101C0F5D7CE01DF91CF9109
:100620001F91FF90EF90DF90CF90BF90AF909F9081
:100630008F9008956AE070E080E090E00E941327B8
:1006400080E1C80E87E2D81EE11CF11C8FEF8816EE
:100650009806A806B80631F0C1E08C149D04AE04DB
:10066000BF0408F0C0E080E067D3C0CFD0E0C0E0B6
:10067000D1CFCF92DF92EF92FF920F931F93CF9340
:10068000DF938F3F910511F008F050C02091460292
:10069000309147022330310539F0209146023091E4
:1006A00047022130310531F424E030E03093470235
:1006B000209346026A017B01EC0182309105A0F093
:1006C00011E0AE01C701B60102D3AB01BC01CE01FE
:1006D0001123F9F0DF91CF911F910F91FF90EF90CF
:1006E000DF90CF900C942B0D8C01000F111F08523E
:1006F0001E4FD8018D919C91892B11F30E94350DCD
:100700000297F1F6D801ED91FC91CE010995182FD1
:10071000D8CF0E944D0D90E080E0DF91CF911F91E6
:100720000F91FF90EF90DF90CF9008958FEF9FEFA4
:10073000F4CF80E001C3CF93DF9386E090E0909305
:1007400047028093460251D3EC01E8EDF1E084E0EA
:10075000DF011D928A95E9F7EDD6109247021092BB
:100760004602CE01DF91CF9108958091480208950D
:10077000809131020895609308017093090180937C
:100780000A0190930B0190E080E00895CF92DF92F0
:10079000EF92FF92CF93DF93C0900001D0900101C0
:1007A000E0900201F0900301A70196016091C4045A
:1007B0007091C5048091C6049091C7040E94EE24F4
:1007C000882341F0C092C404D092C504E092C604CC
:1007D000F092C7046EE070E080E090E0A8DC9093B7
:1007E000C3048093C20443E050E062ED74E08EDC09
:1007F0006091D2047091D30490E080E00E948B2538
:1008000020910401309105014091060150910701AA
:100810000E9441266B017C0120E030E04FE753E469
:100820000E94EE24181634F4C12CD12C8FE7E82E48
:1008300083E4F82E65E070E080E090E021DDEC01DB
:100840009093CF048093CE0420E030E0A901C7014B
:10085000B6010E943D2687FF03C0C12CD12C760132
:1008600020E030E04FE753E4C701B6010E94412683
:1008700020E030E04FE753E40E94F224AB01BC01DA
:100880007058CE01C6DC6091080270910902809117
:100890000A0290910B026F5F7F4F8F4F9F4F6093C3
:1008A00008027093090280930A0290930B020E943F
:1008B0008B259B01AC0160910C0270910D0280911F
:1008C0000E0290910F020E944126609304027093E1
:1008D00005028093060290930702DF91CF91FF906B
:1008E000EF90DF90CF9008958F929F92AF92BF923A
:1008F000DF92EF92FF920F931F93CF93DF93EEEE71
:10090000F1E080E090E0A0E8BFEB82A393A3A4A372
:10091000B5A38AE097EDA3E2BCE3868F978FA0A3EF
:10092000B1A383E898EEAAECB7E184839583A6830C
:10093000B78386E293EFA2E9BEEB80879187A28717
:10094000B38784E59DEDA7EFBEE684879587A687EC
:10095000B78789E990EBA7E7B6E5808B918BA28BEF
:10096000B38BA2EEB1E0B383A283ECEDF1E011967C
:10097000FC93EE9382E391E091838083938382835F
:100980009583848382E092E015969C938E931497CE
:1009900082EF91E013969C938E93129784E092E0FD
:1009A00017969C938E931697CCEBD4E01882809187
:1009B000000190910101A0910201B091030188878B
:1009C0009987AA87BB87812C912C540183948982B3
:1009D0009A82AB82BC826EE070E080E090E0EBDB5C
:1009E0009F838E83DD24D394DD821C868D869E8634
:1009F000AF86B88AE12CF12C0FE713E420E030E059
:100A0000A90165E070E080E090E07EDC9B8B8A8B42
:100A1000D98ADF91CF911F910F91FF90EF90DF90D6
:100A2000BF90AF909F908F9008958091BC048111EA
:100A30001DC081E08093BC048091BD049091BE04F0
:100A4000A091BF04B091C0040197A105B10571F454
:100A50008091C104882351F06EE070E080E090E066
:100A600066DB9093C3048093C204C8DB8091C80402
:100A700081112BC081E08093C8048091C9049091BA
:100A8000CA04A091CB04B091CC040197A105B10593
:100A9000E1F48091CD048823C1F065E070E080E04E
:100AA00090E0EEDB9093CF048093CE0440E050E0E2
:100AB00060E070E8AEDB65E070E080E090E0E0DBF5
:100AC0009093CF048093CE0470CC08954F925F92A0
:100AD0006F927F928F929F92AF92BF92CF92DF924E
:100AE000EF92FF920F931F93F89440902102509041
:100AF00022026090230270902402C0901502D090D0
:100B00001602E0901702F0901802452B09F0A4C0DD
:100B10009B01AC01241935094609570929013A01FD
:100B200000911D0210911E0220911F02309120029F
:100B300048015901840C951CA61CB71C801691060F
:100B4000A206B306A0F40091190210911A02209196
:100B50001B0230911C020F5F1F4F2F4F3F4F00931E
:100B6000190210931A0220931B0230931C028092E8
:100B70001D0290921E02A0921F02B09220020091CC
:100B8000190210911A0220911B0230911C028092CE
:100B9000250290922602A0922702B092280200938A
:100BA000290210932A0220932B0230932C02609387
:100BB0002102709322028093230290932402A0E1E9
:100BC000B7E2A30192010E94902A6C0D7D1D8E1D3B
:100BD0009F1D6093150270931602809317029093E5
:100BE0001802009108011091090120910A01309129
:100BF0000B010F3F1F4F2F4F3F4FF1F000910801A6
:100C00001091090120910A0130910B010E3F1F4FF5
:100C10002F4F3F4F89F0C0900801D0900901E0901C
:100C20000A01F0900B0121E08C149D04AE04BF0476
:100C300008F420E02093310278941F910F91FF90E7
:100C4000EF90DF90CF90BF90AF909F908F907F906C
:100C50006F905F904F9008954B015C018418950848
:100C6000A608B708A3019201261B370B480B590BA6
:100C70006415750586059705D0F082169306A406BF
:100C8000B50640F420E030E0A90181149104A104EC
:100C9000B10491F4A0E1B7E20E94902AA701960165
:100CA000261B370B480B590BCA01B901C5CF821659
:100CB0009306A406B50670F7A0E1B7E2A50194017A
:100CC0000E94902A6C0D7D1D8E1D9F1DB5CFFECEFE
:100CD000CF93DF9300D000D0CDB7DEB71C821B824C
:100CE0001A82198210922D0210922E0210922F0257
:100CF00010923002BE016F5F7F4FCE0103960E94BB
:100D00004C2369817A818B819C810E94441C0097CD
:100D100061F4BE016F5F7F4FCE0103960E9458239E
:100D200069817A818B819C812CD50F900F900F90D7
:100D30000F90DF91CF910895FF920F931F93CF9360
:100D4000DF93082F60E070E0CB010E941327FF249F
:100D5000F3940E942F1BEC01892B89F010E0CE3F09
:100D60008FEFD80769F0002361F160E070E0CB01FC
:100D70000E94132781E090E0892B59F322C011E0F3
:100D800023D5EC01892B21F0CE3F8FEFD80759F7FF
:100D900011111EC011E0229609F410E00E94E01A21
:100DA000EC01892B21F0CE3F8FEFD807E1F611112E
:100DB00011C011E0CE3F8FEFD80709F410E0011108
:100DC0000BC0CE01DF91CF911F910F91FF9008953D
:100DD00011E0E4CF11E0F3CF60E070E0CB010E94BE
:100DE00013271F25812F90E0C7CFCF93DF938091EA
:100DF0003102882321F060E070E0CB014CD635D67B
:100E0000D0E0C0E0892B71F06AE070E080E090E013
:100E10000E94132781E090DF28D62196C03D27E06D
:100E2000D20781F727D60E94981C1092490210928F
:100E30004802109242021092430210924402109211
:100E4000450210923E0210923F0210924002109210
:100E5000410210923A0210923B0210923C02109210
:100E60003D02109236021092370210923802109210
:100E70003902109232021092330210923402109210
:100E800035024EEF5FEF6FEF7FEF40930801509315
:100E9000090160930A0170930B0110923102E5E29F
:100EA000F2E028E0DF011D922A95E9F71092210275
:100EB00010922202109223021092240210921D021C
:100EC00010921E0210921F0210922002109219021C
:100ED00010921A0210921B0210921C02109215021C
:100EE000109216021092170210921802DF91CF9101
:100EF00008951092550210925602109257021092C5
:100F000058021092540280915D0290915E0290937B
:100F1000530280935202109251021092500210928A
:100F20004C0210924D0210924E0210924F021092FB
:100F30005A021092590290E080E00895CF92DF9219
:100F4000EF92FF920F931F93CF938C01892B09F09F
:100F500055C020915D0230915E02809152029091C5
:100F6000530240915D0250915E02509353024093B0
:100F700052022817390781F0109251021092500244
:100F800010924C0210924D0210924E0210924F029B
:100F900010925A021092590280915D0290915E0265
:100FA000019761F58091590290915A02892B21F4A1
:100FB00080910C01811112C08091590290915A02C6
:100FC0000197E1F480914C0290914D02A0914E0264
:100FD000B0914F020197A105B10581F410924C0226
:100FE00010924D0210924E0210924F0210920C017C
:100FF00082E090E090935A028093590280915D02C2
:1010000090915E02019709F01CC18091730290914A
:1010100074028017910709F014C180916F029091BA
:101020007002A0917102B0917202009709F409C197
:1010300020916E0221110DC040916F0250917002FB
:101040006091710270917202452B462B472B09F477
:10105000F8C02091590230915A022230310509F02E
:10106000F0C0209150022111ECC0FC01C080D18061
:10107000E280F38080915402882309F4D3C08091E8
:10108000600290916102892B09F4FDC020916002F9
:101090003091610281E02230310509F080E0209139
:1010A000600230916102C1E02130310549F02091A8
:1010B000600230916102C1E02230310509F0C0E0E8
:1010C000882309F456C020916A0230916B02409146
:1010D0006C0250916D02C701B6010E943D2687FD4A
:1010E00014C020916A0230916B0240916C025091C1
:1010F0006D02609155027091560280915702909155
:1011000058020E94EE2487FD22C020916A0230918D
:101110006B0240916C0250916D02C701B6010E94B2
:101120003D26181634F520916A0230916B024091E9
:101130006C0250916D02609155027091560280913F
:101140005702909158020E94EE24811112C08091A2
:10115000620290916302A0916402B0916502892BB2
:101160008A2B8B2B19F481E08093510281E08093CC
:101170005002CC2309F456C020916A0230916B02D0
:1011800040916C0250916D02C701B6010E94EE249D
:1011900087FF14C020916A0230916B0240916C026B
:1011A00050916D02609155027091560280915702E4
:1011B000909158020E943D2687FF22C020916A022A
:1011C00030916B0240916C0250916D02C701B601E3
:1011D0000E94EE24811126C020916A0230916B0298
:1011E00040916C0250916D026091550270915602CF
:1011F00080915702909158020E943D26181694F44F
:101200008091620290916302A0916402B0916502A4
:10121000892B8A2B8B2B19F481E08093510281E07A
:101220008093500281E090915002911180E0809370
:101230005402C0925502D0925602E0925702F092A8
:101240005802012B09F067C18091590290915A020E
:10125000892BD9F410925F021092500280910C01F8
:10126000882379F082E090E090935A0280935902AB
:1012700010920C0120915D0230915E0281E0232BDF
:10128000E9F080E01BC081E00ACF10920C01809150
:101290005F02882349F01092510210925A02109274
:1012A000590210925F02EDCF80915D0290915E0233
:1012B000892BE1F080915002109250022091590246
:1012C00030915A022230310509F45EC088F42115AC
:1012D000310509F448C02130310509F4F3C01092FA
:1012E00051021092500210925F0238C081E0E6CFA6
:1012F0002330310509F4B1C02430310581F7409124
:101300004C0250914D0260914E0270914F02411576
:1013100051056105710561F041505109610971097B
:1013200040934C0250934D0260934E0270934F02D3
:1013300040914C0250914D0260914E0270914F02CB
:10134000452B462B472BD9F420915B0230915C0250
:101350002130310509F046C01092510210925A0214
:10136000109259020CC080910C01882341F082E058
:1013700090E090935A028093590210920C011092BF
:101380004A0280915102CEC08823C9F38091620243
:1013900090916302A0916402B0916502181619063B
:1013A0001A061B060CF07DC080915D0290915E02D2
:1013B000019709F076C08091620290916302A0913A
:1013C0006402B091650280934C0290934D02A09309
:1013D0004E02B0934F0283E090E090935A028093C4
:1013E0005902CDCF40916602509167026091680228
:1013F00070916902452B462B472BA9F010925102A0
:101400008091660290916702A0916802B091690292
:1014100080934C0290934D02A0934E02B0934F02E2
:1014200081E090E0DACF882399F080910D019091CE
:101430000E01A0910F01B091100180934C02909386
:101440004D02A0934E02B0934F0284E090E0C5CFCE
:101450001092510282E090E0C0CF80914C029091B6
:101460004D02A0914E02B0914F020097A105B10527
:1014700059F00197A109B10980934C0290934D0254
:10148000A0934E02B0934F0280914C0290914D0276
:10149000A0914E02B0914F02892B8A2B8B2B09F021
:1014A0006ECF80910D0190910E01A0910F01B0912E
:1014B0001001892B8A2B8B2B09F44ECF81E080936E
:1014C0005102B3CF40914C0250914D0260914E02B7
:1014D00070914F02411551056105710561F0415050
:1014E00051096109710940934C0250934D02609378
:1014F0004E0270934F0240914C0250914D02609108
:101500004E0270914F02452B462B472B09F037CFE7
:101510008111C7CF9FCF80914A02882309F431CF30
:1015200080914B02CF911F910F91FF90EF90DF9030
:10153000CF900895109255021092560210925702C1
:10154000109258021092540210925A0210925902AC
:10155000109253021092520210927402109273026F
:10156000109251021092500210924C0210924D02B1
:1015700010924E0210924F0210924B0210924A02A9
:1015800010926F0210927002109271021092720209
:1015900010926E0210926A0210926B0210926C020C
:1015A00010926D0288EE93E0A0E0B0E080930D0110
:1015B00090930E01A0930F01B09310011092660258
:1015C00010926702109268021092690210926202F1
:1015D00010926302109264021092650210926102EE
:1015E0001092600281E080930C0110925F021092D1
:1015F0005E0210925D0210925C0210925B0290E01B
:1016000080E0089580915D0290915E02892B19F52A
:1016100080910C01882351F080915F02811106C0F6
:1016200081E080934B0280934A02089520915F02EB
:1016300030910C0181E090E0332311F090E080E0E4
:1016400030E082239323892B21F010924B0281E01A
:10165000EACF10924A02089582E090E0FA01918365
:1016600080838FEF9FEF0895CF93DF93EA01009778
:1016700011F00E94B51D1982188290E080E0DF9180
:10168000CF910895DB01009719F48FEF8C930895A3
:101690002EEF2C930F968F30910508F033C0FC018C
:1016A000EC5AF44F0C948A2A800B7E0B7C0B7A0B3D
:1016B000780B740B760B720B700B6E0B6B0B670B4E
:1016C000630B690B820B80E311968C93089589E27A
:1016D000FBCF82E2F9CF11961C92089583E2F4CFFA
:1016E00081E2F2CF81E1F0CF87E2EECF8AE2ECCF68
:1016F00080E1EACF84E2E8CF88E2E6CF86E2E4CF79
:1017000081E3E2CF80E2E0CF80918102909182027A
:1017100008959093820280938102089580918002BF
:10172000089590918002892B809380020895982FCC
:101730009095809180028923809380020895809102
:101740007F02089580917D0290917E020895611537
:10175000710559F0FB0130E020E070E060E02417F3
:10176000350719F06115710511F0CB010895A081BD
:10177000B181A817B90709F4BF012F5F3F4F369613
:10178000EECF8091830281111CC062D268D2909307
:101790007602809375020E94C8150E94DA15909314
:1017A0007A02809379020E944A1A0E94511A9093F9
:1017B00078028093770281E08093830290E080E05A
:1017C000089584EF9FEF08958F929F92AF92BF92FA
:1017D000CF92DF92EF92FF920F931F93CF93DF93FD
:1017E000CDB7DEB72A970FB6F894DEBF0FBECDBFD8
:1017F0001A86198618861F821E821D821C821B82F1
:101800001A8219828091830207EF1FEF882309F45F
:101810009CC08E010D5F1F4F9E012B5F3F4FAE019D
:10182000495F5F4FBE01675F7F4F90E080E00E949D
:10183000CA1B8C01009721F00596029708F0DBC0C7
:1018400029853A852115310509F402C1ED80FE8014
:101850004B815C81B701640F751F8F819885861756
:10186000970708F4F5C0E20EF31ED7019C91903C57
:1018700009F07FC04230510508F47BC011968C916D
:101880004091810250918202452B09F49CC0913F06
:1018900008F071C02CE1290F2D3008F48BC02DE227
:1018A000290F203108F489C0903C21F48150823006
:1018B00008F483C088E3890F8B3008F481C092E478
:1018C000C92E9BE0D92EECE2FBE06D817E81AE015A
:1018D0004F5F5F4F89859A8509955C01C114D104DA
:1018E000A1F189809A808114910479F18B819C8186
:1018F0008815990508F487C010E000E04B815C81F1
:1019000070E060E0C7010E94B22A01151105E9F4F8
:1019100049815A8169857A858D819E81680F791FF9
:10192000C501F6010995E980FA800D811E812F819C
:10193000388549855A856FEF7FEF81E090E00E94FE
:10194000661B8C01892B09F056C0C8012A960FB678
:10195000F894DEBF0FBECDBFDF91CF911F910F91E5
:10196000FF90EF90DF90CF90BF90AF909F908F90BF
:10197000089580E085CF30E020E0220F331FF90189
:10198000EB58FD4F0190F081E02D309709F497CF8F
:10199000892F90E00995009709F491CFDC01129608
:1019A000ED91FC9113971496CD90DC90309709F04F
:1019B0008CCF1FC021E030E0E0CF22E030E0DDCF6F
:1019C00023E030E0DACFD12CC12CE4E3FBE09F3FF1
:1019D00009F07BCFE0917502F0917602309721F407
:1019E000C90104EF1FEF0CC08FEF90E0099500973D
:1019F000A9F604EF1FEF89859A85009709F4A5CF12
:101A00000E94B51DA2CF0E94931C8C0189859A85E6
:101A10000E94B51D70E060E0C4010E942C1C9887F4
:101A20008F830E94631B9E838D836F8178856115F0
:101A3000710559F0C8010E94411F9A87898706EFF6
:101A40001FEF892B09F058CF59CF08EF1FEF56CF62
:101A500008EF1FEFD0CF20918302222319F020E05E
:101A60000C94DF1587EF9FEF08958091810290918C
:101A7000820208950E94561A0E94B019F5D0E5E737
:101A8000F2E088E0DF011D928A95E9F71092830267
:101A900090E080E008950C940D1821E040E050E0C3
:101AA000BA010C94DF1586E090E0FA0191838083FF
:101AB00090E080E0089547E050E065E371E047CEB4
:101AC000DF92EF92FF920F931F93CF93DF938A01E0
:101AD000EC01C60FD71FE0908702F0908802D980F2
:101AE0000E947B1CD816190678F082E090E0F8017D
:101AF000918380838EEF9FEFDF91CF911F910F91A4
:101B0000FF90EF90DF900895EF2841F482E090E09D
:101B1000F8019183808384EF9FEFEECF89818093DA
:101B2000860290E00196F8019183808390E080E046
:101B3000E3CFCF93DF93EA010E94BE18882321F000
:101B40000E94881C0E94BF1882E090E099838883DD
:101B50008BEF9FEFDF91CF910895CF93DF93EB0150
:101B600086E0FB0111928A95E9F78FEF8883D6DD35
:101B70008983E5DD8A83E6DD9D838C83DF91CF91C8
:101B80000895CF93DF93EA010E94C118811109C023
:101B900082E090E09983888385EF9FEFDF91CF917A
:101BA000089590E080E0B5DD81E090E0998388833E
:101BB00090E080E0F3CF0F931F93CF93DF93EA0180
:101BC0008C01060F171F0E94C11881110BC082E003
:101BD00090E09983888385EF9FEFDF91CF911F91EC
:101BE0000F910895F8018181823038F082E090E011
:101BF000998388838EEF9FEFF0CF81E090E089DDBD
:101C000088E090E09983888390E080E0E6CFCF93EE
:101C1000DF930097D1F4EB01FB01329686E0DF0100
:101C20001D928A95E9F78FEF888385E089831A8270
:101C30000E947B1C8B830E947A1C9D838C8381E095
:101C40008E838F83DF91CF910895DF91CF911ACD4D
:101C50008BE59DE0909385028093840208958091A6
:101C60008402909185020895109285021092840258
:101C7000089580918702909188020895411105C0CE
:101C8000611571058105910561F06093870270937C
:101C900088028093890290938A0240938B0281E0AC
:101CA000089580E00895FF920F931F93CF93DF93E1
:101CB0008A01EC01C60FD71FF9800E947B1CF81621
:101CC000190668F082E090E0F801918380838EEF3E
:101CD0009FEFDF91CF911F910F91FF9008956C813D
:101CE0007D818E819F814B81C9DF811108C082E097
:101CF00090E0F8019183808384EF9FEFEACF8981A0
:101D00008093860290E00196F8019183808390E0B1
:101D100080E0DFCFCF93DF93EA01FC01E60FF71FEE
:101D200064817581868197814381A8DF811109C013
:101D300082E090E09983888384EF9FEFDF91CF91D9
:101D4000089581E090E09983888390E080E0F6CF69
:101D5000E7E8F2E04081518162817381480F511DB3
:101D6000611D711D40835183628373830895CF93F6
:101D7000C09186024C2F50E06091870270918802DA
:101D800001960E94A92A8C2FE3DF10928602CF9140
:101D90000895009799F480918702909188022FEF1F
:101DA000FB012083892B59F02091860230E02F5FC0
:101DB0003F4F2417350719F4CB01D9CF63CC0895D1
:101DC000009799F480918702909188022FEFFB0190
:101DD0002083892B59F02091860230E02F5F3F4FFE
:101DE0002417350719F4CB01C2CF4CCC089523E159
:101DF000AC01249FC001259F900D1124E091900219
:101E0000F0919102E80FF91F2381348122503109AA
:101E100081E02230310508F080E008950F931F9390
:101E2000CF93DF930091920210919302D0E0C0E033
:101E300080E00C171D0749F491E0811190E0892F93
:101E4000DF91CF911F910F9108958111F5CFCE01B0
:101E5000CEDF2196EECFA0919002B0919102109723
:101E600029F1209192023091930282179307F0F4A6
:101E700053E1589F9001599F300D1124A20FB31FB9
:101E8000ED91FC911197309789F012968C9168171B
:101E900068F48BE0689FE00DF11D11248081918131
:101EA000892B21F081E09281491708F080E00895A4
:101EB0009C0143E1429FC001439F900D1124E0919A
:101EC0009002F0919102E80FF91F8385823091F41E
:101ED00081E090E06581768140911101509112017D
:101EE0006417750711F490E080E0892B19F081E008
:101EF000232B09F080E00895EF92FF920F931F9338
:101F0000CF93DF93EA01FC01E60FF71F02811381F3
:101F1000E480F5804F2D6E2DC8019DDF81110DC02D
:101F200082E090E0998388838EEF9FEFDF91CF91DD
:101F30001F910F91FF90EF900895C80158DF8823FB
:101F400039F082E090E09983888388EF9FEFEECFAD
:101F50001093180100931701E0921901F0921A01F1
:101F600081E090E09983888390E080E0DFCFCF929A
:101F7000DF92EF92FF920F931F93CF93DF937A013B
:101F8000EC01C60FD71FC0901701D0901801009127
:101F9000190110911A01412F602FC6015CDF8111D8
:101FA00010C082E090E0F701918380838AEF9FEF79
:101FB000DF91CF911F910F91FF90EF90DF90CF9025
:101FC0000895C60114DF882341F082E090E0F70114
:101FD0009183808388EF9FEFEBCF4C815D816E8191
:101FE0007F819A8189818F3F41F082E090E0F70103
:101FF000918380838EEF9FEFDBCFE3E1EC9D900137
:10200000ED9D300D1124E0919002F0919102E20FCC
:10201000F31F0190F081E02D2BE0029FE00DF11DF8
:1020200011240190F081E02D27E0129FE00DF11DB9
:102030001124808391838B818283438354836583BE
:1020400076831F5F10931A0181E090E0F70191837E
:10205000808390E080E0ACCFEF92FF920F931F93CC
:10206000CF93DF937A018C01060F171FC091900266
:10207000D0919102209781F021E030E0F801828137
:10208000938140919202509193028417950710F02A
:1020900030E020E0232B71F482E090E0F70191839F
:1020A00080838EEF9FEFDF91CF911F910F91FF9073
:1020B000EF90089543E1489F9001499F300D11240E
:1020C000C20FD31F94DE882341F082E090E0F70135
:1020D0009183808388EF9FEFE6CFF80124813581DB
:1020E00020383105C8F687818111D6CF4181842FF0
:1020F00090E08F7E009741F082E090E0F7019183BD
:10210000808386EF9FEFCFCF4F833E832D83268141
:1021100028871986223010F421E0288721E030E05A
:10212000F70131832083BFCF88E090E0FA019183EB
:10213000808390E080E00895FB018FEF808381E150
:1021400081838FEF9FEF9383828380E890E0958374
:102150008483168217820895FB018FEF808391E0BC
:10216000918382839383848384E3858381E090E0F9
:10217000978386830895DF92EF92FF920F931F93C8
:10218000CF93DF93EA01FC01E60FF71F81818130D5
:1021900071F082E090E0998388838FEF9FEFDF9169
:1021A000CF911F910F91FF90EF90DF900895828162
:1021B0009381D4802581E680F78000919002109170
:1021C00091020115110539F482E090E0998388832A
:1021D0008CEF9FEFE4CF40919202509193028417CD
:1021E000950738F082E090E0998388838EEF9FEF27
:1021F000D6CF892B39F082E090E09983888386EFEF
:102200009FEFCDCF8D2D8D7FB1F72130A1F781E0EC
:10221000D11006C091E0E916F10431F080E004C06D
:10222000E2E0EE16F104D0F3882329F390E080E099
:10223000DEDD882339F082E090E09983888388EF9F
:102240009FEFADCFF801D38681E08487F686E586DF
:10225000108A178681E090E09983888390E080E07F
:102260009ECF4CE050E06FE571E071CA8F929F9273
:10227000BF92CF92DF92EF92FF920F931F93CF9373
:10228000DF93EA01FC01E60FF71F8281938104814D
:10229000B580E0919002F0919102309791F482E044
:1022A00090E0998388838CEF9FEFDF91CF911F910E
:1022B0000F91FF90EF90DF90CF90BF909F908F9005
:1022C000089520919202309193028217930738F07B
:1022D00082E090E0998388838EEF9FEFE6CF23E141
:1022E000289F6001299FD00C1124EC0DFD1DE0807A
:1022F000F180E114F10499F28281081748F78BE02C
:10230000089F80011124E00EF11EF7018081918168
:10231000892B29F6BB20E1F2F7E0BF9E4001112492
:10232000C4010E947C1DF70191838083E09190029B
:10233000F0919102EC0DFD1D0190F081E02DE00F78
:10234000F11F80819181009739F482E090E09983B8
:1023500088838DEF9FEFA9CFA40170E060E00E9419
:10236000B22A8091900290919102C80ED91EF60176
:1023700080819181080F191FF801B28281E090E0FD
:102380009983888390E080E090CFAF92BF92CF9204
:10239000DF92FF920F931F93CF93DF93EA01FC012B
:1023A000E60FF71F82819381F480009190021091D3
:1023B00091020115110581F482E090E099838883F0
:1023C0008CEF9FEFDF91CF911F910F91FF90DF90E6
:1023D000CF90BF90AF9008952091920230919302D8
:1023E0008217930738F082E090E0998388838EEF1C
:1023F0009FEFE8CF2FEF2F0D2C3FA8F723E1289F69
:102400006001299FD00C11240C0D1D1DF801808145
:102410009181892B89F6FBE0FF9E50011124C501B3
:102420000E947C1DF80191838083E0919002F091DD
:102430009102EC0DFD1D80819181009739F482E0BD
:1024400090E0998388838DEF9FEFBCCFA50170E06A
:1024500060E00E94B22AE0919002F0919102EC0DAE
:10246000FD1DF28281E090E09983888390E080E016
:10247000A9CFCF92DF92EF92FF920F931F93CF934A
:10248000DF93860F971FFC010281138180919002D8
:1024900090919102892B81F082E090E0FA01918382
:1024A00080838CEF9FEFDF91CF911F910F91FF9071
:1024B000EF90DF90CF900895C801B0E0A0E00197C1
:1024C000A109B1098F3F9F4FA105B10540F082E0FE
:1024D00090E0FA01918380838EEF9FEFE4CF7A0141
:1024E00083E1809F6001819FD00C1124C6010E946E
:1024F0007C1DEC01009741F482E090E0F7019183AC
:1025000080838DEF9FEFCFCFA60170E060E00E9447
:10251000B22AD0939102C093900210939302009339
:10252000920290E080E02FEF3FEF41E061E070E049
:102530008017910741F481E090E0F7019183808357
:1025400090E080E0B0CF3A8B298B1B864C877E874A
:102550006D87188A1F8601966396EACFCF92DF9225
:10256000EF92FF920F931F93CF93DF93EC01D12C47
:10257000C12C10E000E0F12CE12C6A8170E006171C
:102580001707BCF0660F771FAE014F5E5F4FC701A4
:102590000E94E11D009721F02FEF3FEF3A8B298B2E
:1025A000DF91CF911F910F91FF90EF90DF90CF902F
:1025B0000895E881F981EC0DFD1D438154818D85DD
:1025C0009E85489F9001499F300D589F300D1124E2
:1025D000C90101960115110519F44F8144FD0496B6
:1025E00061E070E00E942C1CE816F90608F47C01FA
:1025F0000F5F1F4F8BE0C80ED11CBFCFF894209106
:102600008E0230918F0281E02115310509F080E0C2
:10261000232B09F0789408952F923F924F925F9266
:102620006F927F928F929F92AF92BF92CF92DF92E2
:10263000EF92FF920F931F93CF93DF933C01660EAF
:10264000771EF301828193814C01B12CA12CC091A2
:102650009002D0919102209769F021E030E06091E2
:102660009202709193028617970710F030E020E0F5
:10267000232BD1F482E090E0FA01918380838EEFE6
:102680009FEFDF91CF911F910F91FF90EF90DF901F
:10269000CF90BF90AF909F908F907F906F905F9002
:1026A0004F903F902F90089580921B0190921C01B3
:1026B000A0921D01B0921E0163E1689F9001699F85
:1026C000300D1124C20FD31FF3018181833040F0FC
:1026D00082E090E0FA019183808386EF9FEFD1CF73
:1026E0002A012B813C81232BF1F4288139819F81A0
:1026F00091FF2EC0232B09F46FC0209195029A817F
:10270000422F490F5527551FBA0141E050E061386B
:10271000710514F050E040E0452B09F45DC02A87B4
:10272000920F909395028150823008F481C066DF49
:10273000882309F4D8C0F3018181813009F48DC068
:1027400008F47BC0823009F4C6C090E080E0ADC0E0
:10275000232B09F441C0209194029A81E22FE90FC2
:10276000FF27FF1F41E050E0ED3FF10514F050E07E
:1027700040E0452B89F12A87920F90939402D3CFA2
:10278000A081B181A20FB31F11966C91060F111D8C
:102790000196295F3F4F8417950794F38D859E8599
:1027A000089F1001099F300C189F300C1124C11490
:1027B000D104D1F48F8184FF17C00E947A1CF5E008
:1027C0002F0E311C21E08215930508F420E0A701AB
:1027D000455F5F4F21110EC082E090E0F2019183CE
:1027E000808387EF9FEF4DCF0E947A1C2FEF221A34
:1027F000320AE8CF88819981E80EF91EF701148327
:102800000383FFEFCF1ADF0A7A018A818C151D043A
:1028100009F00CF48CCFE881F981EE0DFF1D4281A7
:1028200050E030E020E010E000E090E080E0B3CF46
:10283000F12CE12CD12CC12CE8CF81E090E09C83DD
:102840008B83ECDA882309F480CF81E090E00E944A
:10285000890B80E40E94970B78CF89899A89019629
:1028600061F083E090E09C838B8382E090E00E94A3
:10287000890B80E40E94910B68CF8D819E8120910D
:1028800011013091120182179307D1F46091150163
:1028900070911601AE014F5E5F4F809113019091D0
:1028A00014010E94001F0097E1F2789422E030E0CA
:1028B000F20131832083892B99F08DEF9FEFE1CED8
:1028C00089288A288B2869F6892B59F6CE0146DE9D
:1028D000188A1F86E8CF82E090E09C838B8335CFF7
:1028E00090E080E0CECE82E090E0F20191838083A0
:1028F00085EF9FEFC6CE8F929F92AF92BF92CF92FD
:10290000DF92EF92FF920F931F93CF93DF93EA0131
:102910008C01060F171FF8018181833098F082E047
:1029200090E09983888386EF9FEFDF91CF911F918D
:102930000F91FF90EF90DF90CF90BF90AF909F905E
:102940008F9008958091900290919102892B61F06F
:1029500081E090E02091920230919302232B11F4B8
:1029600090E080E0892B39F482E090E099838883BD
:102970008EEF9FEFDACF42DE882309F4DFC0F80143
:102980008181813009F495C0E8F0823099F420917A
:10299000920230919302E0919002F091910290E0C6
:1029A00080E041E050E02817390709F0BDC036DA71
:1029B000811117C0789481E090E09983888390E03A
:1029C00080E0B3CF2091920230919302E091900287
:1029D000F091910290E080E041E050E02817390743
:1029E00041F481E090E00E94890B80E40E94970B03
:1029F000E1CF63817481672B11F054834383019687
:102A00007396ECCFE0919002F0919102E00FF11FEC
:102A10002381348122303105D9F4218932892F3F35
:102A20003F4FB1F42581368140911101509112013F
:102A30002417350761F5AF014F5E5F4F60911501B7
:102A40007091160180911301909114010E94001F52
:102A5000EFEFCE1ADE0AEE0AFE0A0D5E1F4F40911E
:102A600092025091930270E060E0C416D506E6062B
:102A7000F7063CF5009731F27894892B09F49BCF47
:102A800082E090E0998388838DEF9FEF4ECFC11451
:102A9000D104E104F104E1F6232BD1F6CF015EDD90
:102AA000E0919002F0919102E00FF11F108A1786D9
:102AB000CFCF10E000E090E080E0C12CD12C760177
:102AC000CECF0097C9F610E000E0812C912C540184
:102AD00083E0E82EF12C1AC0E0919002F09191026F
:102AE000E00FF11F83819481029749F4F482E3821D
:102AF00082E090E00E94890B80E40E94910BFFEF3E
:102B00008F1A9F0AAF0ABF0A0D5E1F4F8091920273
:102B100090919302B0E0A0E088169906AA06BB0641
:102B2000DCF290E080E0A8CF6381748162307105AF
:102B300011F4548343830196739635CF82E090E07D
:102B40009983888385EF9FEFF0CE0097B9F48FEFDC
:102B5000FB01808320911B0130911C0143E1429FC6
:102B6000C001439F900D1124E0919002F0919102D9
:102B7000E80FF91F8285FB01818308950C94420BB5
:102B800088E090E0FA019183808390E080E00895EE
:102B900010928F0210928E02E0E9F2E086E0DF01EF
:102BA0001D928A95E9F781E391E190938D028093DC
:102BB0008C02089580918C0290918D0208952F923D
:102BC0003F924F925F926F927F928F929F92AF92BD
:102BD000BF92CF92DF92EF92FF920F931F93CF930A
:102BE000DF93CDB7DEB760970FB6F894DEBF0FBEA8
:102BF000CDBFF894E0918E02F0918F023196F09360
:102C00008F02E0938E027894A0919002B09191028D
:102C1000BA83A983109709F4FAC1E0919202F09166
:102C20009302EF2B09F4F3C128874B875C876D87EC
:102C30007E879A878987B88BAF87312C212CF12C1E
:102C4000512C412C809192029091930228163906C2
:102C500010F4FF2029F1F89480918E0290918F0258
:102C6000019790938F0280938E027894C2016096B0
:102C70000FB6F894DEBF0FBECDBFDF91CF911F918D
:102C80000F91FF90EF90DF90CF90BF90AF909F900B
:102C90008F907F906F905F904F903F902F9008950E
:102CA000B10190E080E087D4682EEF85F8898781B4
:102CB00081FD3DC0838194810397C9F525813681CB
:102CC0003C832B8389859A852817390781F5C101B3
:102CD000EFD8782E8823A9F1AF85B8891F968D91FA
:102CE0009C915097019621E01D964D915C9184171F
:102CF000950709F020E02F83B12CA12CEF85F889EE
:102D000082818A151B0419F014F0FF20E9F0F88580
:102D1000FF2309F46CC1AF85B88950961C921E92AE
:102D20001F97662021F0B10190E080E046D4FFEFCC
:102D30002F1A3F0A2F8538892D5E3F4F388B2F87FA
:102D400081CFB1E0BF83D8CFBED49E838D83E88589
:102D5000EE23E9F0772009F43CC1AF85B8891F96CE
:102D60008D919C91892B79F0BBE0BA9DC001BB9DF0
:102D7000900D1124AF85B889ED91FC91E80FF91FF2
:102D800085819681F2D6BFEFAB1ABB0AB7CF81E03F
:102D9000772039F0EF85F88927853089232B09F0D2
:102DA00080E0F82EE12CA114B10439F4AF85B88984
:102DB0001796EC90E4FAEE24E0F8BBE0BA9D6001CF
:102DC000BB9DD00C1124882309F424C1AF85B88998
:102DD000ED91FC911197EC0DFD1D438154811D96E1
:102DE0002D913C91429FC001439F900D529F900DA9
:102DF0001124E1105DC001969087878361E070E047
:102E00008781908529D5EF85F889218932890081CC
:102E100011810C0D1D1D2F3F320709F44BC0BC0161
:102E2000C9010E94411FD80116969C938E93159755
:102E3000AF85B889ED91FC911197EC0DFD1D0581D1
:102E400016810115110509F4CDC0ED81FE810E0F2B
:102E50001F1F1A968C918A0DD8018C93E1102FC0F8
:102E60000F5F1F4FAF85B889ED91FC91EC0DFD1DF3
:102E700012870187AF85B889ED91FC91EC0DFD1D9E
:102E800085819681892B09F4A4C0809111019091CC
:102E900012012B813C812817390709F465C077207E
:102EA00011F001851285912C812C1A8219824AC059
:102EB0000596A2CF21D6F80196838583B9CF8B855D
:102EC0009C85AD85BE85F80181839283A383B483FD
:102ED0000B5F1F4FC7CFE080F180E80CF91CD701D2
:102EE00013966D917C9114978C918F3F09F473C068
:102EF000E1E0F0E002C0EE0FFF1F8A95E2F7CF019C
:102F0000092E000CAA0BBB0BFB0140815181628191
:102F1000738184239523A623B72321E0892B8A2B51
:102F20008B2B09F420E0D8012C93D70111968C91BA
:102F3000080F111DE981FA813196FA83E983F7E0E0
:102F40008F0E911CAF85B889ED91FC91EC0DFD1DA4
:102F5000828129813A818217130611F00CF0BBCFD0
:102F6000772011F0128701873F81332391F1AF85DC
:102F7000B889ED91FC91EC0DFD1D61E070E0878159
:102F800090856AD4AF85B889ED91FC91EC0DFD1D5B
:102F9000E780F08445815681E1E0F0E0662011F0A1
:102FA000F0E0E0E00D811E819C01B10188279927A6
:102FB0008E1B9F0B8BD32C01892B59F0EF85F88941
:102FC00080819181C80ED91ED60115968D919C9154
:102FD000CCD5F12CD8CEF701418150E0C8010E9438
:102FE000A92AA3CF86EF482E55245A94CCCEEF853C
:102FF000F889878590890196908B87872585368506
:103000008217930709F08DCE108A17868ACE512C2D
:10301000412C21CE10E000E02DCF2F923F924F9215
:103020005F926F927F928F929F92AF92BF92CF9258
:10303000DF92EF92FF920F931F93CF93DF938091D4
:1030400090029091910210E000E0892BA9F0D6DA6D
:103050000AEF1FEF882381F02090920230909302B4
:10306000C0919002D0919102D12CC12C10E000E0CF
:103070002C143D04A9F47894C801DF91CF911F91DD
:103080000F91FF90EF90DF90CF90BF90AF909F9007
:103090008F907F906F905F904F903F902F9008950A
:1030A000C6010E94580F882309F18B819C810397E8
:1030B000E9F48F859889892BC9F0B60190E080E00A
:1030C0007AD221E030E0882311F030E020E044247F
:1030D0005524421A530AB12CA12C912C812C8A819F
:1030E0008815190409F038F4188A1F864FEFC41A9E
:1030F000D40A6396BDCFE881F981EA0DFB1D858175
:103100009681892BA1F161E070E087819085A4D33D
:103110003C01D9D28C01E881F981EA0DFB1D818542
:10312000928525813681200F311FAC01421B530B44
:103130009A0147815085421B530B70E060E00E946A
:10314000B22AE881F981EA0DFB1DE780F084458110
:1031500056819301B601C201B9D28C01892B39F095
:10316000E881F981EA0DFB1D85819681FED45FEF30
:10317000851A950A8BE0A80EB11CB1CF3FCA78948E
:1031800008952F923F924F925F926F927F929F92FB
:10319000AF92BF92CF92DF92EF92FF920F931F9365
:1031A000CF93DF9300D000D000D0CDB7DEB7009131
:1031B000900210919102992493940115110509F43C
:1031C0003EC0A0909202B090930218DA982E882305
:1031D000B1F110929102109290021092930210920B
:1031E000920210929402109295028FEF9FEFDC01F1
:1031F00080931B0190931C01A0931D01B0931E01AD
:1032000078947AD31E830D83C12CD12C7601C5010D
:10321000B0E0A0E089839A83AB83BC8322242A9404
:10322000322C89819A81AB81BC81C816D906EA0605
:10323000FB06F4F0C80199D480E40E94970B892D15
:1032400026960FB6F894DEBF0FBECDBFDF91CF91AB
:103250001F910F91FF90EF90DF90CF90BF90AF90B4
:103260009F907F906F905F904F903F902F90089528
:10327000AD81BE8115968D919C911697209111017B
:103280003091120182179307D1F451968D919C9140
:10329000E6D5ED81FE8180819181B12CA12C412C5C
:1032A000512C3201892B89F5BFEFCB1ADB0AEB0ACF
:1032B000FB0AED81FE817396FE83ED83B2CFC114CC
:1032C000D104E104F10429F7892B19F7ED81FE817E
:1032D000818992898F3F980709F021D5AD81BE8100
:1032E00052963C922E925197D4CF8A0D9B1DDC01B1
:1032F0008D919C91009709F038D4BFEF4B1A5B0A6F
:103300006B0A7B0AEBE0AE0EB11CAD81BE818D91E4
:103310009C91119712964C9150E070E060E0441639
:103320005506660677060CF320D4BECFCF93DF9305
:10333000EA0127DF811109C082E090E09983888348
:1033400085EF9FEFDF91CF91089581E090E00E949B
:10335000890B81E090E09983888390E080E0F2CF50
:1033600010DF10928D0210928C02089542E050E01E
:1033700067EA71E00C94A70BFF920F931F93CF9312
:10338000DF938A01EC01C60FD71FF980B4D20897EA
:10339000F816190671F068F082E090E0F801918368
:1033A00080838EEF9FEFDF91CF911F910F91FF9060
:1033B00008956C817D818E819F814B810E943E0E9C
:1033C000811108C082E090E0F8019183808384EF4E
:1033D0009FEFE9CFF9800E94390E4F2D50E0BE01DA
:1033E000685F7F4F0E94A92A89810E94A80E81E010
:1033F00090E0F8019183808390E080E0D4CFDF9269
:10340000EF92FF920F931F93CF93DF938A01EC010A
:10341000C60FD71F0E94390E7C01D9806CD2DD20E7
:1034200059F0029721E030E0D816190619F010F093
:1034300030E020E0232B79F482E090E0F8019183E2
:1034400080838EEF9FEFDF91CF911F910F91FF90BF
:10345000EF90DF900895EF2841F482E090E0F801CA
:103460009183808384EF9FEFEECFF9800E94390E25
:103470004F2D50E0BE016E5F7F4F0E94A92A8981C7
:103480000E94A80E81E090E0F8019183808390E093
:1034900080E0D9CF86EB99E19093970280939602D2
:1034A0000895809196029091970208950895FC01E5
:1034B00011821082938382830895DB011D921C92F6
:1034C000DC011296ED91FC91139771836083139642
:1034D0007C936E9312970895FC0180819181DB01AA
:1034E0008D939C93A081B181109741F08D919C9117
:1034F00091838083892B11F4F383E2830895FC0187
:1035000080819181DB018D939C93892B11F47383CE
:103510006283718360830895FC011182108293831A
:1035200082830895CF93DF9300D0CDB7DEB71A82A0
:103530001982F894BE016F5F7F4F8DE992E0CCDF76
:1035400089819A81009709F010D389819A81892B0A
:1035500089F7BE016F5F7F4F81EA92E0BDDF89810D
:103560009A81009709F001D389819A81892B89F783
:1035700078940F900F90DF91CF910895CF93DF93C0
:1035800000D0CDB7DEB71A821982F894BE016F5F02
:103590007F4F89E992E0A0DF89819A81009709F045
:1035A000E4D289819A81892B89F778940F900F90C2
:1035B000DF91CF91089581E0089590E080E0089533
:1035C000EF92FF920F931F93CF93DF9300D0CDB76D
:1035D000DEB71A8219828091980207EF1FEF8823C5
:1035E000A1F1F894BE016F5F7F4F81EA92E074DF32
:1035F000789489819A81EE24E394F12C892B51F4FB
:10360000F894BE016F5F7F4F8DE992E065DF78949B
:10361000F12CE12C89819A810EEF1FEF0097A9F020
:10362000FC014281538164E070E06AD68C01892BF1
:1036300061F0F89469817A81C701880F991F880F1A
:10364000991F83569D4F5BDF7894C8010F900F90B0
:10365000DF91CF911F910F91FF90EF9008950F93FD
:103660001F93CF93DF9300D000D0CDB7DEB71C827D
:103670001B821A8219828091980207EF1FEF88231C
:10368000C1F0AE014D5F5F4F64E070E0CE01019686
:10369000AAD68C01892B69F4E981FA818B819C81FE
:1036A00093838283F89469817A8189E992E005DFC6
:1036B0007894C8010F900F900F900F90DF91CF91E9
:1036C0001F910F910895AFD7049608958F929F92FE
:1036D000AF92BF92CF92DF92EF92FF920F931F9320
:1036E000CF93DF9300D0CDB7DEB71A821982BC0129
:1036F0006F5F7F4F6330710598F0AA24AA94BA2CAB
:10370000C5010F900F90DF91CF911F910F91FF9006
:10371000EF90DF90CF90BF90AF909F908F900895E3
:103720004115510551F3480159018A016C01CBDF64
:103730008815990511F7E114F104F9F28E0D9F1D1A
:10374000A816B906D0F2809198028823F1F0F89477
:10375000B501645071099701AE014F5F5F4FC80119
:103760000496D6D65C01892B71F489819A81F8017F
:1037700093838283C601880F991F880F991FB80110
:1037800083569D4F9ADE7894BBCF87EFA82EBB243B
:10379000BA94B6CFAF92BF92CF92DF92EF92FF92E0
:1037A0000F931F93CF93DF9300D0CDB7DEB71A826C
:1037B0001982892B09F047C06115710509F443C0CE
:1037C0004115510509F43FC02115310509F43BC0ED
:1037D00001151105C1F1809198028823B9F1790191
:1037E0006A015B01F894BE016F5F7F4F89E992E047
:1037F00073DE789489819A81009759F1DC011296E1
:103800006D917C91A80104969CD68C01E981FA8186
:10381000D501ED93FC93828193810496F601918307
:10382000808351DFD7018D939C93C8010F900F9037
:10383000DF91CF911F910F91FF90EF90DF90CF908C
:10384000BF90AF9008950FEF1FEFEFCF07EF1FEF7F
:10385000ECCF0EEF1FEFE9CFCF93DF93EC01672B97
:1038600071F4EAD68C179D0760F0DDD62496C80F58
:10387000D91FDCD68C0F9D1FDF91CF910895D9D62B
:10388000F1CF90E080E0F8CF0F931F93CF93DF93B9
:103890002091980221112BC08B01EC018DE992E05F
:1038A00006DE81EA92E003DE89E992E000DE97D04D
:1038B0000097C1F4C1D670E060E0CEDF4FE151E087
:1038C00062E070E07ED1009769F480911F019091D1
:1038D0002001C4D6B801CE01F9D4009719F421E033
:1038E00020939802DF91CF911F910F91089584EF5B
:1038F0009FEFF8CF9EC6A0C6CF93DF93A0D6EC0172
:10390000892B11F40FDE3ADECE01DF91CF910895BD
:10391000CF93DF9394D6EC01892B09F403DECE011B
:10392000DF91CF91089580911F019091200108951A
:10393000CF93DF9380919802D0E0C0E08823D1F04C
:1039400092D6EC01892BB1F4EDDD18DE80911F01D8
:1039500090912001E4D1E5D2EC01892B59F48DE955
:1039600092E0DADD81EA92E0D7DD89E992E0D4DD08
:1039700010929802CE01DF91CF910895EF92FF92BD
:103980000F931F93CF93DF93EC017A018B010F5FAD
:103990001F4F0E9DA0010F9D500D1E9D500D112417
:1039A00070E060E00E94B22A90E080E0F0E0E0E0A9
:1039B0002FEFE816F90639F4DF91CF911F910F919F
:1039C000FF90EF9008951A8219822883309711F0A2
:1039D000D283C1830196FE01C00FD11FEACFCF92DF
:1039E000DF92EF92FF920F931F93CF93DF9309E73C
:1039F00013E00C7F43E050E061E271E087E291E088
:103A000012D481E2E82E81E0F82E97E2C92E91E0EF
:103A1000D92EC8EDD3E0D7014D915D917D01F6011E
:103A2000619171916F01198308835D834C835B837E
:103A30004A837F836E839B012F5F3F4F249FC0018A
:103A4000259F900D349F900D11249987888701152B
:103A5000110511F0C80192DF88859985080F191F9B
:103A60002A96F7E2EF16F1E0FF06A9F6E7EAF2E0A0
:103A70008FECDF011D928A95E9F71092A602109251
:103A8000A5021092F7031092F6031092FB03109216
:103A9000FA031092F9031092F8031092FD031092AA
:103AA000FC031092FF031092FE0310920104109287
:103AB0000004109205041092040410920304109262
:103AC0000204109207041092060410920904109246
:103AD00008041092D5031092D4031092D7031092C9
:103AE000D60390E080E0DF91CF911F910F91FF907E
:103AF000EF90DF90CF9008950097F1F0F894A7E24F
:103B0000B1E0E8EDF3E030E020E04D915D91481741
:103B10005907A8F0428153814115510581F08AE08F
:103B2000829FF001839FF00D1124E852FC4F8081A9
:103B30009181009759F4789490E080E008952F5F88
:103B40003F4F3A962330310501F7F5CFDC0111964E
:103B50006D917C91718360834150510953834283FD
:103B6000FC012193CF0178940895009749F1DC017D
:103B70008E91853041F4E091D603F091D7033097D0
:103B8000F9F0CD0109948530D8F4282F30E0F8946D
:103B90008FEF8C938AE0829FF001839FF00D1124B8
:103BA000E852FC4F8081918112969C938E931197DD
:103BB000B183A083828193810196938382837894D9
:103BC0000895CF92DF92EF92FF920F931F93CF93BE
:103BD000DF939C018AEA92E08C7F4115510509F43C
:103BE0009BC02115310509F497C06115710509F4D1
:103BF00093C07A01AB01B9016D5F7F4F6C7F9B0170
:103C00002F5F3F4F249F8001259F100D349F100D83
:103C10001124F8942091F6033091F703232B59F4E3
:103C20002091FE033091FF032115310569F1201722
:103C3000310708F058C02091000430910104232B73
:103C400091F42091FE033091FF03820F931F209186
:103C50000804309109042115310509F441C02017E9
:103C6000310708F056C07894CFEFDFEF86EF9FEF73
:103C7000F701D183C083DF91CF911F910F91FF9006
:103C8000EF90DF90CF900895C3E0D0E0C090A50200
:103C9000D090A6022CEC30E02C193D0920173107FA
:103CA00010F32AE02C9FF0012D9FF00D1124E85213
:103CB000FC4F91838083558344835383428377836E
:103CC000668311870087009709F058DE0C0D1D1DD3
:103CD0001093A6020093A502789490E080E0C8CFEC
:103CE000C4E0D0E0D3CFC3E0D0E02AE02C9FF001C5
:103CF0002D9FF00D1124E852FC4F91838083558352
:103D000044835383428377836683009729F336DEA7
:103D1000E3CFC4E0D0E0E9CF8FEF9FEFACCF9C01C1
:103D20000397029708F069C0F89484E09AE0482F5E
:103D300050E0241735070CF44DC091E08AE0829FD3
:103D4000F001839FF00D1124E852FC4F1182108284
:103D50001582148213821282178216829923B1F17E
:103D60008091F6039091F703892BA9F42091FE032B
:103D70003091FF032115310571F08091A5029091DA
:103D8000A602821B930B9093A6028093A502109229
:103D9000FF031092FE038091000490910104892B8F
:103DA000A9F420910804309109042115310571F01E
:103DB0008091A5029091A602821B930B9093A6027C
:103DC0008093A5021092090410920804789490E060
:103DD00080E00895949FF001959FF00D1124E85222
:103DE000FC4F40815181452B31F440855185452B55
:103DF00011F481509CCF90E0A1CF8FEF9FEF0895F9
:103E00004115510549F1009739F16115710521F10D
:103E1000F8942091D4033091D503232BB9F4209149
:103E2000D6033091D703232B89F49093D503809345
:103E3000D4037093D7036093D603789425E030E0E1
:103E400090E080E0FA0131832083089578942FEF89
:103E50003FEF86EF9FEFF6CF8FEF9FEF0895059727
:103E600069F4F8941092D5031092D4031092D703FA
:103E70001092D603789490E080E008958FEF9FEF42
:103E800008956115710519F4F0E0E0E011C0853086
:103E9000910581F4E091D403F091D5033097A1F31B
:103EA000CB0101960995009779F3FC0185E0819398
:103EB000CF0108959C01235031092230310520F7AC
:103EC0002AE0289FD001299FB00D1124A852BC4F91
:103ED0002D913C911197232BB9F216962D913C917F
:103EE00017972617370780F2F89412962D913C9178
:103EF00013972115310529F0ED91FC911197309719
:103F000011F47894C1CF4181528111965C934E9304
:103F10002150310913963C932E93129781937894F4
:103F2000C7CFE6E7F3E08EE5DF011D928A95E9F75A
:103F3000E7EAF2E08FECDF011D928A95E9F7109233
:103F4000A6021092A502E8EDF3E082E3DF011D92E4
:103F50008A95E9F7E4EDF3E084E0DF011D928A95AC
:103F6000E9F790E080E00895CF93DF93C0912D01B1
:103F7000D0912E01CF3FDC0759F407D490932E0146
:103F800080932D0197FF09C0D0932E01C0932D017E
:103F900084EF9FEFDF91CF91089590E080E0FACF1A
:103FA0008230910528F480930A0490E080E008951F
:103FB0008FEF9FEF08954F925F926F927F92AF9233
:103FC000BF92CF92DF92EF92FF920F931F93CF9306
:103FD000DF9300D0CDB7DEB71A821982009709F4BB
:103FE00078C06115710509F474C020912D013091DC
:103FF0002E0107EF1FEF2F3F3F4F09F444C06B0125
:104000005C01412C512C3201F12CE12C10E000E03C
:104010009E012F5F3F4FA6014E195F09B5016E0D3E
:104020007F1D80912D0190912E010ED4892B09F0D6
:104030004AC089819A81009741F4E114F10429F47E
:1040400020910A04222309F441C0E80EF91EEC1461
:10405000FD04C8F480E8481684E858068EE1680636
:10406000710418F560E070E0CB01DDD62AE0420E65
:10407000511C611C711C0A3F4FEF140721F0043FD3
:104080008FEF1807A1F4C8010F900F90DF91CF9127
:104090001F910F91FF90EF90DF90CF90BF90AF9066
:1040A0007F906F905F904F90089501EF1FEF81E038
:1040B00090E0013F2FEF120711F090E080E0892B94
:1040C00009F4A6CFE0CF04EF1FEFDDCF0AEF1FEF1B
:1040D000DACF0FEF1FEFD7CF4F925F926F927F92A1
:1040E000AF92BF92CF92DF92EF92FF920F931F9306
:1040F000CF93DF9300D0CDB7DEB71A821982009735
:1041000009F478C06115710509F474C020912D017E
:1041100030912E0107EF1FEF2F3F3F4F09F444C0AE
:104120006B015C01412C512C3201F12CE12C10E08F
:1041300000E09E012F5F3F4FA6014E195F09B501B8
:104140006E0D7F1D80912D0190912E0133D3892B0F
:1041500009F04AC089819A81009741F4E114F10481
:1041600029F420910A04222309F441C0E80EF91E23
:10417000EC14FD04C8F480E8481686E9580688E97E
:104180006806710418F560E070E0CB014CD62AE0B7
:10419000420E511C611C711C0E3F4FEF140721F0A1
:1041A000043F8FEF1807A1F4C8010F900F90DF9123
:1041B000CF911F910F91FF90EF90DF90CF90BF9024
:1041C000AF907F906F905F904F90089502EF1FEF38
:1041D00081E090E0023F2FEF120711F090E080E0C5
:1041E000892B09F4A6CFE0CF04EF1FEFDDCF0EEF50
:1041F0001FEFDACF0FEF1FEFD7CF80912D019091F6
:104200002E018F3F980749F0B8D2892B49F48FEFE0
:104210009FEF90932E0180932D0190E080E0089510
:1042200084EF9FEF0895CF92DF92EF92FF920F936A
:104230001F93CF93DF9321E04115510509F020E052
:104240004150510921112CC0DC01FB01D12CC12CA2
:1042500021E022C03FEFC31AD30A7D010D911D91C9
:10426000E701EA80FB80E016F106A8F420813181A5
:10427000E280F380F182E08233832283ED90FC9030
:1042800011979D0122503109E901F982E8821196C6
:104290001C930E9320E03296C416D506D8F2D2CFE6
:1042A000DF91CF911F910F91FF90EF90DF90CF9012
:1042B0000895FC01680F791F90E080E0E617F7078A
:1042C00009F408952191820F911DF8CF20910B04DC
:1042D000211113C049DE009791F41092110410923D
:1042E000100410920F0410920E0410920D041092FC
:1042F0000C0421E020930B04089584EF9FEF0895B0
:10430000AF92BF92CF92DF92EF92FF920F931F93E3
:10431000CF93DF93009709F460C04630510508F44D
:104320005CC020910B04C7EFDFEF222309F449C0E2
:104330008C01060F171FF801C080D180C114D10471
:1043400009F44EC096012A5F3F4F4217530708F405
:1043500047C07C0180911004909111049383828363
:10436000B6016C5F7F4F5801A60EB71EC801A1DFD2
:10437000F5019183808364E070E0C8011CDEEC01EC
:10438000892BF9F481E090E00BDEB601C8010496B8
:1043900012DEEC01892B91F462E070E0C5010BDEC6
:1043A000EC01892B59F4C701E0DB80911004909156
:1043B00011040196909311048093100490E080E022
:1043C000EFDDCE01DF91CF911F910F91FF90EF9024
:1043D000DF90CF90BF90AF900895CFEFDFEFF1CF98
:1043E000C9EFDFEFEECF6F927F928F929F92AF92E5
:1043F000BF92CF92DF92EF92FF920F931F93CF93D2
:10440000DF9300D000D0CDB7DEB7009709F47AC0B3
:104410004115510509F476C020910B0407EF1FEFF9
:10442000222309F44DC03A017B015C0164E070E095
:10443000CE01019651DE8C01892B09F041C0098122
:104440001A810115110509F45AC0480186E0880E49
:10445000911CB701680D791D80912F019091300159
:1044600010DD6C01009709F450C0A70170E060E016
:104470000E94B22A89819A81AB81BC81EC0CFD1C1F
:10448000F70181939193A193B1937F0181E090E033
:1044900087DDB801C70120DE892B31F562E070E0CD
:1044A000C701800F911F18DE8C01892BE9F490E081
:1044B00080E076DDF501D182C082F30191828082B5
:1044C000C8010F900F900F900F90DF91CF911F9127
:1044D0000F91FF90EF90DF90CF90BF90AF909F90A3
:1044E0008F907F906F90089590E080E059DDF50106
:1044F00011821082F30111821082C60136DB09EFAE
:104500001FEFDECF0FEF1FEFDBCF06EF1FEFD8CF90
:104510000097A1F04115510589F02115310571F081
:10452000F90136966E177F0748F0DC012D933C9316
:10453000DA01ED93FC9390E080E008958FEF9FEF18
:104540000895AF92BF92CF92DF92EF92FF920F93B6
:104550001F93CF93DF93009709F45FC04115510576
:1045600009F45BC06530710508F457C020910B0455
:10457000C7EFDFEF222391F1DC01CD90DC901197A2
:104580001296ED91FC9196012A5F3F4FC9EFDFEF44
:104590002617370719F5C0910C04D0910D04209708
:1045A00049F521E030E030930D0420930C047A01AA
:1045B0008C01F0930F04E0930E045601B4E0AB0EAF
:1045C000B11CB50176DE0A0D1B1DF8012081318179
:1045D0008217930729F5D701CD92DC92CE01DF91A6
:1045E000CF911F910F91FF90EF90DF90CF90BF90F0
:1045F000AF90089520910E0430910F042F5F3F4F2C
:10460000CCEFDFEFE217F30790F2CBEFDFEF2E17DF
:104610003F0768F2D0E0C0E0CACFCFEFDFEFDECFD8
:10462000C3EFDFEFDBCF84E090E0089582E090E01D
:1046300008958CEF9FEF089580E290E00895109226
:1046400011041092100410920F0410920E04109294
:104650000D0410920C0490E080E0089590933001D6
:1046600080932F01089580910B04882391F0C5DD7C
:10467000009789F4109211041092100410920F0404
:1046800010920E0410920D0410920C0410920B0460
:10469000089590E080E00895009749F06115710554
:1046A00031F0FC0111821082FB0111821082089509
:1046B000F3CF26E030E040E855E260E070E090E0C3
:1046C00080E000C0892B19F48FE194E0EFC50895D4
:1046D0001F920F920FB60F9211242F933F934F9377
:1046E0005F936F937F938F939F93AF93BF93EF935A
:1046F000FF938FE89DEF9093850080938400B7D05F
:10470000FF91EF91BF91AF919F918F917F916F91A9
:104710005F914F913F912F910F900FBE0F901F907F
:1047200018958FE89DEF9093850080938400AFE605
:10473000B0E08C918E7F8C93E0E8F0E080818C7FFC
:104740008083E1E8F0E08081877E808380818460DF
:10475000808380818C7F80838C9181608C9308958D
:10476000EFE6F0E0808190819E7F908381700895D4
:1047700081E0089510921204089568EE73E080E0DD
:1047800090E051D390E080E0089526E030E040E0F2
:1047900052EC61E070E090E080E094DF8FE194E023
:1047A000BBD4892B21F08FE194E0D0D4F7CF90E0F7
:1047B00080E00895CF92DF92EF92FF920F931F93C4
:1047C000CF93DF936B017A01E901198218828FE19F
:1047D00094E0A2D4892B69F18601CC24C39482E0B1
:1047E000D82E80911204811110C08FE194E0AED4D4
:1047F0000297B9F7C0921204F801D1928F01888113
:104800009981019699838883ECCF888199818E154F
:104810009F0578F48FE194E099D48F3F9807A9F32E
:10482000F80181938F01888199810196998388830A
:10483000ECCF90E080E0DF91CF911F910F91FF903E
:10484000EF90DF90CF9008950F931F93CF93DF9356
:10485000EA0189018FE194E00DD6F801D183C0838C
:1048600090E080E0DF91CF911F910F910895CF925A
:10487000DF92EF92FF928091130491E0980F909352
:104880001304882369F021E030E03093150420936D
:10489000140480931304FF90EF90DF90CF9008955D
:1048A0007894E0913301F0913401C28CD38CE48C84
:1048B000F58C0E94C603B701A60190E080E00E943B
:1048C0003903F894809113048150E3CF0F931F9321
:1048D000CF93DF931092D5041092D404DAD2E9DE9C
:1048E000C0913301D0913401198218826FEF7FEFAC
:1048F000CB010E94BB0370E060E090E080E00E948A
:104900003E02009709F03AC00E947404F89478942B
:10491000BE016E5D7F4F8A819B810E944102892B7F
:1049200059F46FEF7FEFCB010E94D0020E94B503D4
:10493000882311F081E08EA3F894F3DE0E94B8037F
:10494000882311F080E008C00E94B5038111FACFDE
:1049500081E09EA19111F6CF8093D40478940E94B7
:10496000840B8C0178948091D40481110CC00E9436
:1049700015050E949B03F89490E080E0DF91CF91B1
:104980001F910F9108950E9499030E94B8038823F4
:10499000D9F081E08093D5049091D50481E0911104
:1049A00080E08093D4048091D5048111D9DE013058
:1049B000110529F40E94840B892B09F4DBDE0E9487
:1049C000840B8C01D5DECFCF0E94B5038111E1CFDE
:1049D00081E09EA19111DECF80E0DCCFD9D008F438
:1049E00081E008950CD00FC107D140F0FED030F027
:1049F00021F45F3F19F0F0C0511139C1F3C014D157
:104A000098F39923C9F35523B1F3951B550BBB2795
:104A1000AA2762177307840738F09F5F5F4F220F42
:104A2000331F441FAA1FA9F333D00E2E3AF0E0E83B
:104A300030D091505040E695001CCAF729D0FE2F87
:104A400027D0660F771F881FBB1F26173707480719
:104A5000AB07B0E809F0BB0B802DBF01FF279358CF
:104A60005F4F2AF09E3F510568F0B6C000C15F3F1E
:104A7000ECF3983EDCF3869577956795B795F795B7
:104A80009F5FC9F7880F911D9695879597F90895AF
:104A9000E1E0660F771F881FBB1F6217730784074B
:104AA000BA0720F0621B730B840BBA0BEE1F88F75A
:104AB000E095089504D06894B111D9C00895BCD090
:104AC00088F09F5790F0B92F9927B751A0F0D1F0F7
:104AD000660F771F881F991F1AF0BA95C9F712C081
:104AE000B13081F0C3D0B1E00895C0C0672F782FF6
:104AF0008827B85F39F0B93FCCF3869577956795ED
:104B0000B395D9F73EF490958095709561957F4F58
:104B10008F4F9F4F0895E89409C097FB3EF49095FE
:104B20008095709561957F4F8F4F9F4F9923A9F086
:104B3000F92F96E9BB279395F69587957795679515
:104B4000B795F111F8CFFAF4BB0F11F460FF1BC059
:104B50006F5F7F4F8F4F9F4F16C0882311F096E9EC
:104B600011C0772321F09EE8872F762F05C066239A
:104B700071F096E8862F70E060E02AF09A95660F53
:104B8000771F881FDAF7880F9695879597F908950C
:104B9000990F0008550FAA0BE0E8FEEF161617064E
:104BA000E807F907C0F012161306E407F50798F0B6
:104BB000621B730B840B950B39F40A2661F0232BCF
:104BC000242B252B21F408950A2609F4A140A6954B
:104BD0008FEF811D811D089597F99F6780E870E030
:104BE00060E008959FEF80EC089500240A94161663
:104BF000170618060906089500240A9412161306CB
:104C0000140605060895092E0394000C11F4882358
:104C100052F0BB0F40F4BF2B11F460FF04C06F5F74
:104C20007F4F8F4F9F4F089557FD9058440F551F4A
:104C300059F05F3F71F04795880F97FB991F61F01E
:104C40009F3F79F087950895121613061406551F95
:104C5000F2CF4695F1DF08C0161617061806991F01
:104C6000F1CF86957105610508940895E894BB27F6
:104C700066277727CB0197F908958ADF08F48FEF2D
:104C800008950BD0C0CFB1DF28F0B6DF18F0952320
:104C900009F0A2CFA7CF1124EACFC6DFA0F3959FDA
:104CA000D1F3950F50E0551F629FF001729FBB2713
:104CB000F00DB11D639FAA27F00DB11DAA1F649FBF
:104CC0006627B00DA11D661F829F2227B00DA11D72
:104CD000621F739FB00DA11D621F839FA00D611DF8
:104CE000221F749F3327A00D611D231F849F600D19
:104CF000211D822F762F6A2F11249F5750408AF052
:104D0000E1F088234AF0EE0FFF1FBB1F661F771FDD
:104D1000881F91505040A9F79E3F510570F05CCF1D
:104D2000A6CF5F3FECF3983EDCF3869577956795C9
:104D3000B795F795E7959F5FC1F7FE2B880F911DFB
:104D40009695879597F908951F920F920FB60F9237
:104D500011242F933F938F939F93AF93BF93809191
:104D6000170490911804A0911904B0911A0430917D
:104D7000160423E0230F2D3758F50196A11DB11D10
:104D8000209316048093170490931804A093190499
:104D9000B0931A0480911B0490911C04A0911D04EF
:104DA000B0911E040196A11DB11D80931B04909328
:104DB0001C04A0931D04B0931E04BF91AF919F915A
:104DC0008F913F912F910F900FBE0F901F901895CC
:104DD00026E8230F0296A11DB11DD2CF3FB7F8944C
:104DE00080911B0490911C04A0911D04B0911E049D
:104DF00026B5A89B05C02F3F19F00196A11DB11D36
:104E00003FBFBA2FA92F982F8827BC01CD01620F71
:104E1000711D811D911D42E0660F771F881F991F2C
:104E20004A95D1F708958F929F92AF92BF92CF92F9
:104E3000DF92EF92FF926B017C01D0DF4B015C01AE
:104E4000C114D104E104F104D9F041D3C7DF6819DA
:104E500079098A099B09683E73408105910580F3B1
:104E600021E0C21AD108E108F10888EE880E83E03B
:104E7000981EA11CB11CC114D104E104F10431F746
:104E8000FF90EF90DF90CF90BF90AF909F908F906A
:104E90000895789484B5826084BD84B5816084BDB2
:104EA00085B5826085BD85B5816085BDEEE6F0E0A3
:104EB000808181608083E1E8F0E0108280818260FF
:104EC0008083808181608083E0E8F0E08081816080
:104ED0008083E1EBF0E0808184608083E0EBF0E0B0
:104EE000808181608083EAE7F0E080818460808354
:104EF00080818260808380818160808380818068FE
:104F000080831092C10008958E3008F08E50209159
:104F1000310190E4299F900111248770822B8093A6
:104F20007C0080917A00806480937A0080917A007E
:104F300086FDFCCF809178009091790008951F93B1
:104F4000CF93DF93182FEB0161E07DD0209731F4F0
:104F500060E0812FDF91CF911F91B1C0CF3FD1058C
:104F600011F461E0F6CFE12FF0E0E859FF4FE49152
:104F7000E33031F140F4E130B1F0E230E1F0C0383B
:104F8000D1057CF7E5CFE73029F1E83059F1E4307D
:104F9000B1F780918000806280938000D0938B0075
:104FA000C0938A0004C084B5806884BDC7BDDF910A
:104FB000CF911F91089584B5806284BDC8BDF7CF9D
:104FC00080918000806880938000D0938900C09396
:104FD0008800EDCF8091B00080688093B000C093CE
:104FE000B300E5CF8091B00080628093B000C093A1
:104FF000B400DDCF833081F028F4813099F0823025
:10500000A9F008958730A9F08830C9F08430B1F450
:10501000809180008F7D03C0809180008F77809386
:105020008000089584B58F7784BD089584B58F7D01
:10503000FBCF8091B0008F778093B000089580916E
:10504000B0008F7DF9CFCF93DF9390E0FC01E4585F
:10505000FF4F249180579F4FFC0184918823C9F012
:1050600090E0880F991FFC01E255FF4FA591B49184
:10507000FC01EC55FF4FC591D49161110DC09FB754
:10508000F8948C91209582238C93888128232883FF
:105090009FBFDF91CF910895623051F49FB7F8948C
:1050A0003C91822F809583238C93E8812E2BEFCF28
:1050B0008FB7F894EC912E2B2C938FBFEACF1F93D0
:1050C000CF93DF93282F30E0F901E859FF4F849107
:1050D000F901E458FF4FD491F901E057FF4FC49113
:1050E000CC23A1F0162F811185DFEC2FF0E0EE0F1D
:1050F000FF1FEC55FF4FA591B4918FB7F894EC9139
:10510000111108C0D095DE23DC938FBFDF91CF91C2
:105110001F910895DE2BF8CFFC01918D228D892FF0
:1051200090E0805C9F4F821B91098F7399270895AF
:10513000FC01918D828D981731F0828DE80FF11D61
:10514000858D90E008958FEF9FEF0895FC01918D7C
:10515000828D981761F0A28DAE0FBF2FB11D5D96A5
:105160008C91928D9F5F9F73928F90E008958FEF47
:105170009FEF0895FC01538D448D252F30E0842F3F
:1051800090E0821B930B541710F0CF96089501976F
:105190000895FC01A48DA80FB92FB11DA35ABF4FCC
:1051A0002C91848D90E001968F739927848FA68926
:1051B000B7892C93A089B1898C91837080648C937A
:1051C000938D848D981306C00288F389E02D808129
:1051D0008F7D80830895CF93DF93EC01888D8823A2
:1051E000B1F0AA89BB89E889F9898C9185FD03C052
:1051F000808186FD0CC00FB607FCF7CF8C9185FF30
:10520000F2CF808185FFEDCFCE01C3DFEACFDF9102
:10521000CF910895EF92FF920F931F93CF93DF9357
:10522000EC0181E0888F9B8D8C8D98131AC0E889E2
:10523000F989808185FF15C09FB7F894EE89FF89B1
:105240006083E889F98980818370806480839FBF4F
:1052500081E090E0DF91CF911F910F91FF90EF904F
:105260000895F62E0B8D10E00F5F1F4F0F7311275F
:10527000E02E8C8D8E110BC00FB607FCFACFE8899B
:10528000F989808185FFF5CFCE0183DFF2CFEB8DE9
:10529000EC0FFD2FF11DE35AFF4FF0829FB7F894FA
:1052A0000B8FEA89FB8980818062D0CFCF92DF9219
:1052B000EF92FF921F93CF93DF93EC016A017B0182
:1052C000122FE889F98982E08083C11481EED80623
:1052D000E104F10499F060E079E08DE390E0A7014A
:1052E0009601F6D02150310941095109569547954B
:1052F00037952795211580E1380790F0E889F989DD
:10530000108260E874E88EE190E0A7019601E0D099
:1053100021503109410951095695479537952795EF
:10532000EC85FD853083EE85FF852083188EEC8922
:10533000FD891083EA89FB89808180618083EA8905
:10534000FB89808188608083EA89FB89808180680D
:105350008083EA89FB8980818F7D8083DF91CF9173
:105360001F91FF90EF90DF90CF9008951F920F92C2
:105370000FB60F9211242F938F939F93EF93FF9368
:10538000E0912F04F09130048081E0913504F09198
:10539000360482FD1BC09081809138048F5F8F732B
:1053A00020913904821741F0E0913804F0E0E15E89
:1053B000FB4F958F80933804FF91EF919F918F91D0
:1053C0002F910F900FBE0F901F9018958081F4CFF2
:1053D0001F920F920FB60F9211242F933F934F936A
:1053E0005F936F937F938F939F93AF93BF93EF934D
:1053F000FF938FE194E0CDDEFF91EF91BF91AF91EC
:105400009F918F917F916F915F914F913F912F91DC
:105410000F900FBE0F901F901895EFE1F4E01382EC
:10542000128288EE93E0A0E0B0E084839583A683A7
:10543000B78387EB91E09183808385EC90E095873B
:10544000848784EC90E09787868780EC90E0918B4E
:10545000808B81EC90E0938B828B82EC90E0958B3B
:10546000848B86EC90E0978B868B118E128E138E38
:10547000148E0895AF92BF92CF92DF92EF92FF9277
:105480000F931F93CF93DF936C017B018B01040F6C
:10549000151FEB015E01AE18BF08C017D10759F008
:1054A0006991D601ED91FC910190F081E02DC6014A
:1054B0000995892B79F7C501DF91CF911F910F9144
:1054C000FF90EF90DF90CF90BF90AF900895089538
:1054D000A1E21A2EAA1BBB1BFD010DC0AA1FBB1FF8
:1054E000EE1FFF1FA217B307E407F50720F0A21B6A
:1054F000B30BE40BF50B661F771F881F991F1A94D7
:1055000069F760957095809590959B01AC01BD0100
:10551000CF010895EE0FFF1F0590F491E02D09943F
:1055200009D0A59F900DB49F900DA49F800D911D53
:1055300011240895A29FB001B39FC001A39F700DD5
:10554000811D1124911DB29F700D811D1124911D8B
:105550000895FB01DC0102C001900D9241505040C2
:10556000D8F70895DC0101C06D9341505040E0F739
:065570000895F894FFCF3E
:105576000AD7233CD03F7F3EFEFFFFFF01E8030032
:1055860000FFFF00000000FFFFFFFFFFFFFFFFFF20
:10559600FF010001000100200030000800FFFFFFAE
:1055A600FF0101EE01FF00DB0D070EFE00C10D42FB
:1055B6000BFD00530DAD0DFC00990D420BF6008A54
:1055C6000E420BF500600DC90EF400530EE00EDE20
:1055D600000C13A515DD007B14420BDA0094109C19
:1055E60010D900C015AC10E2007C0F420BE100B7E9
:1055F6000F420BE0002C10420BD6009619420BD539
:10560600003912420BD400C511420BD300361142A9
:105616000BC000BB10420BF000FF19420BED00BCA3
:1056260019420B000000000A293A2ABA28EB288CF6
:0656360028A628982800B8
:00000001FF
